{
	"Solidity_task2/NMB20.sol": {
		"NMB20": {
			"abi": [
				{
					"inputs": [
						{
							"internalType": "string",
							"name": "name_",
							"type": "string"
						},
						{
							"internalType": "string",
							"name": "symbol_",
							"type": "string"
						},
						{
							"internalType": "uint256",
							"name": "initToken",
							"type": "uint256"
						}
					],
					"stateMutability": "nonpayable",
					"type": "constructor"
				},
				{
					"anonymous": false,
					"inputs": [
						{
							"indexed": true,
							"internalType": "address",
							"name": "owner",
							"type": "address"
						},
						{
							"indexed": true,
							"internalType": "address",
							"name": "spender",
							"type": "address"
						},
						{
							"indexed": false,
							"internalType": "uint256",
							"name": "value",
							"type": "uint256"
						}
					],
					"name": "Approval",
					"type": "event"
				},
				{
					"anonymous": false,
					"inputs": [
						{
							"indexed": true,
							"internalType": "address",
							"name": "from",
							"type": "address"
						},
						{
							"indexed": true,
							"internalType": "address",
							"name": "to",
							"type": "address"
						},
						{
							"indexed": false,
							"internalType": "uint256",
							"name": "value",
							"type": "uint256"
						}
					],
					"name": "Transfer",
					"type": "event"
				},
				{
					"inputs": [
						{
							"internalType": "address",
							"name": "to",
							"type": "address"
						}
					],
					"name": "allowance",
					"outputs": [
						{
							"internalType": "uint256",
							"name": "",
							"type": "uint256"
						}
					],
					"stateMutability": "view",
					"type": "function"
				},
				{
					"inputs": [
						{
							"internalType": "address",
							"name": "to",
							"type": "address"
						},
						{
							"internalType": "uint256",
							"name": "amount",
							"type": "uint256"
						}
					],
					"name": "approve",
					"outputs": [
						{
							"internalType": "bool",
							"name": "",
							"type": "bool"
						}
					],
					"stateMutability": "nonpayable",
					"type": "function"
				},
				{
					"inputs": [
						{
							"internalType": "address",
							"name": "addr",
							"type": "address"
						}
					],
					"name": "balance",
					"outputs": [
						{
							"internalType": "uint256",
							"name": "",
							"type": "uint256"
						}
					],
					"stateMutability": "view",
					"type": "function"
				},
				{
					"inputs": [],
					"name": "decimals",
					"outputs": [
						{
							"internalType": "uint8",
							"name": "",
							"type": "uint8"
						}
					],
					"stateMutability": "view",
					"type": "function"
				},
				{
					"inputs": [
						{
							"internalType": "address",
							"name": "user",
							"type": "address"
						},
						{
							"internalType": "uint256",
							"name": "amount",
							"type": "uint256"
						}
					],
					"name": "mint",
					"outputs": [],
					"stateMutability": "nonpayable",
					"type": "function"
				},
				{
					"inputs": [],
					"name": "name",
					"outputs": [
						{
							"internalType": "string",
							"name": "",
							"type": "string"
						}
					],
					"stateMutability": "view",
					"type": "function"
				},
				{
					"inputs": [],
					"name": "symbol",
					"outputs": [
						{
							"internalType": "string",
							"name": "",
							"type": "string"
						}
					],
					"stateMutability": "view",
					"type": "function"
				},
				{
					"inputs": [],
					"name": "totalSupply",
					"outputs": [
						{
							"internalType": "uint256",
							"name": "",
							"type": "uint256"
						}
					],
					"stateMutability": "view",
					"type": "function"
				},
				{
					"inputs": [
						{
							"internalType": "address",
							"name": "to",
							"type": "address"
						},
						{
							"internalType": "uint256",
							"name": "amount",
							"type": "uint256"
						}
					],
					"name": "transfer",
					"outputs": [
						{
							"internalType": "bool",
							"name": "",
							"type": "bool"
						}
					],
					"stateMutability": "nonpayable",
					"type": "function"
				},
				{
					"inputs": [
						{
							"internalType": "address",
							"name": "from",
							"type": "address"
						},
						{
							"internalType": "address",
							"name": "to",
							"type": "address"
						},
						{
							"internalType": "uint256",
							"name": "amount",
							"type": "uint256"
						}
					],
					"name": "transferFrom",
					"outputs": [
						{
							"internalType": "bool",
							"name": "",
							"type": "bool"
						}
					],
					"stateMutability": "nonpayable",
					"type": "function"
				}
			],
			"devdoc": {
				"kind": "dev",
				"methods": {},
				"version": 1
			},
			"evm": {
				"assembly": "    /* \"Solidity_task2/NMB20.sol\":60:2996  contract NMB20 {... */\n  mstore(0x40, 0x80)\n    /* \"Solidity_task2/NMB20.sol\":555:747  constructor(string memory name_,string memory symbol_,uint initToken) {... */\n  callvalue\n  dup1\n  iszero\n  tag_1\n  jumpi\n  revert(0x00, 0x00)\ntag_1:\n  pop\n  mload(0x40)\n  sub(codesize, bytecodeSize)\n  dup1\n  bytecodeSize\n  dup4\n  codecopy\n  dup2\n  dup2\n  add\n  0x40\n  mstore\n  dup2\n  add\n  swap1\n  tag_2\n  swap2\n  swap1\n  tag_3\n  jump\t// in\ntag_2:\n    /* \"Solidity_task2/NMB20.sol\":644:649  name_ */\n  dup3\n    /* \"Solidity_task2/NMB20.sol\":636:641  _name */\n  0x03\n    /* \"Solidity_task2/NMB20.sol\":636:649  _name = name_ */\n  swap1\n  dup2\n  tag_6\n  swap2\n  swap1\n  tag_7\n  jump\t// in\ntag_6:\n  pop\n    /* \"Solidity_task2/NMB20.sol\":670:677  symbol_ */\n  dup2\n    /* \"Solidity_task2/NMB20.sol\":660:667  _symbol */\n  0x04\n    /* \"Solidity_task2/NMB20.sol\":660:677  _symbol = symbol_ */\n  swap1\n  dup2\n  tag_8\n  swap2\n  swap1\n  tag_7\n  jump\t// in\ntag_8:\n  pop\n    /* \"Solidity_task2/NMB20.sol\":696:706  msg.sender */\n  caller\n    /* \"Solidity_task2/NMB20.sol\":688:693  owner */\n  0x05\n  0x00\n    /* \"Solidity_task2/NMB20.sol\":688:706  owner = msg.sender */\n  0x0100\n  exp\n  dup2\n  sload\n  dup2\n  0xffffffffffffffffffffffffffffffffffffffff\n  mul\n  not\n  and\n  swap1\n  dup4\n  0xffffffffffffffffffffffffffffffffffffffff\n  and\n  mul\n  or\n  swap1\n  sstore\n  pop\n    /* \"Solidity_task2/NMB20.sol\":717:739  _mint(owner,initToken) */\n  tag_9\n    /* \"Solidity_task2/NMB20.sol\":723:728  owner */\n  0x05\n  0x00\n  swap1\n  sload\n  swap1\n  0x0100\n  exp\n  swap1\n  div\n  0xffffffffffffffffffffffffffffffffffffffff\n  and\n    /* \"Solidity_task2/NMB20.sol\":729:738  initToken */\n  dup3\n    /* \"Solidity_task2/NMB20.sol\":717:722  _mint */\n  shl(0x20, tag_10)\n    /* \"Solidity_task2/NMB20.sol\":717:739  _mint(owner,initToken) */\n  0x20\n  shr\n  jump\t// in\ntag_9:\n    /* \"Solidity_task2/NMB20.sol\":555:747  constructor(string memory name_,string memory symbol_,uint initToken) {... */\n  pop\n  pop\n  pop\n    /* \"Solidity_task2/NMB20.sol\":60:2996  contract NMB20 {... */\n  jump(tag_11)\n    /* \"Solidity_task2/NMB20.sol\":2757:2991  function _mint(address user,uint amount) internal  {... */\ntag_10:\n    /* \"Solidity_task2/NMB20.sol\":2837:2838  0 */\n  0x00\n    /* \"Solidity_task2/NMB20.sol\":2827:2833  amount */\n  dup2\n    /* \"Solidity_task2/NMB20.sol\":2827:2838  amount != 0 */\n  sub\n    /* \"Solidity_task2/NMB20.sol\":2819:2864  require(amount != 0,\"amount cannot is empty\") */\n  tag_13\n  jumpi\n  mload(0x40)\n  0x08c379a000000000000000000000000000000000000000000000000000000000\n  dup2\n  mstore\n  0x04\n  add\n  tag_14\n  swap1\n  tag_15\n  jump\t// in\ntag_14:\n  mload(0x40)\n  dup1\n  swap2\n  sub\n  swap1\n  revert\ntag_13:\n    /* \"Solidity_task2/NMB20.sol\":2891:2897  amount */\n  dup1\n    /* \"Solidity_task2/NMB20.sol\":2875:2887  _totalSupply */\n  0x02\n  0x00\n    /* \"Solidity_task2/NMB20.sol\":2875:2897  _totalSupply += amount */\n  dup3\n  dup3\n  sload\n  tag_16\n  swap2\n  swap1\n  tag_17\n  jump\t// in\ntag_16:\n  swap3\n  pop\n  pop\n  dup2\n  swap1\n  sstore\n  pop\n    /* \"Solidity_task2/NMB20.sol\":2927:2933  amount */\n  dup1\n    /* \"Solidity_task2/NMB20.sol\":2908:2917  _balances */\n  0x00\n    /* \"Solidity_task2/NMB20.sol\":2908:2923  _balances[user] */\n  0x00\n    /* \"Solidity_task2/NMB20.sol\":2918:2922  user */\n  dup5\n    /* \"Solidity_task2/NMB20.sol\":2908:2923  _balances[user] */\n  0xffffffffffffffffffffffffffffffffffffffff\n  and\n  0xffffffffffffffffffffffffffffffffffffffff\n  and\n  dup2\n  mstore\n  0x20\n  add\n  swap1\n  dup2\n  mstore\n  0x20\n  add\n  0x00\n  keccak256\n  0x00\n    /* \"Solidity_task2/NMB20.sol\":2908:2933  _balances[user] += amount */\n  dup3\n  dup3\n  sload\n  tag_18\n  swap2\n  swap1\n  tag_17\n  jump\t// in\ntag_18:\n  swap3\n  pop\n  pop\n  dup2\n  swap1\n  sstore\n  pop\n    /* \"Solidity_task2/NMB20.sol\":2970:2974  user */\n  dup2\n    /* \"Solidity_task2/NMB20.sol\":2949:2983  Transfer(address(0), user, amount) */\n  0xffffffffffffffffffffffffffffffffffffffff\n  and\n    /* \"Solidity_task2/NMB20.sol\":2966:2967  0 */\n  0x00\n    /* \"Solidity_task2/NMB20.sol\":2949:2983  Transfer(address(0), user, amount) */\n  0xffffffffffffffffffffffffffffffffffffffff\n  and\n  0xddf252ad1be2c89b69c2b068fc378daa952ba7f163c4a11628f55a4df523b3ef\n    /* \"Solidity_task2/NMB20.sol\":2976:2982  amount */\n  dup4\n    /* \"Solidity_task2/NMB20.sol\":2949:2983  Transfer(address(0), user, amount) */\n  mload(0x40)\n  tag_19\n  swap2\n  swap1\n  tag_20\n  jump\t// in\ntag_19:\n  mload(0x40)\n  dup1\n  swap2\n  sub\n  swap1\n  log3\n    /* \"Solidity_task2/NMB20.sol\":2757:2991  function _mint(address user,uint amount) internal  {... */\n  pop\n  pop\n  jump\t// out\n    /* \"#utility.yul\":7:82   */\ntag_21:\n    /* \"#utility.yul\":40:46   */\n  0x00\n    /* \"#utility.yul\":73:75   */\n  0x40\n    /* \"#utility.yul\":67:76   */\n  mload\n    /* \"#utility.yul\":57:76   */\n  swap1\n  pop\n    /* \"#utility.yul\":7:82   */\n  swap1\n  jump\t// out\n    /* \"#utility.yul\":88:205   */\ntag_22:\n    /* \"#utility.yul\":197:198   */\n  0x00\n    /* \"#utility.yul\":194:195   */\n  0x00\n    /* \"#utility.yul\":187:199   */\n  revert\n    /* \"#utility.yul\":211:328   */\ntag_23:\n    /* \"#utility.yul\":320:321   */\n  0x00\n    /* \"#utility.yul\":317:318   */\n  0x00\n    /* \"#utility.yul\":310:322   */\n  revert\n    /* \"#utility.yul\":334:451   */\ntag_24:\n    /* \"#utility.yul\":443:444   */\n  0x00\n    /* \"#utility.yul\":440:441   */\n  0x00\n    /* \"#utility.yul\":433:445   */\n  revert\n    /* \"#utility.yul\":457:574   */\ntag_25:\n    /* \"#utility.yul\":566:567   */\n  0x00\n    /* \"#utility.yul\":563:564   */\n  0x00\n    /* \"#utility.yul\":556:568   */\n  revert\n    /* \"#utility.yul\":580:682   */\ntag_26:\n    /* \"#utility.yul\":621:627   */\n  0x00\n    /* \"#utility.yul\":672:674   */\n  0x1f\n    /* \"#utility.yul\":668:675   */\n  not\n    /* \"#utility.yul\":663:665   */\n  0x1f\n    /* \"#utility.yul\":656:661   */\n  dup4\n    /* \"#utility.yul\":652:666   */\n  add\n    /* \"#utility.yul\":648:676   */\n  and\n    /* \"#utility.yul\":638:676   */\n  swap1\n  pop\n    /* \"#utility.yul\":580:682   */\n  swap2\n  swap1\n  pop\n  jump\t// out\n    /* \"#utility.yul\":688:868   */\ntag_27:\n    /* \"#utility.yul\":736:813   */\n  0x4e487b7100000000000000000000000000000000000000000000000000000000\n    /* \"#utility.yul\":733:734   */\n  0x00\n    /* \"#utility.yul\":726:814   */\n  mstore\n    /* \"#utility.yul\":833:837   */\n  0x41\n    /* \"#utility.yul\":830:831   */\n  0x04\n    /* \"#utility.yul\":823:838   */\n  mstore\n    /* \"#utility.yul\":857:861   */\n  0x24\n    /* \"#utility.yul\":854:855   */\n  0x00\n    /* \"#utility.yul\":847:862   */\n  revert\n    /* \"#utility.yul\":874:1155   */\ntag_28:\n    /* \"#utility.yul\":957:984   */\n  tag_69\n    /* \"#utility.yul\":979:983   */\n  dup3\n    /* \"#utility.yul\":957:984   */\n  tag_26\n  jump\t// in\ntag_69:\n    /* \"#utility.yul\":949:955   */\n  dup2\n    /* \"#utility.yul\":945:985   */\n  add\n    /* \"#utility.yul\":1087:1093   */\n  dup2\n    /* \"#utility.yul\":1075:1085   */\n  dup2\n    /* \"#utility.yul\":1072:1094   */\n  lt\n    /* \"#utility.yul\":1051:1069   */\n  0xffffffffffffffff\n    /* \"#utility.yul\":1039:1049   */\n  dup3\n    /* \"#utility.yul\":1036:1070   */\n  gt\n    /* \"#utility.yul\":1033:1095   */\n  or\n    /* \"#utility.yul\":1030:1118   */\n  iszero\n  tag_70\n  jumpi\n    /* \"#utility.yul\":1098:1116   */\n  tag_71\n  tag_27\n  jump\t// in\ntag_71:\n    /* \"#utility.yul\":1030:1118   */\ntag_70:\n    /* \"#utility.yul\":1138:1148   */\n  dup1\n    /* \"#utility.yul\":1134:1136   */\n  0x40\n    /* \"#utility.yul\":1127:1149   */\n  mstore\n    /* \"#utility.yul\":917:1155   */\n  pop\n    /* \"#utility.yul\":874:1155   */\n  pop\n  pop\n  jump\t// out\n    /* \"#utility.yul\":1161:1290   */\ntag_29:\n    /* \"#utility.yul\":1195:1201   */\n  0x00\n    /* \"#utility.yul\":1222:1242   */\n  tag_73\n  tag_21\n  jump\t// in\ntag_73:\n    /* \"#utility.yul\":1212:1242   */\n  swap1\n  pop\n    /* \"#utility.yul\":1251:1284   */\n  tag_74\n    /* \"#utility.yul\":1279:1283   */\n  dup3\n    /* \"#utility.yul\":1271:1277   */\n  dup3\n    /* \"#utility.yul\":1251:1284   */\n  tag_28\n  jump\t// in\ntag_74:\n    /* \"#utility.yul\":1161:1290   */\n  swap2\n  swap1\n  pop\n  jump\t// out\n    /* \"#utility.yul\":1296:1604   */\ntag_30:\n    /* \"#utility.yul\":1358:1362   */\n  0x00\n    /* \"#utility.yul\":1448:1466   */\n  0xffffffffffffffff\n    /* \"#utility.yul\":1440:1446   */\n  dup3\n    /* \"#utility.yul\":1437:1467   */\n  gt\n    /* \"#utility.yul\":1434:1490   */\n  iszero\n  tag_76\n  jumpi\n    /* \"#utility.yul\":1470:1488   */\n  tag_77\n  tag_27\n  jump\t// in\ntag_77:\n    /* \"#utility.yul\":1434:1490   */\ntag_76:\n    /* \"#utility.yul\":1508:1537   */\n  tag_78\n    /* \"#utility.yul\":1530:1536   */\n  dup3\n    /* \"#utility.yul\":1508:1537   */\n  tag_26\n  jump\t// in\ntag_78:\n    /* \"#utility.yul\":1500:1537   */\n  swap1\n  pop\n    /* \"#utility.yul\":1592:1596   */\n  0x20\n    /* \"#utility.yul\":1586:1590   */\n  dup2\n    /* \"#utility.yul\":1582:1597   */\n  add\n    /* \"#utility.yul\":1574:1597   */\n  swap1\n  pop\n    /* \"#utility.yul\":1296:1604   */\n  swap2\n  swap1\n  pop\n  jump\t// out\n    /* \"#utility.yul\":1610:1749   */\ntag_31:\n    /* \"#utility.yul\":1699:1705   */\n  dup3\n    /* \"#utility.yul\":1694:1697   */\n  dup2\n    /* \"#utility.yul\":1689:1692   */\n  dup4\n    /* \"#utility.yul\":1683:1706   */\n  mcopy\n    /* \"#utility.yul\":1740:1741   */\n  0x00\n    /* \"#utility.yul\":1731:1737   */\n  dup4\n    /* \"#utility.yul\":1726:1729   */\n  dup4\n    /* \"#utility.yul\":1722:1738   */\n  add\n    /* \"#utility.yul\":1715:1742   */\n  mstore\n    /* \"#utility.yul\":1610:1749   */\n  pop\n  pop\n  pop\n  jump\t// out\n    /* \"#utility.yul\":1755:2189   */\ntag_32:\n    /* \"#utility.yul\":1844:1849   */\n  0x00\n    /* \"#utility.yul\":1869:1935   */\n  tag_81\n    /* \"#utility.yul\":1885:1934   */\n  tag_82\n    /* \"#utility.yul\":1927:1933   */\n  dup5\n    /* \"#utility.yul\":1885:1934   */\n  tag_30\n  jump\t// in\ntag_82:\n    /* \"#utility.yul\":1869:1935   */\n  tag_29\n  jump\t// in\ntag_81:\n    /* \"#utility.yul\":1860:1935   */\n  swap1\n  pop\n    /* \"#utility.yul\":1958:1964   */\n  dup3\n    /* \"#utility.yul\":1951:1956   */\n  dup2\n    /* \"#utility.yul\":1944:1965   */\n  mstore\n    /* \"#utility.yul\":1996:2000   */\n  0x20\n    /* \"#utility.yul\":1989:1994   */\n  dup2\n    /* \"#utility.yul\":1985:2001   */\n  add\n    /* \"#utility.yul\":2034:2037   */\n  dup5\n    /* \"#utility.yul\":2025:2031   */\n  dup5\n    /* \"#utility.yul\":2020:2023   */\n  dup5\n    /* \"#utility.yul\":2016:2032   */\n  add\n    /* \"#utility.yul\":2013:2038   */\n  gt\n    /* \"#utility.yul\":2010:2122   */\n  iszero\n  tag_83\n  jumpi\n    /* \"#utility.yul\":2041:2120   */\n  tag_84\n  tag_25\n  jump\t// in\ntag_84:\n    /* \"#utility.yul\":2010:2122   */\ntag_83:\n    /* \"#utility.yul\":2131:2183   */\n  tag_85\n    /* \"#utility.yul\":2176:2182   */\n  dup5\n    /* \"#utility.yul\":2171:2174   */\n  dup3\n    /* \"#utility.yul\":2166:2169   */\n  dup6\n    /* \"#utility.yul\":2131:2183   */\n  tag_31\n  jump\t// in\ntag_85:\n    /* \"#utility.yul\":1850:2189   */\n  pop\n    /* \"#utility.yul\":1755:2189   */\n  swap4\n  swap3\n  pop\n  pop\n  pop\n  jump\t// out\n    /* \"#utility.yul\":2209:2564   */\ntag_33:\n    /* \"#utility.yul\":2276:2281   */\n  0x00\n    /* \"#utility.yul\":2325:2328   */\n  dup3\n    /* \"#utility.yul\":2318:2322   */\n  0x1f\n    /* \"#utility.yul\":2310:2316   */\n  dup4\n    /* \"#utility.yul\":2306:2323   */\n  add\n    /* \"#utility.yul\":2302:2329   */\n  slt\n    /* \"#utility.yul\":2292:2414   */\n  tag_87\n  jumpi\n    /* \"#utility.yul\":2333:2412   */\n  tag_88\n  tag_24\n  jump\t// in\ntag_88:\n    /* \"#utility.yul\":2292:2414   */\ntag_87:\n    /* \"#utility.yul\":2443:2449   */\n  dup2\n    /* \"#utility.yul\":2437:2450   */\n  mload\n    /* \"#utility.yul\":2468:2558   */\n  tag_89\n    /* \"#utility.yul\":2554:2557   */\n  dup5\n    /* \"#utility.yul\":2546:2552   */\n  dup3\n    /* \"#utility.yul\":2539:2543   */\n  0x20\n    /* \"#utility.yul\":2531:2537   */\n  dup7\n    /* \"#utility.yul\":2527:2544   */\n  add\n    /* \"#utility.yul\":2468:2558   */\n  tag_32\n  jump\t// in\ntag_89:\n    /* \"#utility.yul\":2459:2558   */\n  swap2\n  pop\n    /* \"#utility.yul\":2282:2564   */\n  pop\n    /* \"#utility.yul\":2209:2564   */\n  swap3\n  swap2\n  pop\n  pop\n  jump\t// out\n    /* \"#utility.yul\":2570:2647   */\ntag_34:\n    /* \"#utility.yul\":2607:2614   */\n  0x00\n    /* \"#utility.yul\":2636:2641   */\n  dup2\n    /* \"#utility.yul\":2625:2641   */\n  swap1\n  pop\n    /* \"#utility.yul\":2570:2647   */\n  swap2\n  swap1\n  pop\n  jump\t// out\n    /* \"#utility.yul\":2653:2775   */\ntag_35:\n    /* \"#utility.yul\":2726:2750   */\n  tag_92\n    /* \"#utility.yul\":2744:2749   */\n  dup2\n    /* \"#utility.yul\":2726:2750   */\n  tag_34\n  jump\t// in\ntag_92:\n    /* \"#utility.yul\":2719:2724   */\n  dup2\n    /* \"#utility.yul\":2716:2751   */\n  eq\n    /* \"#utility.yul\":2706:2769   */\n  tag_93\n  jumpi\n    /* \"#utility.yul\":2765:2766   */\n  0x00\n    /* \"#utility.yul\":2762:2763   */\n  0x00\n    /* \"#utility.yul\":2755:2767   */\n  revert\n    /* \"#utility.yul\":2706:2769   */\ntag_93:\n    /* \"#utility.yul\":2653:2775   */\n  pop\n  jump\t// out\n    /* \"#utility.yul\":2781:2924   */\ntag_36:\n    /* \"#utility.yul\":2838:2843   */\n  0x00\n    /* \"#utility.yul\":2869:2875   */\n  dup2\n    /* \"#utility.yul\":2863:2876   */\n  mload\n    /* \"#utility.yul\":2854:2876   */\n  swap1\n  pop\n    /* \"#utility.yul\":2885:2918   */\n  tag_95\n    /* \"#utility.yul\":2912:2917   */\n  dup2\n    /* \"#utility.yul\":2885:2918   */\n  tag_35\n  jump\t// in\ntag_95:\n    /* \"#utility.yul\":2781:2924   */\n  swap3\n  swap2\n  pop\n  pop\n  jump\t// out\n    /* \"#utility.yul\":2930:3939   */\ntag_3:\n    /* \"#utility.yul\":3038:3044   */\n  0x00\n    /* \"#utility.yul\":3046:3052   */\n  0x00\n    /* \"#utility.yul\":3054:3060   */\n  0x00\n    /* \"#utility.yul\":3103:3105   */\n  0x60\n    /* \"#utility.yul\":3091:3100   */\n  dup5\n    /* \"#utility.yul\":3082:3089   */\n  dup7\n    /* \"#utility.yul\":3078:3101   */\n  sub\n    /* \"#utility.yul\":3074:3106   */\n  slt\n    /* \"#utility.yul\":3071:3190   */\n  iszero\n  tag_97\n  jumpi\n    /* \"#utility.yul\":3109:3188   */\n  tag_98\n  tag_22\n  jump\t// in\ntag_98:\n    /* \"#utility.yul\":3071:3190   */\ntag_97:\n    /* \"#utility.yul\":3250:3251   */\n  0x00\n    /* \"#utility.yul\":3239:3248   */\n  dup5\n    /* \"#utility.yul\":3235:3252   */\n  add\n    /* \"#utility.yul\":3229:3253   */\n  mload\n    /* \"#utility.yul\":3280:3298   */\n  0xffffffffffffffff\n    /* \"#utility.yul\":3272:3278   */\n  dup2\n    /* \"#utility.yul\":3269:3299   */\n  gt\n    /* \"#utility.yul\":3266:3383   */\n  iszero\n  tag_99\n  jumpi\n    /* \"#utility.yul\":3302:3381   */\n  tag_100\n  tag_23\n  jump\t// in\ntag_100:\n    /* \"#utility.yul\":3266:3383   */\ntag_99:\n    /* \"#utility.yul\":3407:3481   */\n  tag_101\n    /* \"#utility.yul\":3473:3480   */\n  dup7\n    /* \"#utility.yul\":3464:3470   */\n  dup3\n    /* \"#utility.yul\":3453:3462   */\n  dup8\n    /* \"#utility.yul\":3449:3471   */\n  add\n    /* \"#utility.yul\":3407:3481   */\n  tag_33\n  jump\t// in\ntag_101:\n    /* \"#utility.yul\":3397:3481   */\n  swap4\n  pop\n    /* \"#utility.yul\":3200:3491   */\n  pop\n    /* \"#utility.yul\":3551:3553   */\n  0x20\n    /* \"#utility.yul\":3540:3549   */\n  dup5\n    /* \"#utility.yul\":3536:3554   */\n  add\n    /* \"#utility.yul\":3530:3555   */\n  mload\n    /* \"#utility.yul\":3582:3600   */\n  0xffffffffffffffff\n    /* \"#utility.yul\":3574:3580   */\n  dup2\n    /* \"#utility.yul\":3571:3601   */\n  gt\n    /* \"#utility.yul\":3568:3685   */\n  iszero\n  tag_102\n  jumpi\n    /* \"#utility.yul\":3604:3683   */\n  tag_103\n  tag_23\n  jump\t// in\ntag_103:\n    /* \"#utility.yul\":3568:3685   */\ntag_102:\n    /* \"#utility.yul\":3709:3783   */\n  tag_104\n    /* \"#utility.yul\":3775:3782   */\n  dup7\n    /* \"#utility.yul\":3766:3772   */\n  dup3\n    /* \"#utility.yul\":3755:3764   */\n  dup8\n    /* \"#utility.yul\":3751:3773   */\n  add\n    /* \"#utility.yul\":3709:3783   */\n  tag_33\n  jump\t// in\ntag_104:\n    /* \"#utility.yul\":3699:3783   */\n  swap3\n  pop\n    /* \"#utility.yul\":3501:3793   */\n  pop\n    /* \"#utility.yul\":3832:3834   */\n  0x40\n    /* \"#utility.yul\":3858:3922   */\n  tag_105\n    /* \"#utility.yul\":3914:3921   */\n  dup7\n    /* \"#utility.yul\":3905:3911   */\n  dup3\n    /* \"#utility.yul\":3894:3903   */\n  dup8\n    /* \"#utility.yul\":3890:3912   */\n  add\n    /* \"#utility.yul\":3858:3922   */\n  tag_36\n  jump\t// in\ntag_105:\n    /* \"#utility.yul\":3848:3922   */\n  swap2\n  pop\n    /* \"#utility.yul\":3803:3932   */\n  pop\n    /* \"#utility.yul\":2930:3939   */\n  swap3\n  pop\n  swap3\n  pop\n  swap3\n  jump\t// out\n    /* \"#utility.yul\":3945:4044   */\ntag_37:\n    /* \"#utility.yul\":3997:4003   */\n  0x00\n    /* \"#utility.yul\":4031:4036   */\n  dup2\n    /* \"#utility.yul\":4025:4037   */\n  mload\n    /* \"#utility.yul\":4015:4037   */\n  swap1\n  pop\n    /* \"#utility.yul\":3945:4044   */\n  swap2\n  swap1\n  pop\n  jump\t// out\n    /* \"#utility.yul\":4050:4230   */\ntag_38:\n    /* \"#utility.yul\":4098:4175   */\n  0x4e487b7100000000000000000000000000000000000000000000000000000000\n    /* \"#utility.yul\":4095:4096   */\n  0x00\n    /* \"#utility.yul\":4088:4176   */\n  mstore\n    /* \"#utility.yul\":4195:4199   */\n  0x22\n    /* \"#utility.yul\":4192:4193   */\n  0x04\n    /* \"#utility.yul\":4185:4200   */\n  mstore\n    /* \"#utility.yul\":4219:4223   */\n  0x24\n    /* \"#utility.yul\":4216:4217   */\n  0x00\n    /* \"#utility.yul\":4209:4224   */\n  revert\n    /* \"#utility.yul\":4236:4556   */\ntag_39:\n    /* \"#utility.yul\":4280:4286   */\n  0x00\n    /* \"#utility.yul\":4317:4318   */\n  0x02\n    /* \"#utility.yul\":4311:4315   */\n  dup3\n    /* \"#utility.yul\":4307:4319   */\n  div\n    /* \"#utility.yul\":4297:4319   */\n  swap1\n  pop\n    /* \"#utility.yul\":4364:4365   */\n  0x01\n    /* \"#utility.yul\":4358:4362   */\n  dup3\n    /* \"#utility.yul\":4354:4366   */\n  and\n    /* \"#utility.yul\":4385:4403   */\n  dup1\n    /* \"#utility.yul\":4375:4456   */\n  tag_109\n  jumpi\n    /* \"#utility.yul\":4441:4445   */\n  0x7f\n    /* \"#utility.yul\":4433:4439   */\n  dup3\n    /* \"#utility.yul\":4429:4446   */\n  and\n    /* \"#utility.yul\":4419:4446   */\n  swap2\n  pop\n    /* \"#utility.yul\":4375:4456   */\ntag_109:\n    /* \"#utility.yul\":4503:4505   */\n  0x20\n    /* \"#utility.yul\":4495:4501   */\n  dup3\n    /* \"#utility.yul\":4492:4506   */\n  lt\n    /* \"#utility.yul\":4472:4490   */\n  dup2\n    /* \"#utility.yul\":4469:4507   */\n  sub\n    /* \"#utility.yul\":4466:4550   */\n  tag_110\n  jumpi\n    /* \"#utility.yul\":4522:4540   */\n  tag_111\n  tag_38\n  jump\t// in\ntag_111:\n    /* \"#utility.yul\":4466:4550   */\ntag_110:\n    /* \"#utility.yul\":4287:4556   */\n  pop\n    /* \"#utility.yul\":4236:4556   */\n  swap2\n  swap1\n  pop\n  jump\t// out\n    /* \"#utility.yul\":4562:4703   */\ntag_40:\n    /* \"#utility.yul\":4611:4615   */\n  0x00\n    /* \"#utility.yul\":4634:4637   */\n  dup2\n    /* \"#utility.yul\":4626:4637   */\n  swap1\n  pop\n    /* \"#utility.yul\":4657:4660   */\n  dup2\n    /* \"#utility.yul\":4654:4655   */\n  0x00\n    /* \"#utility.yul\":4647:4661   */\n  mstore\n    /* \"#utility.yul\":4691:4695   */\n  0x20\n    /* \"#utility.yul\":4688:4689   */\n  0x00\n    /* \"#utility.yul\":4678:4696   */\n  keccak256\n    /* \"#utility.yul\":4670:4696   */\n  swap1\n  pop\n    /* \"#utility.yul\":4562:4703   */\n  swap2\n  swap1\n  pop\n  jump\t// out\n    /* \"#utility.yul\":4709:4802   */\ntag_41:\n    /* \"#utility.yul\":4746:4752   */\n  0x00\n    /* \"#utility.yul\":4793:4795   */\n  0x20\n    /* \"#utility.yul\":4788:4790   */\n  0x1f\n    /* \"#utility.yul\":4781:4786   */\n  dup4\n    /* \"#utility.yul\":4777:4791   */\n  add\n    /* \"#utility.yul\":4773:4796   */\n  div\n    /* \"#utility.yul\":4763:4796   */\n  swap1\n  pop\n    /* \"#utility.yul\":4709:4802   */\n  swap2\n  swap1\n  pop\n  jump\t// out\n    /* \"#utility.yul\":4808:4915   */\ntag_42:\n    /* \"#utility.yul\":4852:4860   */\n  0x00\n    /* \"#utility.yul\":4902:4907   */\n  dup3\n    /* \"#utility.yul\":4896:4900   */\n  dup3\n    /* \"#utility.yul\":4892:4908   */\n  shl\n    /* \"#utility.yul\":4871:4908   */\n  swap1\n  pop\n    /* \"#utility.yul\":4808:4915   */\n  swap3\n  swap2\n  pop\n  pop\n  jump\t// out\n    /* \"#utility.yul\":4921:5314   */\ntag_43:\n    /* \"#utility.yul\":4990:4996   */\n  0x00\n    /* \"#utility.yul\":5040:5041   */\n  0x08\n    /* \"#utility.yul\":5028:5038   */\n  dup4\n    /* \"#utility.yul\":5024:5042   */\n  mul\n    /* \"#utility.yul\":5063:5160   */\n  tag_116\n    /* \"#utility.yul\":5093:5159   */\n  0xffffffffffffffffffffffffffffffffffffffffffffffffffffffffffffffff\n    /* \"#utility.yul\":5082:5091   */\n  dup3\n    /* \"#utility.yul\":5063:5160   */\n  tag_42\n  jump\t// in\ntag_116:\n    /* \"#utility.yul\":5181:5220   */\n  tag_117\n    /* \"#utility.yul\":5211:5219   */\n  dup7\n    /* \"#utility.yul\":5200:5209   */\n  dup4\n    /* \"#utility.yul\":5181:5220   */\n  tag_42\n  jump\t// in\ntag_117:\n    /* \"#utility.yul\":5169:5220   */\n  swap6\n  pop\n    /* \"#utility.yul\":5253:5257   */\n  dup1\n    /* \"#utility.yul\":5249:5258   */\n  not\n    /* \"#utility.yul\":5242:5247   */\n  dup5\n    /* \"#utility.yul\":5238:5259   */\n  and\n    /* \"#utility.yul\":5229:5259   */\n  swap4\n  pop\n    /* \"#utility.yul\":5302:5306   */\n  dup1\n    /* \"#utility.yul\":5292:5300   */\n  dup7\n    /* \"#utility.yul\":5288:5307   */\n  and\n    /* \"#utility.yul\":5281:5286   */\n  dup5\n    /* \"#utility.yul\":5278:5308   */\n  or\n    /* \"#utility.yul\":5268:5308   */\n  swap3\n  pop\n    /* \"#utility.yul\":4997:5314   */\n  pop\n  pop\n    /* \"#utility.yul\":4921:5314   */\n  swap4\n  swap3\n  pop\n  pop\n  pop\n  jump\t// out\n    /* \"#utility.yul\":5320:5380   */\ntag_44:\n    /* \"#utility.yul\":5348:5351   */\n  0x00\n    /* \"#utility.yul\":5369:5374   */\n  dup2\n    /* \"#utility.yul\":5362:5374   */\n  swap1\n  pop\n    /* \"#utility.yul\":5320:5380   */\n  swap2\n  swap1\n  pop\n  jump\t// out\n    /* \"#utility.yul\":5386:5528   */\ntag_45:\n    /* \"#utility.yul\":5436:5445   */\n  0x00\n    /* \"#utility.yul\":5469:5522   */\n  tag_120\n    /* \"#utility.yul\":5487:5521   */\n  tag_121\n    /* \"#utility.yul\":5496:5520   */\n  tag_122\n    /* \"#utility.yul\":5514:5519   */\n  dup5\n    /* \"#utility.yul\":5496:5520   */\n  tag_34\n  jump\t// in\ntag_122:\n    /* \"#utility.yul\":5487:5521   */\n  tag_44\n  jump\t// in\ntag_121:\n    /* \"#utility.yul\":5469:5522   */\n  tag_34\n  jump\t// in\ntag_120:\n    /* \"#utility.yul\":5456:5522   */\n  swap1\n  pop\n    /* \"#utility.yul\":5386:5528   */\n  swap2\n  swap1\n  pop\n  jump\t// out\n    /* \"#utility.yul\":5534:5609   */\ntag_46:\n    /* \"#utility.yul\":5577:5580   */\n  0x00\n    /* \"#utility.yul\":5598:5603   */\n  dup2\n    /* \"#utility.yul\":5591:5603   */\n  swap1\n  pop\n    /* \"#utility.yul\":5534:5609   */\n  swap2\n  swap1\n  pop\n  jump\t// out\n    /* \"#utility.yul\":5615:5884   */\ntag_47:\n    /* \"#utility.yul\":5725:5764   */\n  tag_125\n    /* \"#utility.yul\":5756:5763   */\n  dup4\n    /* \"#utility.yul\":5725:5764   */\n  tag_45\n  jump\t// in\ntag_125:\n    /* \"#utility.yul\":5786:5877   */\n  tag_126\n    /* \"#utility.yul\":5835:5876   */\n  tag_127\n    /* \"#utility.yul\":5859:5875   */\n  dup3\n    /* \"#utility.yul\":5835:5876   */\n  tag_46\n  jump\t// in\ntag_127:\n    /* \"#utility.yul\":5827:5833   */\n  dup5\n    /* \"#utility.yul\":5820:5824   */\n  dup5\n    /* \"#utility.yul\":5814:5825   */\n  sload\n    /* \"#utility.yul\":5786:5877   */\n  tag_43\n  jump\t// in\ntag_126:\n    /* \"#utility.yul\":5780:5784   */\n  dup3\n    /* \"#utility.yul\":5773:5878   */\n  sstore\n    /* \"#utility.yul\":5691:5884   */\n  pop\n    /* \"#utility.yul\":5615:5884   */\n  pop\n  pop\n  pop\n  jump\t// out\n    /* \"#utility.yul\":5890:5963   */\ntag_48:\n    /* \"#utility.yul\":5935:5938   */\n  0x00\n    /* \"#utility.yul\":5956:5957   */\n  0x00\n    /* \"#utility.yul\":5949:5957   */\n  swap1\n  pop\n    /* \"#utility.yul\":5890:5963   */\n  swap1\n  jump\t// out\n    /* \"#utility.yul\":5969:6158   */\ntag_49:\n    /* \"#utility.yul\":6046:6078   */\n  tag_130\n  tag_48\n  jump\t// in\ntag_130:\n    /* \"#utility.yul\":6087:6152   */\n  tag_131\n    /* \"#utility.yul\":6145:6151   */\n  dup2\n    /* \"#utility.yul\":6137:6143   */\n  dup5\n    /* \"#utility.yul\":6131:6135   */\n  dup5\n    /* \"#utility.yul\":6087:6152   */\n  tag_47\n  jump\t// in\ntag_131:\n    /* \"#utility.yul\":6022:6158   */\n  pop\n    /* \"#utility.yul\":5969:6158   */\n  pop\n  pop\n  jump\t// out\n    /* \"#utility.yul\":6164:6350   */\ntag_50:\n    /* \"#utility.yul\":6224:6344   */\ntag_133:\n    /* \"#utility.yul\":6241:6244   */\n  dup2\n    /* \"#utility.yul\":6234:6239   */\n  dup2\n    /* \"#utility.yul\":6231:6245   */\n  lt\n    /* \"#utility.yul\":6224:6344   */\n  iszero\n  tag_135\n  jumpi\n    /* \"#utility.yul\":6295:6334   */\n  tag_136\n    /* \"#utility.yul\":6332:6333   */\n  0x00\n    /* \"#utility.yul\":6325:6330   */\n  dup3\n    /* \"#utility.yul\":6295:6334   */\n  tag_49\n  jump\t// in\ntag_136:\n    /* \"#utility.yul\":6268:6269   */\n  0x01\n    /* \"#utility.yul\":6261:6266   */\n  dup2\n    /* \"#utility.yul\":6257:6270   */\n  add\n    /* \"#utility.yul\":6248:6270   */\n  swap1\n  pop\n    /* \"#utility.yul\":6224:6344   */\n  jump(tag_133)\ntag_135:\n    /* \"#utility.yul\":6164:6350   */\n  pop\n  pop\n  jump\t// out\n    /* \"#utility.yul\":6356:6899   */\ntag_51:\n    /* \"#utility.yul\":6457:6459   */\n  0x1f\n    /* \"#utility.yul\":6452:6455   */\n  dup3\n    /* \"#utility.yul\":6449:6460   */\n  gt\n    /* \"#utility.yul\":6446:6892   */\n  iszero\n  tag_138\n  jumpi\n    /* \"#utility.yul\":6491:6529   */\n  tag_139\n    /* \"#utility.yul\":6523:6528   */\n  dup2\n    /* \"#utility.yul\":6491:6529   */\n  tag_40\n  jump\t// in\ntag_139:\n    /* \"#utility.yul\":6575:6604   */\n  tag_140\n    /* \"#utility.yul\":6593:6603   */\n  dup5\n    /* \"#utility.yul\":6575:6604   */\n  tag_41\n  jump\t// in\ntag_140:\n    /* \"#utility.yul\":6565:6573   */\n  dup2\n    /* \"#utility.yul\":6561:6605   */\n  add\n    /* \"#utility.yul\":6758:6760   */\n  0x20\n    /* \"#utility.yul\":6746:6756   */\n  dup6\n    /* \"#utility.yul\":6743:6761   */\n  lt\n    /* \"#utility.yul\":6740:6789   */\n  iszero\n  tag_141\n  jumpi\n    /* \"#utility.yul\":6779:6787   */\n  dup2\n    /* \"#utility.yul\":6764:6787   */\n  swap1\n  pop\n    /* \"#utility.yul\":6740:6789   */\ntag_141:\n    /* \"#utility.yul\":6802:6882   */\n  tag_142\n    /* \"#utility.yul\":6858:6880   */\n  tag_143\n    /* \"#utility.yul\":6876:6879   */\n  dup6\n    /* \"#utility.yul\":6858:6880   */\n  tag_41\n  jump\t// in\ntag_143:\n    /* \"#utility.yul\":6848:6856   */\n  dup4\n    /* \"#utility.yul\":6844:6881   */\n  add\n    /* \"#utility.yul\":6831:6842   */\n  dup3\n    /* \"#utility.yul\":6802:6882   */\n  tag_50\n  jump\t// in\ntag_142:\n    /* \"#utility.yul\":6461:6892   */\n  pop\n  pop\n    /* \"#utility.yul\":6446:6892   */\ntag_138:\n    /* \"#utility.yul\":6356:6899   */\n  pop\n  pop\n  pop\n  jump\t// out\n    /* \"#utility.yul\":6905:7022   */\ntag_52:\n    /* \"#utility.yul\":6959:6967   */\n  0x00\n    /* \"#utility.yul\":7009:7014   */\n  dup3\n    /* \"#utility.yul\":7003:7007   */\n  dup3\n    /* \"#utility.yul\":6999:7015   */\n  shr\n    /* \"#utility.yul\":6978:7015   */\n  swap1\n  pop\n    /* \"#utility.yul\":6905:7022   */\n  swap3\n  swap2\n  pop\n  pop\n  jump\t// out\n    /* \"#utility.yul\":7028:7197   */\ntag_53:\n    /* \"#utility.yul\":7072:7078   */\n  0x00\n    /* \"#utility.yul\":7105:7156   */\n  tag_146\n    /* \"#utility.yul\":7153:7154   */\n  0x00\n    /* \"#utility.yul\":7149:7155   */\n  not\n    /* \"#utility.yul\":7141:7146   */\n  dup5\n    /* \"#utility.yul\":7138:7139   */\n  0x08\n    /* \"#utility.yul\":7134:7147   */\n  mul\n    /* \"#utility.yul\":7105:7156   */\n  tag_52\n  jump\t// in\ntag_146:\n    /* \"#utility.yul\":7101:7157   */\n  not\n    /* \"#utility.yul\":7186:7190   */\n  dup1\n    /* \"#utility.yul\":7180:7184   */\n  dup4\n    /* \"#utility.yul\":7176:7191   */\n  and\n    /* \"#utility.yul\":7166:7191   */\n  swap2\n  pop\n    /* \"#utility.yul\":7079:7197   */\n  pop\n    /* \"#utility.yul\":7028:7197   */\n  swap3\n  swap2\n  pop\n  pop\n  jump\t// out\n    /* \"#utility.yul\":7202:7497   */\ntag_54:\n    /* \"#utility.yul\":7278:7282   */\n  0x00\n    /* \"#utility.yul\":7424:7453   */\n  tag_148\n    /* \"#utility.yul\":7449:7452   */\n  dup4\n    /* \"#utility.yul\":7443:7447   */\n  dup4\n    /* \"#utility.yul\":7424:7453   */\n  tag_53\n  jump\t// in\ntag_148:\n    /* \"#utility.yul\":7416:7453   */\n  swap2\n  pop\n    /* \"#utility.yul\":7486:7489   */\n  dup3\n    /* \"#utility.yul\":7483:7484   */\n  0x02\n    /* \"#utility.yul\":7479:7490   */\n  mul\n    /* \"#utility.yul\":7473:7477   */\n  dup3\n    /* \"#utility.yul\":7470:7491   */\n  or\n    /* \"#utility.yul\":7462:7491   */\n  swap1\n  pop\n    /* \"#utility.yul\":7202:7497   */\n  swap3\n  swap2\n  pop\n  pop\n  jump\t// out\n    /* \"#utility.yul\":7502:8897   */\ntag_7:\n    /* \"#utility.yul\":7619:7656   */\n  tag_150\n    /* \"#utility.yul\":7652:7655   */\n  dup3\n    /* \"#utility.yul\":7619:7656   */\n  tag_37\n  jump\t// in\ntag_150:\n    /* \"#utility.yul\":7721:7739   */\n  0xffffffffffffffff\n    /* \"#utility.yul\":7713:7719   */\n  dup2\n    /* \"#utility.yul\":7710:7740   */\n  gt\n    /* \"#utility.yul\":7707:7763   */\n  iszero\n  tag_151\n  jumpi\n    /* \"#utility.yul\":7743:7761   */\n  tag_152\n  tag_27\n  jump\t// in\ntag_152:\n    /* \"#utility.yul\":7707:7763   */\ntag_151:\n    /* \"#utility.yul\":7787:7825   */\n  tag_153\n    /* \"#utility.yul\":7819:7823   */\n  dup3\n    /* \"#utility.yul\":7813:7824   */\n  sload\n    /* \"#utility.yul\":7787:7825   */\n  tag_39\n  jump\t// in\ntag_153:\n    /* \"#utility.yul\":7872:7939   */\n  tag_154\n    /* \"#utility.yul\":7932:7938   */\n  dup3\n    /* \"#utility.yul\":7924:7930   */\n  dup3\n    /* \"#utility.yul\":7918:7922   */\n  dup6\n    /* \"#utility.yul\":7872:7939   */\n  tag_51\n  jump\t// in\ntag_154:\n    /* \"#utility.yul\":7966:7967   */\n  0x00\n    /* \"#utility.yul\":7990:7994   */\n  0x20\n    /* \"#utility.yul\":7977:7994   */\n  swap1\n  pop\n    /* \"#utility.yul\":8022:8024   */\n  0x1f\n    /* \"#utility.yul\":8014:8020   */\n  dup4\n    /* \"#utility.yul\":8011:8025   */\n  gt\n    /* \"#utility.yul\":8039:8040   */\n  0x01\n    /* \"#utility.yul\":8034:8652   */\n  dup2\n  eq\n  tag_156\n  jumpi\n    /* \"#utility.yul\":8696:8697   */\n  0x00\n    /* \"#utility.yul\":8713:8719   */\n  dup5\n    /* \"#utility.yul\":8710:8787   */\n  iszero\n  tag_157\n  jumpi\n    /* \"#utility.yul\":8762:8771   */\n  dup3\n    /* \"#utility.yul\":8757:8760   */\n  dup8\n    /* \"#utility.yul\":8753:8772   */\n  add\n    /* \"#utility.yul\":8747:8773   */\n  mload\n    /* \"#utility.yul\":8738:8773   */\n  swap1\n  pop\n    /* \"#utility.yul\":8710:8787   */\ntag_157:\n    /* \"#utility.yul\":8813:8880   */\n  tag_158\n    /* \"#utility.yul\":8873:8879   */\n  dup6\n    /* \"#utility.yul\":8866:8871   */\n  dup3\n    /* \"#utility.yul\":8813:8880   */\n  tag_54\n  jump\t// in\ntag_158:\n    /* \"#utility.yul\":8807:8811   */\n  dup7\n    /* \"#utility.yul\":8800:8881   */\n  sstore\n    /* \"#utility.yul\":8669:8891   */\n  pop\n    /* \"#utility.yul\":8004:8891   */\n  jump(tag_155)\n    /* \"#utility.yul\":8034:8652   */\ntag_156:\n    /* \"#utility.yul\":8086:8090   */\n  0x1f\n    /* \"#utility.yul\":8082:8091   */\n  not\n    /* \"#utility.yul\":8074:8080   */\n  dup5\n    /* \"#utility.yul\":8070:8092   */\n  and\n    /* \"#utility.yul\":8120:8157   */\n  tag_159\n    /* \"#utility.yul\":8152:8156   */\n  dup7\n    /* \"#utility.yul\":8120:8157   */\n  tag_40\n  jump\t// in\ntag_159:\n    /* \"#utility.yul\":8179:8180   */\n  0x00\n    /* \"#utility.yul\":8193:8401   */\ntag_160:\n    /* \"#utility.yul\":8207:8214   */\n  dup3\n    /* \"#utility.yul\":8204:8205   */\n  dup2\n    /* \"#utility.yul\":8201:8215   */\n  lt\n    /* \"#utility.yul\":8193:8401   */\n  iszero\n  tag_162\n  jumpi\n    /* \"#utility.yul\":8286:8295   */\n  dup5\n    /* \"#utility.yul\":8281:8284   */\n  dup10\n    /* \"#utility.yul\":8277:8296   */\n  add\n    /* \"#utility.yul\":8271:8297   */\n  mload\n    /* \"#utility.yul\":8263:8269   */\n  dup3\n    /* \"#utility.yul\":8256:8298   */\n  sstore\n    /* \"#utility.yul\":8337:8338   */\n  0x01\n    /* \"#utility.yul\":8329:8335   */\n  dup3\n    /* \"#utility.yul\":8325:8339   */\n  add\n    /* \"#utility.yul\":8315:8339   */\n  swap2\n  pop\n    /* \"#utility.yul\":8384:8386   */\n  0x20\n    /* \"#utility.yul\":8373:8382   */\n  dup6\n    /* \"#utility.yul\":8369:8387   */\n  add\n    /* \"#utility.yul\":8356:8387   */\n  swap5\n  pop\n    /* \"#utility.yul\":8230:8234   */\n  0x20\n    /* \"#utility.yul\":8227:8228   */\n  dup2\n    /* \"#utility.yul\":8223:8235   */\n  add\n    /* \"#utility.yul\":8218:8235   */\n  swap1\n  pop\n    /* \"#utility.yul\":8193:8401   */\n  jump(tag_160)\ntag_162:\n    /* \"#utility.yul\":8429:8435   */\n  dup7\n    /* \"#utility.yul\":8420:8427   */\n  dup4\n    /* \"#utility.yul\":8417:8436   */\n  lt\n    /* \"#utility.yul\":8414:8593   */\n  iszero\n  tag_163\n  jumpi\n    /* \"#utility.yul\":8487:8496   */\n  dup5\n    /* \"#utility.yul\":8482:8485   */\n  dup10\n    /* \"#utility.yul\":8478:8497   */\n  add\n    /* \"#utility.yul\":8472:8498   */\n  mload\n    /* \"#utility.yul\":8530:8578   */\n  tag_164\n    /* \"#utility.yul\":8572:8576   */\n  0x1f\n    /* \"#utility.yul\":8564:8570   */\n  dup10\n    /* \"#utility.yul\":8560:8577   */\n  and\n    /* \"#utility.yul\":8549:8558   */\n  dup3\n    /* \"#utility.yul\":8530:8578   */\n  tag_53\n  jump\t// in\ntag_164:\n    /* \"#utility.yul\":8522:8528   */\n  dup4\n    /* \"#utility.yul\":8515:8579   */\n  sstore\n    /* \"#utility.yul\":8437:8593   */\n  pop\n    /* \"#utility.yul\":8414:8593   */\ntag_163:\n    /* \"#utility.yul\":8639:8640   */\n  0x01\n    /* \"#utility.yul\":8635:8636   */\n  0x02\n    /* \"#utility.yul\":8627:8633   */\n  dup9\n    /* \"#utility.yul\":8623:8637   */\n  mul\n    /* \"#utility.yul\":8619:8641   */\n  add\n    /* \"#utility.yul\":8613:8617   */\n  dup9\n    /* \"#utility.yul\":8606:8642   */\n  sstore\n    /* \"#utility.yul\":8041:8652   */\n  pop\n  pop\n  pop\n    /* \"#utility.yul\":8004:8891   */\ntag_155:\n  pop\n    /* \"#utility.yul\":7594:8897   */\n  pop\n  pop\n  pop\n    /* \"#utility.yul\":7502:8897   */\n  pop\n  pop\n  jump\t// out\n    /* \"#utility.yul\":8903:9072   */\ntag_55:\n    /* \"#utility.yul\":8987:8998   */\n  0x00\n    /* \"#utility.yul\":9021:9027   */\n  dup3\n    /* \"#utility.yul\":9016:9019   */\n  dup3\n    /* \"#utility.yul\":9009:9028   */\n  mstore\n    /* \"#utility.yul\":9061:9065   */\n  0x20\n    /* \"#utility.yul\":9056:9059   */\n  dup3\n    /* \"#utility.yul\":9052:9066   */\n  add\n    /* \"#utility.yul\":9037:9066   */\n  swap1\n  pop\n    /* \"#utility.yul\":8903:9072   */\n  swap3\n  swap2\n  pop\n  pop\n  jump\t// out\n    /* \"#utility.yul\":9078:9250   */\ntag_56:\n    /* \"#utility.yul\":9218:9242   */\n  0x616d6f756e742063616e6e6f7420697320656d70747900000000000000000000\n    /* \"#utility.yul\":9214:9215   */\n  0x00\n    /* \"#utility.yul\":9206:9212   */\n  dup3\n    /* \"#utility.yul\":9202:9216   */\n  add\n    /* \"#utility.yul\":9195:9243   */\n  mstore\n    /* \"#utility.yul\":9078:9250   */\n  pop\n  jump\t// out\n    /* \"#utility.yul\":9256:9622   */\ntag_57:\n    /* \"#utility.yul\":9398:9401   */\n  0x00\n    /* \"#utility.yul\":9419:9486   */\n  tag_168\n    /* \"#utility.yul\":9483:9485   */\n  0x16\n    /* \"#utility.yul\":9478:9481   */\n  dup4\n    /* \"#utility.yul\":9419:9486   */\n  tag_55\n  jump\t// in\ntag_168:\n    /* \"#utility.yul\":9412:9486   */\n  swap2\n  pop\n    /* \"#utility.yul\":9495:9588   */\n  tag_169\n    /* \"#utility.yul\":9584:9587   */\n  dup3\n    /* \"#utility.yul\":9495:9588   */\n  tag_56\n  jump\t// in\ntag_169:\n    /* \"#utility.yul\":9613:9615   */\n  0x20\n    /* \"#utility.yul\":9608:9611   */\n  dup3\n    /* \"#utility.yul\":9604:9616   */\n  add\n    /* \"#utility.yul\":9597:9616   */\n  swap1\n  pop\n    /* \"#utility.yul\":9256:9622   */\n  swap2\n  swap1\n  pop\n  jump\t// out\n    /* \"#utility.yul\":9628:10047   */\ntag_15:\n    /* \"#utility.yul\":9794:9798   */\n  0x00\n    /* \"#utility.yul\":9832:9834   */\n  0x20\n    /* \"#utility.yul\":9821:9830   */\n  dup3\n    /* \"#utility.yul\":9817:9835   */\n  add\n    /* \"#utility.yul\":9809:9835   */\n  swap1\n  pop\n    /* \"#utility.yul\":9881:9890   */\n  dup2\n    /* \"#utility.yul\":9875:9879   */\n  dup2\n    /* \"#utility.yul\":9871:9891   */\n  sub\n    /* \"#utility.yul\":9867:9868   */\n  0x00\n    /* \"#utility.yul\":9856:9865   */\n  dup4\n    /* \"#utility.yul\":9852:9869   */\n  add\n    /* \"#utility.yul\":9845:9892   */\n  mstore\n    /* \"#utility.yul\":9909:10040   */\n  tag_171\n    /* \"#utility.yul\":10035:10039   */\n  dup2\n    /* \"#utility.yul\":9909:10040   */\n  tag_57\n  jump\t// in\ntag_171:\n    /* \"#utility.yul\":9901:10040   */\n  swap1\n  pop\n    /* \"#utility.yul\":9628:10047   */\n  swap2\n  swap1\n  pop\n  jump\t// out\n    /* \"#utility.yul\":10053:10233   */\ntag_58:\n    /* \"#utility.yul\":10101:10178   */\n  0x4e487b7100000000000000000000000000000000000000000000000000000000\n    /* \"#utility.yul\":10098:10099   */\n  0x00\n    /* \"#utility.yul\":10091:10179   */\n  mstore\n    /* \"#utility.yul\":10198:10202   */\n  0x11\n    /* \"#utility.yul\":10195:10196   */\n  0x04\n    /* \"#utility.yul\":10188:10203   */\n  mstore\n    /* \"#utility.yul\":10222:10226   */\n  0x24\n    /* \"#utility.yul\":10219:10220   */\n  0x00\n    /* \"#utility.yul\":10212:10227   */\n  revert\n    /* \"#utility.yul\":10239:10430   */\ntag_17:\n    /* \"#utility.yul\":10279:10282   */\n  0x00\n    /* \"#utility.yul\":10298:10318   */\n  tag_174\n    /* \"#utility.yul\":10316:10317   */\n  dup3\n    /* \"#utility.yul\":10298:10318   */\n  tag_34\n  jump\t// in\ntag_174:\n    /* \"#utility.yul\":10293:10318   */\n  swap2\n  pop\n    /* \"#utility.yul\":10332:10352   */\n  tag_175\n    /* \"#utility.yul\":10350:10351   */\n  dup4\n    /* \"#utility.yul\":10332:10352   */\n  tag_34\n  jump\t// in\ntag_175:\n    /* \"#utility.yul\":10327:10352   */\n  swap3\n  pop\n    /* \"#utility.yul\":10375:10376   */\n  dup3\n    /* \"#utility.yul\":10372:10373   */\n  dup3\n    /* \"#utility.yul\":10368:10377   */\n  add\n    /* \"#utility.yul\":10361:10377   */\n  swap1\n  pop\n    /* \"#utility.yul\":10396:10399   */\n  dup1\n    /* \"#utility.yul\":10393:10394   */\n  dup3\n    /* \"#utility.yul\":10390:10400   */\n  gt\n    /* \"#utility.yul\":10387:10423   */\n  iszero\n  tag_176\n  jumpi\n    /* \"#utility.yul\":10403:10421   */\n  tag_177\n  tag_58\n  jump\t// in\ntag_177:\n    /* \"#utility.yul\":10387:10423   */\ntag_176:\n    /* \"#utility.yul\":10239:10430   */\n  swap3\n  swap2\n  pop\n  pop\n  jump\t// out\n    /* \"#utility.yul\":10436:10554   */\ntag_59:\n    /* \"#utility.yul\":10523:10547   */\n  tag_179\n    /* \"#utility.yul\":10541:10546   */\n  dup2\n    /* \"#utility.yul\":10523:10547   */\n  tag_34\n  jump\t// in\ntag_179:\n    /* \"#utility.yul\":10518:10521   */\n  dup3\n    /* \"#utility.yul\":10511:10548   */\n  mstore\n    /* \"#utility.yul\":10436:10554   */\n  pop\n  pop\n  jump\t// out\n    /* \"#utility.yul\":10560:10782   */\ntag_20:\n    /* \"#utility.yul\":10653:10657   */\n  0x00\n    /* \"#utility.yul\":10691:10693   */\n  0x20\n    /* \"#utility.yul\":10680:10689   */\n  dup3\n    /* \"#utility.yul\":10676:10694   */\n  add\n    /* \"#utility.yul\":10668:10694   */\n  swap1\n  pop\n    /* \"#utility.yul\":10704:10775   */\n  tag_181\n    /* \"#utility.yul\":10772:10773   */\n  0x00\n    /* \"#utility.yul\":10761:10770   */\n  dup4\n    /* \"#utility.yul\":10757:10774   */\n  add\n    /* \"#utility.yul\":10748:10754   */\n  dup5\n    /* \"#utility.yul\":10704:10775   */\n  tag_59\n  jump\t// in\ntag_181:\n    /* \"#utility.yul\":10560:10782   */\n  swap3\n  swap2\n  pop\n  pop\n  jump\t// out\n    /* \"Solidity_task2/NMB20.sol\":60:2996  contract NMB20 {... */\ntag_11:\n  dataSize(sub_0)\n  dup1\n  dataOffset(sub_0)\n  0x00\n  codecopy\n  0x00\n  return\nstop\n\nsub_0: assembly {\n        /* \"Solidity_task2/NMB20.sol\":60:2996  contract NMB20 {... */\n      mstore(0x40, 0x80)\n      callvalue\n      dup1\n      iszero\n      tag_1\n      jumpi\n      revert(0x00, 0x00)\n    tag_1:\n      pop\n      jumpi(tag_2, lt(calldatasize, 0x04))\n      shr(0xe0, calldataload(0x00))\n      dup1\n      0x3e5beab9\n      gt\n      tag_13\n      jumpi\n      dup1\n      0x3e5beab9\n      eq\n      tag_8\n      jumpi\n      dup1\n      0x40c10f19\n      eq\n      tag_9\n      jumpi\n      dup1\n      0x95d89b41\n      eq\n      tag_10\n      jumpi\n      dup1\n      0xa9059cbb\n      eq\n      tag_11\n      jumpi\n      dup1\n      0xe3d670d7\n      eq\n      tag_12\n      jumpi\n      jump(tag_2)\n    tag_13:\n      dup1\n      0x06fdde03\n      eq\n      tag_3\n      jumpi\n      dup1\n      0x095ea7b3\n      eq\n      tag_4\n      jumpi\n      dup1\n      0x18160ddd\n      eq\n      tag_5\n      jumpi\n      dup1\n      0x23b872dd\n      eq\n      tag_6\n      jumpi\n      dup1\n      0x313ce567\n      eq\n      tag_7\n      jumpi\n    tag_2:\n      revert(0x00, 0x00)\n        /* \"Solidity_task2/NMB20.sol\":755:847  function name() public view virtual  returns (string memory) {... */\n    tag_3:\n      tag_14\n      tag_15\n      jump\t// in\n    tag_14:\n      mload(0x40)\n      tag_16\n      swap2\n      swap1\n      tag_17\n      jump\t// in\n    tag_16:\n      mload(0x40)\n      dup1\n      swap2\n      sub\n      swap1\n      return\n        /* \"Solidity_task2/NMB20.sol\":1655:2000  function approve(address to,uint amount) public returns (bool) {... */\n    tag_4:\n      tag_18\n      0x04\n      dup1\n      calldatasize\n      sub\n      dup2\n      add\n      swap1\n      tag_19\n      swap2\n      swap1\n      tag_20\n      jump\t// in\n    tag_19:\n      tag_21\n      jump\t// in\n    tag_18:\n      mload(0x40)\n      tag_22\n      swap2\n      swap1\n      tag_23\n      jump\t// in\n    tag_22:\n      mload(0x40)\n      dup1\n      swap2\n      sub\n      swap1\n      return\n        /* \"Solidity_task2/NMB20.sol\":959:1056  function totalSupply() public view virtual  returns (uint) {... */\n    tag_5:\n      tag_24\n      tag_25\n      jump\t// in\n    tag_24:\n      mload(0x40)\n      tag_26\n      swap2\n      swap1\n      tag_27\n      jump\t// in\n    tag_26:\n      mload(0x40)\n      dup1\n      swap2\n      sub\n      swap1\n      return\n        /* \"Solidity_task2/NMB20.sol\":2130:2575  function transferFrom(address from,address to,uint amount)public  returns (bool) {... */\n    tag_6:\n      tag_28\n      0x04\n      dup1\n      calldatasize\n      sub\n      dup2\n      add\n      swap1\n      tag_29\n      swap2\n      swap1\n      tag_30\n      jump\t// in\n    tag_29:\n      tag_31\n      jump\t// in\n    tag_28:\n      mload(0x40)\n      tag_32\n      swap2\n      swap1\n      tag_23\n      jump\t// in\n    tag_32:\n      mload(0x40)\n      dup1\n      swap2\n      sub\n      swap1\n      return\n        /* \"Solidity_task2/NMB20.sol\":1069:1153  function decimals() public view virtual returns (uint8) {... */\n    tag_7:\n      tag_33\n      tag_34\n      jump\t// in\n    tag_33:\n      mload(0x40)\n      tag_35\n      swap2\n      swap1\n      tag_36\n      jump\t// in\n    tag_35:\n      mload(0x40)\n      dup1\n      swap2\n      sub\n      swap1\n      return\n        /* \"Solidity_task2/NMB20.sol\":2009:2120  function allowance(address to) public view returns (uint) {... */\n    tag_8:\n      tag_37\n      0x04\n      dup1\n      calldatasize\n      sub\n      dup2\n      add\n      swap1\n      tag_38\n      swap2\n      swap1\n      tag_39\n      jump\t// in\n    tag_38:\n      tag_40\n      jump\t// in\n    tag_37:\n      mload(0x40)\n      tag_41\n      swap2\n      swap1\n      tag_27\n      jump\t// in\n    tag_41:\n      mload(0x40)\n      dup1\n      swap2\n      sub\n      swap1\n      return\n        /* \"Solidity_task2/NMB20.sol\":2585:2721  function mint(address user,uint amount) public {... */\n    tag_9:\n      tag_42\n      0x04\n      dup1\n      calldatasize\n      sub\n      dup2\n      add\n      swap1\n      tag_43\n      swap2\n      swap1\n      tag_20\n      jump\t// in\n    tag_43:\n      tag_44\n      jump\t// in\n    tag_42:\n      stop\n        /* \"Solidity_task2/NMB20.sol\":855:951  function symbol() public view virtual  returns (string memory) {... */\n    tag_10:\n      tag_45\n      tag_46\n      jump\t// in\n    tag_45:\n      mload(0x40)\n      tag_47\n      swap2\n      swap1\n      tag_17\n      jump\t// in\n    tag_47:\n      mload(0x40)\n      dup1\n      swap2\n      sub\n      swap1\n      return\n        /* \"Solidity_task2/NMB20.sol\":1275:1647  function transfer(address to,uint amount) public returns (bool) {... */\n    tag_11:\n      tag_48\n      0x04\n      dup1\n      calldatasize\n      sub\n      dup2\n      add\n      swap1\n      tag_49\n      swap2\n      swap1\n      tag_20\n      jump\t// in\n    tag_49:\n      tag_50\n      jump\t// in\n    tag_48:\n      mload(0x40)\n      tag_51\n      swap2\n      swap1\n      tag_23\n      jump\t// in\n    tag_51:\n      mload(0x40)\n      dup1\n      swap2\n      sub\n      swap1\n      return\n        /* \"Solidity_task2/NMB20.sol\":1161:1267  function balance(address addr) public view virtual returns(uint) {... */\n    tag_12:\n      tag_52\n      0x04\n      dup1\n      calldatasize\n      sub\n      dup2\n      add\n      swap1\n      tag_53\n      swap2\n      swap1\n      tag_39\n      jump\t// in\n    tag_53:\n      tag_54\n      jump\t// in\n    tag_52:\n      mload(0x40)\n      tag_55\n      swap2\n      swap1\n      tag_27\n      jump\t// in\n    tag_55:\n      mload(0x40)\n      dup1\n      swap2\n      sub\n      swap1\n      return\n        /* \"Solidity_task2/NMB20.sol\":755:847  function name() public view virtual  returns (string memory) {... */\n    tag_15:\n        /* \"Solidity_task2/NMB20.sol\":801:814  string memory */\n      0x60\n        /* \"Solidity_task2/NMB20.sol\":834:839  _name */\n      0x03\n        /* \"Solidity_task2/NMB20.sol\":827:839  return _name */\n      dup1\n      sload\n      tag_57\n      swap1\n      tag_58\n      jump\t// in\n    tag_57:\n      dup1\n      0x1f\n      add\n      0x20\n      dup1\n      swap2\n      div\n      mul\n      0x20\n      add\n      mload(0x40)\n      swap1\n      dup2\n      add\n      0x40\n      mstore\n      dup1\n      swap3\n      swap2\n      swap1\n      dup2\n      dup2\n      mstore\n      0x20\n      add\n      dup3\n      dup1\n      sload\n      tag_59\n      swap1\n      tag_58\n      jump\t// in\n    tag_59:\n      dup1\n      iszero\n      tag_60\n      jumpi\n      dup1\n      0x1f\n      lt\n      tag_61\n      jumpi\n      0x0100\n      dup1\n      dup4\n      sload\n      div\n      mul\n      dup4\n      mstore\n      swap2\n      0x20\n      add\n      swap2\n      jump(tag_60)\n    tag_61:\n      dup3\n      add\n      swap2\n      swap1\n      0x00\n      mstore\n      keccak256(0x00, 0x20)\n      swap1\n    tag_62:\n      dup2\n      sload\n      dup2\n      mstore\n      swap1\n      0x01\n      add\n      swap1\n      0x20\n      add\n      dup1\n      dup4\n      gt\n      tag_62\n      jumpi\n      dup3\n      swap1\n      sub\n      0x1f\n      and\n      dup3\n      add\n      swap2\n    tag_60:\n      pop\n      pop\n      pop\n      pop\n      pop\n      swap1\n      pop\n        /* \"Solidity_task2/NMB20.sol\":755:847  function name() public view virtual  returns (string memory) {... */\n      swap1\n      jump\t// out\n        /* \"Solidity_task2/NMB20.sol\":1655:2000  function approve(address to,uint amount) public returns (bool) {... */\n    tag_21:\n        /* \"Solidity_task2/NMB20.sol\":1712:1716  bool */\n      0x00\n        /* \"Solidity_task2/NMB20.sol\":1751:1752  0 */\n      0x00\n        /* \"Solidity_task2/NMB20.sol\":1737:1753  to != address(0) */\n      0xffffffffffffffffffffffffffffffffffffffff\n      and\n        /* \"Solidity_task2/NMB20.sol\":1737:1739  to */\n      dup4\n        /* \"Solidity_task2/NMB20.sol\":1737:1753  to != address(0) */\n      0xffffffffffffffffffffffffffffffffffffffff\n      and\n      sub\n        /* \"Solidity_task2/NMB20.sol\":1729:1776  require(to != address(0),\"address cannot zero\") */\n      tag_64\n      jumpi\n      mload(0x40)\n      0x08c379a000000000000000000000000000000000000000000000000000000000\n      dup2\n      mstore\n      0x04\n      add\n      tag_65\n      swap1\n      tag_66\n      jump\t// in\n    tag_65:\n      mload(0x40)\n      dup1\n      swap2\n      sub\n      swap1\n      revert\n    tag_64:\n        /* \"Solidity_task2/NMB20.sol\":1819:1820  0 */\n      0x00\n        /* \"Solidity_task2/NMB20.sol\":1795:1804  _balances */\n      0x00\n        /* \"Solidity_task2/NMB20.sol\":1795:1816  _balances[msg.sender] */\n      0x00\n        /* \"Solidity_task2/NMB20.sol\":1805:1815  msg.sender */\n      caller\n        /* \"Solidity_task2/NMB20.sol\":1795:1816  _balances[msg.sender] */\n      0xffffffffffffffffffffffffffffffffffffffff\n      and\n      0xffffffffffffffffffffffffffffffffffffffff\n      and\n      dup2\n      mstore\n      0x20\n      add\n      swap1\n      dup2\n      mstore\n      0x20\n      add\n      0x00\n      keccak256\n      sload\n        /* \"Solidity_task2/NMB20.sol\":1795:1820  _balances[msg.sender] > 0 */\n      gt\n        /* \"Solidity_task2/NMB20.sol\":1787:1836  require(_balances[msg.sender] > 0,\"balances > 0\") */\n      tag_67\n      jumpi\n      mload(0x40)\n      0x08c379a000000000000000000000000000000000000000000000000000000000\n      dup2\n      mstore\n      0x04\n      add\n      tag_68\n      swap1\n      tag_69\n      jump\t// in\n    tag_68:\n      mload(0x40)\n      dup1\n      swap2\n      sub\n      swap1\n      revert\n    tag_67:\n        /* \"Solidity_task2/NMB20.sol\":1864:1865  0 */\n      0x00\n        /* \"Solidity_task2/NMB20.sol\":1855:1861  amount */\n      dup3\n        /* \"Solidity_task2/NMB20.sol\":1855:1865  amount > 0 */\n      gt\n        /* \"Solidity_task2/NMB20.sol\":1847:1879  require(amount > 0,\"amount > 0\") */\n      tag_70\n      jumpi\n      mload(0x40)\n      0x08c379a000000000000000000000000000000000000000000000000000000000\n      dup2\n      mstore\n      0x04\n      add\n      tag_71\n      swap1\n      tag_72\n      jump\t// in\n    tag_71:\n      mload(0x40)\n      dup1\n      swap2\n      sub\n      swap1\n      revert\n    tag_70:\n        /* \"Solidity_task2/NMB20.sol\":1917:1923  amount */\n      dup2\n        /* \"Solidity_task2/NMB20.sol\":1892:1903  _allowances */\n      0x01\n        /* \"Solidity_task2/NMB20.sol\":1892:1910  _allowances[owner] */\n      0x00\n        /* \"Solidity_task2/NMB20.sol\":1904:1909  owner */\n      0x05\n      0x00\n      swap1\n      sload\n      swap1\n      0x0100\n      exp\n      swap1\n      div\n      0xffffffffffffffffffffffffffffffffffffffff\n      and\n        /* \"Solidity_task2/NMB20.sol\":1892:1910  _allowances[owner] */\n      0xffffffffffffffffffffffffffffffffffffffff\n      and\n      0xffffffffffffffffffffffffffffffffffffffff\n      and\n      dup2\n      mstore\n      0x20\n      add\n      swap1\n      dup2\n      mstore\n      0x20\n      add\n      0x00\n      keccak256\n        /* \"Solidity_task2/NMB20.sol\":1892:1914  _allowances[owner][to] */\n      0x00\n        /* \"Solidity_task2/NMB20.sol\":1911:1913  to */\n      dup6\n        /* \"Solidity_task2/NMB20.sol\":1892:1914  _allowances[owner][to] */\n      0xffffffffffffffffffffffffffffffffffffffff\n      and\n      0xffffffffffffffffffffffffffffffffffffffff\n      and\n      dup2\n      mstore\n      0x20\n      add\n      swap1\n      dup2\n      mstore\n      0x20\n      add\n      0x00\n      keccak256\n        /* \"Solidity_task2/NMB20.sol\":1892:1923  _allowances[owner][to] = amount */\n      dup2\n      swap1\n      sstore\n      pop\n        /* \"Solidity_task2/NMB20.sol\":1957:1959  to */\n      dup3\n        /* \"Solidity_task2/NMB20.sol\":1941:1968  Approval(owner, to, amount) */\n      0xffffffffffffffffffffffffffffffffffffffff\n      and\n        /* \"Solidity_task2/NMB20.sol\":1950:1955  owner */\n      0x05\n      0x00\n      swap1\n      sload\n      swap1\n      0x0100\n      exp\n      swap1\n      div\n      0xffffffffffffffffffffffffffffffffffffffff\n      and\n        /* \"Solidity_task2/NMB20.sol\":1941:1968  Approval(owner, to, amount) */\n      0xffffffffffffffffffffffffffffffffffffffff\n      and\n      0x8c5be1e5ebec7d5bd14f71427d1e84f3dd0314c0f7b2291e5b200ac8c7c3b925\n        /* \"Solidity_task2/NMB20.sol\":1961:1967  amount */\n      dup5\n        /* \"Solidity_task2/NMB20.sol\":1941:1968  Approval(owner, to, amount) */\n      mload(0x40)\n      tag_73\n      swap2\n      swap1\n      tag_27\n      jump\t// in\n    tag_73:\n      mload(0x40)\n      dup1\n      swap2\n      sub\n      swap1\n      log3\n        /* \"Solidity_task2/NMB20.sol\":1988:1992  true */\n      0x01\n        /* \"Solidity_task2/NMB20.sol\":1981:1992  return true */\n      swap1\n      pop\n        /* \"Solidity_task2/NMB20.sol\":1655:2000  function approve(address to,uint amount) public returns (bool) {... */\n      swap3\n      swap2\n      pop\n      pop\n      jump\t// out\n        /* \"Solidity_task2/NMB20.sol\":959:1056  function totalSupply() public view virtual  returns (uint) {... */\n    tag_25:\n        /* \"Solidity_task2/NMB20.sol\":1012:1016  uint */\n      0x00\n        /* \"Solidity_task2/NMB20.sol\":1036:1048  _totalSupply */\n      sload(0x02)\n        /* \"Solidity_task2/NMB20.sol\":1029:1048  return _totalSupply */\n      swap1\n      pop\n        /* \"Solidity_task2/NMB20.sol\":959:1056  function totalSupply() public view virtual  returns (uint) {... */\n      swap1\n      jump\t// out\n        /* \"Solidity_task2/NMB20.sol\":2130:2575  function transferFrom(address from,address to,uint amount)public  returns (bool) {... */\n    tag_31:\n        /* \"Solidity_task2/NMB20.sol\":2205:2209  bool */\n      0x00\n        /* \"Solidity_task2/NMB20.sol\":2249:2255  amount */\n      dup2\n        /* \"Solidity_task2/NMB20.sol\":2230:2239  _balances */\n      0x00\n        /* \"Solidity_task2/NMB20.sol\":2230:2245  _balances[from] */\n      0x00\n        /* \"Solidity_task2/NMB20.sol\":2240:2244  from */\n      dup7\n        /* \"Solidity_task2/NMB20.sol\":2230:2245  _balances[from] */\n      0xffffffffffffffffffffffffffffffffffffffff\n      and\n      0xffffffffffffffffffffffffffffffffffffffff\n      and\n      dup2\n      mstore\n      0x20\n      add\n      swap1\n      dup2\n      mstore\n      0x20\n      add\n      0x00\n      keccak256\n      sload\n        /* \"Solidity_task2/NMB20.sol\":2230:2255  _balances[from] >= amount */\n      lt\n      iszero\n        /* \"Solidity_task2/NMB20.sol\":2222:2260  require(_balances[from] >= amount,\"0\") */\n      tag_76\n      jumpi\n      mload(0x40)\n      0x08c379a000000000000000000000000000000000000000000000000000000000\n      dup2\n      mstore\n      0x04\n      add\n      tag_77\n      swap1\n      tag_78\n      jump\t// in\n    tag_77:\n      mload(0x40)\n      dup1\n      swap2\n      sub\n      swap1\n      revert\n    tag_76:\n        /* \"Solidity_task2/NMB20.sol\":2293:2294  0 */\n      0x00\n        /* \"Solidity_task2/NMB20.sol\":2279:2295  to != address(0) */\n      0xffffffffffffffffffffffffffffffffffffffff\n      and\n        /* \"Solidity_task2/NMB20.sol\":2279:2281  to */\n      dup4\n        /* \"Solidity_task2/NMB20.sol\":2279:2295  to != address(0) */\n      0xffffffffffffffffffffffffffffffffffffffff\n      and\n      sub\n        /* \"Solidity_task2/NMB20.sol\":2271:2300  require(to != address(0),\"0\") */\n      tag_79\n      jumpi\n      mload(0x40)\n      0x08c379a000000000000000000000000000000000000000000000000000000000\n      dup2\n      mstore\n      0x04\n      add\n      tag_80\n      swap1\n      tag_78\n      jump\t// in\n    tag_80:\n      mload(0x40)\n      dup1\n      swap2\n      sub\n      swap1\n      revert\n    tag_79:\n        /* \"Solidity_task2/NMB20.sol\":2352:2358  amount */\n      dup2\n        /* \"Solidity_task2/NMB20.sol\":2319:2330  _allowances */\n      0x01\n        /* \"Solidity_task2/NMB20.sol\":2319:2336  _allowances[from] */\n      0x00\n        /* \"Solidity_task2/NMB20.sol\":2331:2335  from */\n      dup7\n        /* \"Solidity_task2/NMB20.sol\":2319:2336  _allowances[from] */\n      0xffffffffffffffffffffffffffffffffffffffff\n      and\n      0xffffffffffffffffffffffffffffffffffffffff\n      and\n      dup2\n      mstore\n      0x20\n      add\n      swap1\n      dup2\n      mstore\n      0x20\n      add\n      0x00\n      keccak256\n        /* \"Solidity_task2/NMB20.sol\":2319:2348  _allowances[from][msg.sender] */\n      0x00\n        /* \"Solidity_task2/NMB20.sol\":2337:2347  msg.sender */\n      caller\n        /* \"Solidity_task2/NMB20.sol\":2319:2348  _allowances[from][msg.sender] */\n      0xffffffffffffffffffffffffffffffffffffffff\n      and\n      0xffffffffffffffffffffffffffffffffffffffff\n      and\n      dup2\n      mstore\n      0x20\n      add\n      swap1\n      dup2\n      mstore\n      0x20\n      add\n      0x00\n      keccak256\n      sload\n        /* \"Solidity_task2/NMB20.sol\":2319:2358  _allowances[from][msg.sender] >= amount */\n      lt\n      iszero\n        /* \"Solidity_task2/NMB20.sol\":2311:2377  require(_allowances[from][msg.sender] >= amount,\"allowances >= 0\") */\n      tag_81\n      jumpi\n      mload(0x40)\n      0x08c379a000000000000000000000000000000000000000000000000000000000\n      dup2\n      mstore\n      0x04\n      add\n      tag_82\n      swap1\n      tag_83\n      jump\t// in\n    tag_82:\n      mload(0x40)\n      dup1\n      swap2\n      sub\n      swap1\n      revert\n    tag_81:\n        /* \"Solidity_task2/NMB20.sol\":2409:2415  amount */\n      dup2\n        /* \"Solidity_task2/NMB20.sol\":2390:2399  _balances */\n      0x00\n        /* \"Solidity_task2/NMB20.sol\":2390:2405  _balances[from] */\n      0x00\n        /* \"Solidity_task2/NMB20.sol\":2400:2404  from */\n      dup7\n        /* \"Solidity_task2/NMB20.sol\":2390:2405  _balances[from] */\n      0xffffffffffffffffffffffffffffffffffffffff\n      and\n      0xffffffffffffffffffffffffffffffffffffffff\n      and\n      dup2\n      mstore\n      0x20\n      add\n      swap1\n      dup2\n      mstore\n      0x20\n      add\n      0x00\n      keccak256\n      0x00\n        /* \"Solidity_task2/NMB20.sol\":2390:2415  _balances[from] -= amount */\n      dup3\n      dup3\n      sload\n      tag_84\n      swap2\n      swap1\n      tag_85\n      jump\t// in\n    tag_84:\n      swap3\n      pop\n      pop\n      dup2\n      swap1\n      sstore\n      pop\n        /* \"Solidity_task2/NMB20.sol\":2443:2449  amount */\n      dup2\n        /* \"Solidity_task2/NMB20.sol\":2426:2435  _balances */\n      0x00\n        /* \"Solidity_task2/NMB20.sol\":2426:2439  _balances[to] */\n      0x00\n        /* \"Solidity_task2/NMB20.sol\":2436:2438  to */\n      dup6\n        /* \"Solidity_task2/NMB20.sol\":2426:2439  _balances[to] */\n      0xffffffffffffffffffffffffffffffffffffffff\n      and\n      0xffffffffffffffffffffffffffffffffffffffff\n      and\n      dup2\n      mstore\n      0x20\n      add\n      swap1\n      dup2\n      mstore\n      0x20\n      add\n      0x00\n      keccak256\n      0x00\n        /* \"Solidity_task2/NMB20.sol\":2426:2449  _balances[to] += amount */\n      dup3\n      dup3\n      sload\n      tag_86\n      swap2\n      swap1\n      tag_87\n      jump\t// in\n    tag_86:\n      swap3\n      pop\n      pop\n      dup2\n      swap1\n      sstore\n      pop\n        /* \"Solidity_task2/NMB20.sol\":2493:2499  amount */\n      dup2\n        /* \"Solidity_task2/NMB20.sol\":2460:2471  _allowances */\n      0x01\n        /* \"Solidity_task2/NMB20.sol\":2460:2477  _allowances[from] */\n      0x00\n        /* \"Solidity_task2/NMB20.sol\":2472:2476  from */\n      dup7\n        /* \"Solidity_task2/NMB20.sol\":2460:2477  _allowances[from] */\n      0xffffffffffffffffffffffffffffffffffffffff\n      and\n      0xffffffffffffffffffffffffffffffffffffffff\n      and\n      dup2\n      mstore\n      0x20\n      add\n      swap1\n      dup2\n      mstore\n      0x20\n      add\n      0x00\n      keccak256\n        /* \"Solidity_task2/NMB20.sol\":2460:2489  _allowances[from][msg.sender] */\n      0x00\n        /* \"Solidity_task2/NMB20.sol\":2478:2488  msg.sender */\n      caller\n        /* \"Solidity_task2/NMB20.sol\":2460:2489  _allowances[from][msg.sender] */\n      0xffffffffffffffffffffffffffffffffffffffff\n      and\n      0xffffffffffffffffffffffffffffffffffffffff\n      and\n      dup2\n      mstore\n      0x20\n      add\n      swap1\n      dup2\n      mstore\n      0x20\n      add\n      0x00\n      keccak256\n      0x00\n        /* \"Solidity_task2/NMB20.sol\":2460:2499  _allowances[from][msg.sender] -= amount */\n      dup3\n      dup3\n      sload\n      tag_88\n      swap2\n      swap1\n      tag_85\n      jump\t// in\n    tag_88:\n      swap3\n      pop\n      pop\n      dup2\n      swap1\n      sstore\n      pop\n        /* \"Solidity_task2/NMB20.sol\":2532:2534  to */\n      dup3\n        /* \"Solidity_task2/NMB20.sol\":2517:2543  Transfer(from, to, amount) */\n      0xffffffffffffffffffffffffffffffffffffffff\n      and\n        /* \"Solidity_task2/NMB20.sol\":2526:2530  from */\n      dup5\n        /* \"Solidity_task2/NMB20.sol\":2517:2543  Transfer(from, to, amount) */\n      0xffffffffffffffffffffffffffffffffffffffff\n      and\n      0xddf252ad1be2c89b69c2b068fc378daa952ba7f163c4a11628f55a4df523b3ef\n        /* \"Solidity_task2/NMB20.sol\":2536:2542  amount */\n      dup5\n        /* \"Solidity_task2/NMB20.sol\":2517:2543  Transfer(from, to, amount) */\n      mload(0x40)\n      tag_89\n      swap2\n      swap1\n      tag_27\n      jump\t// in\n    tag_89:\n      mload(0x40)\n      dup1\n      swap2\n      sub\n      swap1\n      log3\n        /* \"Solidity_task2/NMB20.sol\":2563:2567  true */\n      0x01\n        /* \"Solidity_task2/NMB20.sol\":2556:2567  return true */\n      swap1\n      pop\n        /* \"Solidity_task2/NMB20.sol\":2130:2575  function transferFrom(address from,address to,uint amount)public  returns (bool) {... */\n      swap4\n      swap3\n      pop\n      pop\n      pop\n      jump\t// out\n        /* \"Solidity_task2/NMB20.sol\":1069:1153  function decimals() public view virtual returns (uint8) {... */\n    tag_34:\n        /* \"Solidity_task2/NMB20.sol\":1118:1123  uint8 */\n      0x00\n        /* \"Solidity_task2/NMB20.sol\":1143:1145  18 */\n      0x12\n        /* \"Solidity_task2/NMB20.sol\":1136:1145  return 18 */\n      swap1\n      pop\n        /* \"Solidity_task2/NMB20.sol\":1069:1153  function decimals() public view virtual returns (uint8) {... */\n      swap1\n      jump\t// out\n        /* \"Solidity_task2/NMB20.sol\":2009:2120  function allowance(address to) public view returns (uint) {... */\n    tag_40:\n        /* \"Solidity_task2/NMB20.sol\":2061:2065  uint */\n      0x00\n        /* \"Solidity_task2/NMB20.sol\":2085:2096  _allowances */\n      0x01\n        /* \"Solidity_task2/NMB20.sol\":2085:2108  _allowances[msg.sender] */\n      0x00\n        /* \"Solidity_task2/NMB20.sol\":2097:2107  msg.sender */\n      caller\n        /* \"Solidity_task2/NMB20.sol\":2085:2108  _allowances[msg.sender] */\n      0xffffffffffffffffffffffffffffffffffffffff\n      and\n      0xffffffffffffffffffffffffffffffffffffffff\n      and\n      dup2\n      mstore\n      0x20\n      add\n      swap1\n      dup2\n      mstore\n      0x20\n      add\n      0x00\n      keccak256\n        /* \"Solidity_task2/NMB20.sol\":2085:2112  _allowances[msg.sender][to] */\n      0x00\n        /* \"Solidity_task2/NMB20.sol\":2109:2111  to */\n      dup4\n        /* \"Solidity_task2/NMB20.sol\":2085:2112  _allowances[msg.sender][to] */\n      0xffffffffffffffffffffffffffffffffffffffff\n      and\n      0xffffffffffffffffffffffffffffffffffffffff\n      and\n      dup2\n      mstore\n      0x20\n      add\n      swap1\n      dup2\n      mstore\n      0x20\n      add\n      0x00\n      keccak256\n      sload\n        /* \"Solidity_task2/NMB20.sol\":2078:2112  return _allowances[msg.sender][to] */\n      swap1\n      pop\n        /* \"Solidity_task2/NMB20.sol\":2009:2120  function allowance(address to) public view returns (uint) {... */\n      swap2\n      swap1\n      pop\n      jump\t// out\n        /* \"Solidity_task2/NMB20.sol\":2585:2721  function mint(address user,uint amount) public {... */\n    tag_44:\n        /* \"Solidity_task2/NMB20.sol\":2660:2664  user */\n      dup2\n        /* \"Solidity_task2/NMB20.sol\":2651:2664  owner == user */\n      0xffffffffffffffffffffffffffffffffffffffff\n      and\n        /* \"Solidity_task2/NMB20.sol\":2651:2656  owner */\n      0x05\n      0x00\n      swap1\n      sload\n      swap1\n      0x0100\n      exp\n      swap1\n      div\n      0xffffffffffffffffffffffffffffffffffffffff\n      and\n        /* \"Solidity_task2/NMB20.sol\":2651:2664  owner == user */\n      0xffffffffffffffffffffffffffffffffffffffff\n      and\n      eq\n        /* \"Solidity_task2/NMB20.sol\":2643:2683  require(owner == user,\"address is zero\") */\n      tag_93\n      jumpi\n      mload(0x40)\n      0x08c379a000000000000000000000000000000000000000000000000000000000\n      dup2\n      mstore\n      0x04\n      add\n      tag_94\n      swap1\n      tag_95\n      jump\t// in\n    tag_94:\n      mload(0x40)\n      dup1\n      swap2\n      sub\n      swap1\n      revert\n    tag_93:\n        /* \"Solidity_task2/NMB20.sol\":2694:2713  _mint(user, amount) */\n      tag_96\n        /* \"Solidity_task2/NMB20.sol\":2700:2704  user */\n      dup3\n        /* \"Solidity_task2/NMB20.sol\":2706:2712  amount */\n      dup3\n        /* \"Solidity_task2/NMB20.sol\":2694:2699  _mint */\n      tag_97\n        /* \"Solidity_task2/NMB20.sol\":2694:2713  _mint(user, amount) */\n      jump\t// in\n    tag_96:\n        /* \"Solidity_task2/NMB20.sol\":2585:2721  function mint(address user,uint amount) public {... */\n      pop\n      pop\n      jump\t// out\n        /* \"Solidity_task2/NMB20.sol\":855:951  function symbol() public view virtual  returns (string memory) {... */\n    tag_46:\n        /* \"Solidity_task2/NMB20.sol\":903:916  string memory */\n      0x60\n        /* \"Solidity_task2/NMB20.sol\":936:943  _symbol */\n      0x04\n        /* \"Solidity_task2/NMB20.sol\":929:943  return _symbol */\n      dup1\n      sload\n      tag_99\n      swap1\n      tag_58\n      jump\t// in\n    tag_99:\n      dup1\n      0x1f\n      add\n      0x20\n      dup1\n      swap2\n      div\n      mul\n      0x20\n      add\n      mload(0x40)\n      swap1\n      dup2\n      add\n      0x40\n      mstore\n      dup1\n      swap3\n      swap2\n      swap1\n      dup2\n      dup2\n      mstore\n      0x20\n      add\n      dup3\n      dup1\n      sload\n      tag_100\n      swap1\n      tag_58\n      jump\t// in\n    tag_100:\n      dup1\n      iszero\n      tag_101\n      jumpi\n      dup1\n      0x1f\n      lt\n      tag_102\n      jumpi\n      0x0100\n      dup1\n      dup4\n      sload\n      div\n      mul\n      dup4\n      mstore\n      swap2\n      0x20\n      add\n      swap2\n      jump(tag_101)\n    tag_102:\n      dup3\n      add\n      swap2\n      swap1\n      0x00\n      mstore\n      keccak256(0x00, 0x20)\n      swap1\n    tag_103:\n      dup2\n      sload\n      dup2\n      mstore\n      swap1\n      0x01\n      add\n      swap1\n      0x20\n      add\n      dup1\n      dup4\n      gt\n      tag_103\n      jumpi\n      dup3\n      swap1\n      sub\n      0x1f\n      and\n      dup3\n      add\n      swap2\n    tag_101:\n      pop\n      pop\n      pop\n      pop\n      pop\n      swap1\n      pop\n        /* \"Solidity_task2/NMB20.sol\":855:951  function symbol() public view virtual  returns (string memory) {... */\n      swap1\n      jump\t// out\n        /* \"Solidity_task2/NMB20.sol\":1275:1647  function transfer(address to,uint amount) public returns (bool) {... */\n    tag_50:\n        /* \"Solidity_task2/NMB20.sol\":1333:1337  bool */\n      0x00\n        /* \"Solidity_task2/NMB20.sol\":1372:1373  0 */\n      0x00\n        /* \"Solidity_task2/NMB20.sol\":1358:1374  to != address(0) */\n      0xffffffffffffffffffffffffffffffffffffffff\n      and\n        /* \"Solidity_task2/NMB20.sol\":1358:1360  to */\n      dup4\n        /* \"Solidity_task2/NMB20.sol\":1358:1374  to != address(0) */\n      0xffffffffffffffffffffffffffffffffffffffff\n      and\n      sub\n        /* \"Solidity_task2/NMB20.sol\":1350:1406  require(to != address(0),\"transfer to the zero address\") */\n      tag_105\n      jumpi\n      mload(0x40)\n      0x08c379a000000000000000000000000000000000000000000000000000000000\n      dup2\n      mstore\n      0x04\n      add\n      tag_106\n      swap1\n      tag_107\n      jump\t// in\n    tag_106:\n      mload(0x40)\n      dup1\n      swap2\n      sub\n      swap1\n      revert\n    tag_105:\n        /* \"Solidity_task2/NMB20.sol\":1450:1456  amount */\n      dup2\n        /* \"Solidity_task2/NMB20.sol\":1425:1434  _balances */\n      0x00\n        /* \"Solidity_task2/NMB20.sol\":1425:1446  _balances[msg.sender] */\n      0x00\n        /* \"Solidity_task2/NMB20.sol\":1435:1445  msg.sender */\n      caller\n        /* \"Solidity_task2/NMB20.sol\":1425:1446  _balances[msg.sender] */\n      0xffffffffffffffffffffffffffffffffffffffff\n      and\n      0xffffffffffffffffffffffffffffffffffffffff\n      and\n      dup2\n      mstore\n      0x20\n      add\n      swap1\n      dup2\n      mstore\n      0x20\n      add\n      0x00\n      keccak256\n      sload\n        /* \"Solidity_task2/NMB20.sol\":1425:1456  _balances[msg.sender] >= amount */\n      lt\n      iszero\n        /* \"Solidity_task2/NMB20.sol\":1417:1491  require(_balances[msg.sender] >= amount,\"owner amount to exceeds balance\") */\n      tag_108\n      jumpi\n      mload(0x40)\n      0x08c379a000000000000000000000000000000000000000000000000000000000\n      dup2\n      mstore\n      0x04\n      add\n      tag_109\n      swap1\n      tag_110\n      jump\t// in\n    tag_109:\n      mload(0x40)\n      dup1\n      swap2\n      sub\n      swap1\n      revert\n    tag_108:\n        /* \"Solidity_task2/NMB20.sol\":1529:1535  amount */\n      dup2\n        /* \"Solidity_task2/NMB20.sol\":1504:1513  _balances */\n      0x00\n        /* \"Solidity_task2/NMB20.sol\":1504:1525  _balances[msg.sender] */\n      0x00\n        /* \"Solidity_task2/NMB20.sol\":1514:1524  msg.sender */\n      caller\n        /* \"Solidity_task2/NMB20.sol\":1504:1525  _balances[msg.sender] */\n      0xffffffffffffffffffffffffffffffffffffffff\n      and\n      0xffffffffffffffffffffffffffffffffffffffff\n      and\n      dup2\n      mstore\n      0x20\n      add\n      swap1\n      dup2\n      mstore\n      0x20\n      add\n      0x00\n      keccak256\n      0x00\n        /* \"Solidity_task2/NMB20.sol\":1504:1535  _balances[msg.sender] -= amount */\n      dup3\n      dup3\n      sload\n      tag_111\n      swap2\n      swap1\n      tag_85\n      jump\t// in\n    tag_111:\n      swap3\n      pop\n      pop\n      dup2\n      swap1\n      sstore\n      pop\n        /* \"Solidity_task2/NMB20.sol\":1563:1569  amount */\n      dup2\n        /* \"Solidity_task2/NMB20.sol\":1546:1555  _balances */\n      0x00\n        /* \"Solidity_task2/NMB20.sol\":1546:1559  _balances[to] */\n      0x00\n        /* \"Solidity_task2/NMB20.sol\":1556:1558  to */\n      dup6\n        /* \"Solidity_task2/NMB20.sol\":1546:1559  _balances[to] */\n      0xffffffffffffffffffffffffffffffffffffffff\n      and\n      0xffffffffffffffffffffffffffffffffffffffff\n      and\n      dup2\n      mstore\n      0x20\n      add\n      swap1\n      dup2\n      mstore\n      0x20\n      add\n      0x00\n      keccak256\n      0x00\n        /* \"Solidity_task2/NMB20.sol\":1546:1569  _balances[to] += amount */\n      dup3\n      dup3\n      sload\n      tag_112\n      swap2\n      swap1\n      tag_87\n      jump\t// in\n    tag_112:\n      swap3\n      pop\n      pop\n      dup2\n      swap1\n      sstore\n      pop\n        /* \"Solidity_task2/NMB20.sol\":1606:1608  to */\n      dup3\n        /* \"Solidity_task2/NMB20.sol\":1585:1617  Transfer(msg.sender, to, amount) */\n      0xffffffffffffffffffffffffffffffffffffffff\n      and\n        /* \"Solidity_task2/NMB20.sol\":1594:1604  msg.sender */\n      caller\n        /* \"Solidity_task2/NMB20.sol\":1585:1617  Transfer(msg.sender, to, amount) */\n      0xffffffffffffffffffffffffffffffffffffffff\n      and\n      0xddf252ad1be2c89b69c2b068fc378daa952ba7f163c4a11628f55a4df523b3ef\n        /* \"Solidity_task2/NMB20.sol\":1610:1616  amount */\n      dup5\n        /* \"Solidity_task2/NMB20.sol\":1585:1617  Transfer(msg.sender, to, amount) */\n      mload(0x40)\n      tag_113\n      swap2\n      swap1\n      tag_27\n      jump\t// in\n    tag_113:\n      mload(0x40)\n      dup1\n      swap2\n      sub\n      swap1\n      log3\n        /* \"Solidity_task2/NMB20.sol\":1635:1639  true */\n      0x01\n        /* \"Solidity_task2/NMB20.sol\":1628:1639  return true */\n      swap1\n      pop\n        /* \"Solidity_task2/NMB20.sol\":1275:1647  function transfer(address to,uint amount) public returns (bool) {... */\n      swap3\n      swap2\n      pop\n      pop\n      jump\t// out\n        /* \"Solidity_task2/NMB20.sol\":1161:1267  function balance(address addr) public view virtual returns(uint) {... */\n    tag_54:\n        /* \"Solidity_task2/NMB20.sol\":1220:1224  uint */\n      0x00\n        /* \"Solidity_task2/NMB20.sol\":1244:1253  _balances */\n      0x00\n        /* \"Solidity_task2/NMB20.sol\":1244:1259  _balances[addr] */\n      0x00\n        /* \"Solidity_task2/NMB20.sol\":1254:1258  addr */\n      dup4\n        /* \"Solidity_task2/NMB20.sol\":1244:1259  _balances[addr] */\n      0xffffffffffffffffffffffffffffffffffffffff\n      and\n      0xffffffffffffffffffffffffffffffffffffffff\n      and\n      dup2\n      mstore\n      0x20\n      add\n      swap1\n      dup2\n      mstore\n      0x20\n      add\n      0x00\n      keccak256\n      sload\n        /* \"Solidity_task2/NMB20.sol\":1237:1259  return _balances[addr] */\n      swap1\n      pop\n        /* \"Solidity_task2/NMB20.sol\":1161:1267  function balance(address addr) public view virtual returns(uint) {... */\n      swap2\n      swap1\n      pop\n      jump\t// out\n        /* \"Solidity_task2/NMB20.sol\":2757:2991  function _mint(address user,uint amount) internal  {... */\n    tag_97:\n        /* \"Solidity_task2/NMB20.sol\":2837:2838  0 */\n      0x00\n        /* \"Solidity_task2/NMB20.sol\":2827:2833  amount */\n      dup2\n        /* \"Solidity_task2/NMB20.sol\":2827:2838  amount != 0 */\n      sub\n        /* \"Solidity_task2/NMB20.sol\":2819:2864  require(amount != 0,\"amount cannot is empty\") */\n      tag_116\n      jumpi\n      mload(0x40)\n      0x08c379a000000000000000000000000000000000000000000000000000000000\n      dup2\n      mstore\n      0x04\n      add\n      tag_117\n      swap1\n      tag_118\n      jump\t// in\n    tag_117:\n      mload(0x40)\n      dup1\n      swap2\n      sub\n      swap1\n      revert\n    tag_116:\n        /* \"Solidity_task2/NMB20.sol\":2891:2897  amount */\n      dup1\n        /* \"Solidity_task2/NMB20.sol\":2875:2887  _totalSupply */\n      0x02\n      0x00\n        /* \"Solidity_task2/NMB20.sol\":2875:2897  _totalSupply += amount */\n      dup3\n      dup3\n      sload\n      tag_119\n      swap2\n      swap1\n      tag_87\n      jump\t// in\n    tag_119:\n      swap3\n      pop\n      pop\n      dup2\n      swap1\n      sstore\n      pop\n        /* \"Solidity_task2/NMB20.sol\":2927:2933  amount */\n      dup1\n        /* \"Solidity_task2/NMB20.sol\":2908:2917  _balances */\n      0x00\n        /* \"Solidity_task2/NMB20.sol\":2908:2923  _balances[user] */\n      0x00\n        /* \"Solidity_task2/NMB20.sol\":2918:2922  user */\n      dup5\n        /* \"Solidity_task2/NMB20.sol\":2908:2923  _balances[user] */\n      0xffffffffffffffffffffffffffffffffffffffff\n      and\n      0xffffffffffffffffffffffffffffffffffffffff\n      and\n      dup2\n      mstore\n      0x20\n      add\n      swap1\n      dup2\n      mstore\n      0x20\n      add\n      0x00\n      keccak256\n      0x00\n        /* \"Solidity_task2/NMB20.sol\":2908:2933  _balances[user] += amount */\n      dup3\n      dup3\n      sload\n      tag_120\n      swap2\n      swap1\n      tag_87\n      jump\t// in\n    tag_120:\n      swap3\n      pop\n      pop\n      dup2\n      swap1\n      sstore\n      pop\n        /* \"Solidity_task2/NMB20.sol\":2970:2974  user */\n      dup2\n        /* \"Solidity_task2/NMB20.sol\":2949:2983  Transfer(address(0), user, amount) */\n      0xffffffffffffffffffffffffffffffffffffffff\n      and\n        /* \"Solidity_task2/NMB20.sol\":2966:2967  0 */\n      0x00\n        /* \"Solidity_task2/NMB20.sol\":2949:2983  Transfer(address(0), user, amount) */\n      0xffffffffffffffffffffffffffffffffffffffff\n      and\n      0xddf252ad1be2c89b69c2b068fc378daa952ba7f163c4a11628f55a4df523b3ef\n        /* \"Solidity_task2/NMB20.sol\":2976:2982  amount */\n      dup4\n        /* \"Solidity_task2/NMB20.sol\":2949:2983  Transfer(address(0), user, amount) */\n      mload(0x40)\n      tag_121\n      swap2\n      swap1\n      tag_27\n      jump\t// in\n    tag_121:\n      mload(0x40)\n      dup1\n      swap2\n      sub\n      swap1\n      log3\n        /* \"Solidity_task2/NMB20.sol\":2757:2991  function _mint(address user,uint amount) internal  {... */\n      pop\n      pop\n      jump\t// out\n        /* \"#utility.yul\":7:106   */\n    tag_122:\n        /* \"#utility.yul\":59:65   */\n      0x00\n        /* \"#utility.yul\":93:98   */\n      dup2\n        /* \"#utility.yul\":87:99   */\n      mload\n        /* \"#utility.yul\":77:99   */\n      swap1\n      pop\n        /* \"#utility.yul\":7:106   */\n      swap2\n      swap1\n      pop\n      jump\t// out\n        /* \"#utility.yul\":112:281   */\n    tag_123:\n        /* \"#utility.yul\":196:207   */\n      0x00\n        /* \"#utility.yul\":230:236   */\n      dup3\n        /* \"#utility.yul\":225:228   */\n      dup3\n        /* \"#utility.yul\":218:237   */\n      mstore\n        /* \"#utility.yul\":270:274   */\n      0x20\n        /* \"#utility.yul\":265:268   */\n      dup3\n        /* \"#utility.yul\":261:275   */\n      add\n        /* \"#utility.yul\":246:275   */\n      swap1\n      pop\n        /* \"#utility.yul\":112:281   */\n      swap3\n      swap2\n      pop\n      pop\n      jump\t// out\n        /* \"#utility.yul\":287:426   */\n    tag_124:\n        /* \"#utility.yul\":376:382   */\n      dup3\n        /* \"#utility.yul\":371:374   */\n      dup2\n        /* \"#utility.yul\":366:369   */\n      dup4\n        /* \"#utility.yul\":360:383   */\n      mcopy\n        /* \"#utility.yul\":417:418   */\n      0x00\n        /* \"#utility.yul\":408:414   */\n      dup4\n        /* \"#utility.yul\":403:406   */\n      dup4\n        /* \"#utility.yul\":399:415   */\n      add\n        /* \"#utility.yul\":392:419   */\n      mstore\n        /* \"#utility.yul\":287:426   */\n      pop\n      pop\n      pop\n      jump\t// out\n        /* \"#utility.yul\":432:534   */\n    tag_125:\n        /* \"#utility.yul\":473:479   */\n      0x00\n        /* \"#utility.yul\":524:526   */\n      0x1f\n        /* \"#utility.yul\":520:527   */\n      not\n        /* \"#utility.yul\":515:517   */\n      0x1f\n        /* \"#utility.yul\":508:513   */\n      dup4\n        /* \"#utility.yul\":504:518   */\n      add\n        /* \"#utility.yul\":500:528   */\n      and\n        /* \"#utility.yul\":490:528   */\n      swap1\n      pop\n        /* \"#utility.yul\":432:534   */\n      swap2\n      swap1\n      pop\n      jump\t// out\n        /* \"#utility.yul\":540:917   */\n    tag_126:\n        /* \"#utility.yul\":628:631   */\n      0x00\n        /* \"#utility.yul\":656:695   */\n      tag_168\n        /* \"#utility.yul\":689:694   */\n      dup3\n        /* \"#utility.yul\":656:695   */\n      tag_122\n      jump\t// in\n    tag_168:\n        /* \"#utility.yul\":711:782   */\n      tag_169\n        /* \"#utility.yul\":775:781   */\n      dup2\n        /* \"#utility.yul\":770:773   */\n      dup6\n        /* \"#utility.yul\":711:782   */\n      tag_123\n      jump\t// in\n    tag_169:\n        /* \"#utility.yul\":704:782   */\n      swap4\n      pop\n        /* \"#utility.yul\":791:856   */\n      tag_170\n        /* \"#utility.yul\":849:855   */\n      dup2\n        /* \"#utility.yul\":844:847   */\n      dup6\n        /* \"#utility.yul\":837:841   */\n      0x20\n        /* \"#utility.yul\":830:835   */\n      dup7\n        /* \"#utility.yul\":826:842   */\n      add\n        /* \"#utility.yul\":791:856   */\n      tag_124\n      jump\t// in\n    tag_170:\n        /* \"#utility.yul\":881:910   */\n      tag_171\n        /* \"#utility.yul\":903:909   */\n      dup2\n        /* \"#utility.yul\":881:910   */\n      tag_125\n      jump\t// in\n    tag_171:\n        /* \"#utility.yul\":876:879   */\n      dup5\n        /* \"#utility.yul\":872:911   */\n      add\n        /* \"#utility.yul\":865:911   */\n      swap2\n      pop\n        /* \"#utility.yul\":632:917   */\n      pop\n        /* \"#utility.yul\":540:917   */\n      swap3\n      swap2\n      pop\n      pop\n      jump\t// out\n        /* \"#utility.yul\":923:1236   */\n    tag_17:\n        /* \"#utility.yul\":1036:1040   */\n      0x00\n        /* \"#utility.yul\":1074:1076   */\n      0x20\n        /* \"#utility.yul\":1063:1072   */\n      dup3\n        /* \"#utility.yul\":1059:1077   */\n      add\n        /* \"#utility.yul\":1051:1077   */\n      swap1\n      pop\n        /* \"#utility.yul\":1123:1132   */\n      dup2\n        /* \"#utility.yul\":1117:1121   */\n      dup2\n        /* \"#utility.yul\":1113:1133   */\n      sub\n        /* \"#utility.yul\":1109:1110   */\n      0x00\n        /* \"#utility.yul\":1098:1107   */\n      dup4\n        /* \"#utility.yul\":1094:1111   */\n      add\n        /* \"#utility.yul\":1087:1134   */\n      mstore\n        /* \"#utility.yul\":1151:1229   */\n      tag_173\n        /* \"#utility.yul\":1224:1228   */\n      dup2\n        /* \"#utility.yul\":1215:1221   */\n      dup5\n        /* \"#utility.yul\":1151:1229   */\n      tag_126\n      jump\t// in\n    tag_173:\n        /* \"#utility.yul\":1143:1229   */\n      swap1\n      pop\n        /* \"#utility.yul\":923:1236   */\n      swap3\n      swap2\n      pop\n      pop\n      jump\t// out\n        /* \"#utility.yul\":1323:1440   */\n    tag_128:\n        /* \"#utility.yul\":1432:1433   */\n      0x00\n        /* \"#utility.yul\":1429:1430   */\n      0x00\n        /* \"#utility.yul\":1422:1434   */\n      revert\n        /* \"#utility.yul\":1569:1695   */\n    tag_130:\n        /* \"#utility.yul\":1606:1613   */\n      0x00\n        /* \"#utility.yul\":1646:1688   */\n      0xffffffffffffffffffffffffffffffffffffffff\n        /* \"#utility.yul\":1639:1644   */\n      dup3\n        /* \"#utility.yul\":1635:1689   */\n      and\n        /* \"#utility.yul\":1624:1689   */\n      swap1\n      pop\n        /* \"#utility.yul\":1569:1695   */\n      swap2\n      swap1\n      pop\n      jump\t// out\n        /* \"#utility.yul\":1701:1797   */\n    tag_131:\n        /* \"#utility.yul\":1738:1745   */\n      0x00\n        /* \"#utility.yul\":1767:1791   */\n      tag_179\n        /* \"#utility.yul\":1785:1790   */\n      dup3\n        /* \"#utility.yul\":1767:1791   */\n      tag_130\n      jump\t// in\n    tag_179:\n        /* \"#utility.yul\":1756:1791   */\n      swap1\n      pop\n        /* \"#utility.yul\":1701:1797   */\n      swap2\n      swap1\n      pop\n      jump\t// out\n        /* \"#utility.yul\":1803:1925   */\n    tag_132:\n        /* \"#utility.yul\":1876:1900   */\n      tag_181\n        /* \"#utility.yul\":1894:1899   */\n      dup2\n        /* \"#utility.yul\":1876:1900   */\n      tag_131\n      jump\t// in\n    tag_181:\n        /* \"#utility.yul\":1869:1874   */\n      dup2\n        /* \"#utility.yul\":1866:1901   */\n      eq\n        /* \"#utility.yul\":1856:1919   */\n      tag_182\n      jumpi\n        /* \"#utility.yul\":1915:1916   */\n      0x00\n        /* \"#utility.yul\":1912:1913   */\n      0x00\n        /* \"#utility.yul\":1905:1917   */\n      revert\n        /* \"#utility.yul\":1856:1919   */\n    tag_182:\n        /* \"#utility.yul\":1803:1925   */\n      pop\n      jump\t// out\n        /* \"#utility.yul\":1931:2070   */\n    tag_133:\n        /* \"#utility.yul\":1977:1982   */\n      0x00\n        /* \"#utility.yul\":2015:2021   */\n      dup2\n        /* \"#utility.yul\":2002:2022   */\n      calldataload\n        /* \"#utility.yul\":1993:2022   */\n      swap1\n      pop\n        /* \"#utility.yul\":2031:2064   */\n      tag_184\n        /* \"#utility.yul\":2058:2063   */\n      dup2\n        /* \"#utility.yul\":2031:2064   */\n      tag_132\n      jump\t// in\n    tag_184:\n        /* \"#utility.yul\":1931:2070   */\n      swap3\n      swap2\n      pop\n      pop\n      jump\t// out\n        /* \"#utility.yul\":2076:2153   */\n    tag_134:\n        /* \"#utility.yul\":2113:2120   */\n      0x00\n        /* \"#utility.yul\":2142:2147   */\n      dup2\n        /* \"#utility.yul\":2131:2147   */\n      swap1\n      pop\n        /* \"#utility.yul\":2076:2153   */\n      swap2\n      swap1\n      pop\n      jump\t// out\n        /* \"#utility.yul\":2159:2281   */\n    tag_135:\n        /* \"#utility.yul\":2232:2256   */\n      tag_187\n        /* \"#utility.yul\":2250:2255   */\n      dup2\n        /* \"#utility.yul\":2232:2256   */\n      tag_134\n      jump\t// in\n    tag_187:\n        /* \"#utility.yul\":2225:2230   */\n      dup2\n        /* \"#utility.yul\":2222:2257   */\n      eq\n        /* \"#utility.yul\":2212:2275   */\n      tag_188\n      jumpi\n        /* \"#utility.yul\":2271:2272   */\n      0x00\n        /* \"#utility.yul\":2268:2269   */\n      0x00\n        /* \"#utility.yul\":2261:2273   */\n      revert\n        /* \"#utility.yul\":2212:2275   */\n    tag_188:\n        /* \"#utility.yul\":2159:2281   */\n      pop\n      jump\t// out\n        /* \"#utility.yul\":2287:2426   */\n    tag_136:\n        /* \"#utility.yul\":2333:2338   */\n      0x00\n        /* \"#utility.yul\":2371:2377   */\n      dup2\n        /* \"#utility.yul\":2358:2378   */\n      calldataload\n        /* \"#utility.yul\":2349:2378   */\n      swap1\n      pop\n        /* \"#utility.yul\":2387:2420   */\n      tag_190\n        /* \"#utility.yul\":2414:2419   */\n      dup2\n        /* \"#utility.yul\":2387:2420   */\n      tag_135\n      jump\t// in\n    tag_190:\n        /* \"#utility.yul\":2287:2426   */\n      swap3\n      swap2\n      pop\n      pop\n      jump\t// out\n        /* \"#utility.yul\":2432:2906   */\n    tag_20:\n        /* \"#utility.yul\":2500:2506   */\n      0x00\n        /* \"#utility.yul\":2508:2514   */\n      0x00\n        /* \"#utility.yul\":2557:2559   */\n      0x40\n        /* \"#utility.yul\":2545:2554   */\n      dup4\n        /* \"#utility.yul\":2536:2543   */\n      dup6\n        /* \"#utility.yul\":2532:2555   */\n      sub\n        /* \"#utility.yul\":2528:2560   */\n      slt\n        /* \"#utility.yul\":2525:2644   */\n      iszero\n      tag_192\n      jumpi\n        /* \"#utility.yul\":2563:2642   */\n      tag_193\n      tag_128\n      jump\t// in\n    tag_193:\n        /* \"#utility.yul\":2525:2644   */\n    tag_192:\n        /* \"#utility.yul\":2683:2684   */\n      0x00\n        /* \"#utility.yul\":2708:2761   */\n      tag_194\n        /* \"#utility.yul\":2753:2760   */\n      dup6\n        /* \"#utility.yul\":2744:2750   */\n      dup3\n        /* \"#utility.yul\":2733:2742   */\n      dup7\n        /* \"#utility.yul\":2729:2751   */\n      add\n        /* \"#utility.yul\":2708:2761   */\n      tag_133\n      jump\t// in\n    tag_194:\n        /* \"#utility.yul\":2698:2761   */\n      swap3\n      pop\n        /* \"#utility.yul\":2654:2771   */\n      pop\n        /* \"#utility.yul\":2810:2812   */\n      0x20\n        /* \"#utility.yul\":2836:2889   */\n      tag_195\n        /* \"#utility.yul\":2881:2888   */\n      dup6\n        /* \"#utility.yul\":2872:2878   */\n      dup3\n        /* \"#utility.yul\":2861:2870   */\n      dup7\n        /* \"#utility.yul\":2857:2879   */\n      add\n        /* \"#utility.yul\":2836:2889   */\n      tag_136\n      jump\t// in\n    tag_195:\n        /* \"#utility.yul\":2826:2889   */\n      swap2\n      pop\n        /* \"#utility.yul\":2781:2899   */\n      pop\n        /* \"#utility.yul\":2432:2906   */\n      swap3\n      pop\n      swap3\n      swap1\n      pop\n      jump\t// out\n        /* \"#utility.yul\":2912:3002   */\n    tag_137:\n        /* \"#utility.yul\":2946:2953   */\n      0x00\n        /* \"#utility.yul\":2989:2994   */\n      dup2\n        /* \"#utility.yul\":2982:2995   */\n      iszero\n        /* \"#utility.yul\":2975:2996   */\n      iszero\n        /* \"#utility.yul\":2964:2996   */\n      swap1\n      pop\n        /* \"#utility.yul\":2912:3002   */\n      swap2\n      swap1\n      pop\n      jump\t// out\n        /* \"#utility.yul\":3008:3117   */\n    tag_138:\n        /* \"#utility.yul\":3089:3110   */\n      tag_198\n        /* \"#utility.yul\":3104:3109   */\n      dup2\n        /* \"#utility.yul\":3089:3110   */\n      tag_137\n      jump\t// in\n    tag_198:\n        /* \"#utility.yul\":3084:3087   */\n      dup3\n        /* \"#utility.yul\":3077:3111   */\n      mstore\n        /* \"#utility.yul\":3008:3117   */\n      pop\n      pop\n      jump\t// out\n        /* \"#utility.yul\":3123:3333   */\n    tag_23:\n        /* \"#utility.yul\":3210:3214   */\n      0x00\n        /* \"#utility.yul\":3248:3250   */\n      0x20\n        /* \"#utility.yul\":3237:3246   */\n      dup3\n        /* \"#utility.yul\":3233:3251   */\n      add\n        /* \"#utility.yul\":3225:3251   */\n      swap1\n      pop\n        /* \"#utility.yul\":3261:3326   */\n      tag_200\n        /* \"#utility.yul\":3323:3324   */\n      0x00\n        /* \"#utility.yul\":3312:3321   */\n      dup4\n        /* \"#utility.yul\":3308:3325   */\n      add\n        /* \"#utility.yul\":3299:3305   */\n      dup5\n        /* \"#utility.yul\":3261:3326   */\n      tag_138\n      jump\t// in\n    tag_200:\n        /* \"#utility.yul\":3123:3333   */\n      swap3\n      swap2\n      pop\n      pop\n      jump\t// out\n        /* \"#utility.yul\":3339:3457   */\n    tag_139:\n        /* \"#utility.yul\":3426:3450   */\n      tag_202\n        /* \"#utility.yul\":3444:3449   */\n      dup2\n        /* \"#utility.yul\":3426:3450   */\n      tag_134\n      jump\t// in\n    tag_202:\n        /* \"#utility.yul\":3421:3424   */\n      dup3\n        /* \"#utility.yul\":3414:3451   */\n      mstore\n        /* \"#utility.yul\":3339:3457   */\n      pop\n      pop\n      jump\t// out\n        /* \"#utility.yul\":3463:3685   */\n    tag_27:\n        /* \"#utility.yul\":3556:3560   */\n      0x00\n        /* \"#utility.yul\":3594:3596   */\n      0x20\n        /* \"#utility.yul\":3583:3592   */\n      dup3\n        /* \"#utility.yul\":3579:3597   */\n      add\n        /* \"#utility.yul\":3571:3597   */\n      swap1\n      pop\n        /* \"#utility.yul\":3607:3678   */\n      tag_204\n        /* \"#utility.yul\":3675:3676   */\n      0x00\n        /* \"#utility.yul\":3664:3673   */\n      dup4\n        /* \"#utility.yul\":3660:3677   */\n      add\n        /* \"#utility.yul\":3651:3657   */\n      dup5\n        /* \"#utility.yul\":3607:3678   */\n      tag_139\n      jump\t// in\n    tag_204:\n        /* \"#utility.yul\":3463:3685   */\n      swap3\n      swap2\n      pop\n      pop\n      jump\t// out\n        /* \"#utility.yul\":3691:4310   */\n    tag_30:\n        /* \"#utility.yul\":3768:3774   */\n      0x00\n        /* \"#utility.yul\":3776:3782   */\n      0x00\n        /* \"#utility.yul\":3784:3790   */\n      0x00\n        /* \"#utility.yul\":3833:3835   */\n      0x60\n        /* \"#utility.yul\":3821:3830   */\n      dup5\n        /* \"#utility.yul\":3812:3819   */\n      dup7\n        /* \"#utility.yul\":3808:3831   */\n      sub\n        /* \"#utility.yul\":3804:3836   */\n      slt\n        /* \"#utility.yul\":3801:3920   */\n      iszero\n      tag_206\n      jumpi\n        /* \"#utility.yul\":3839:3918   */\n      tag_207\n      tag_128\n      jump\t// in\n    tag_207:\n        /* \"#utility.yul\":3801:3920   */\n    tag_206:\n        /* \"#utility.yul\":3959:3960   */\n      0x00\n        /* \"#utility.yul\":3984:4037   */\n      tag_208\n        /* \"#utility.yul\":4029:4036   */\n      dup7\n        /* \"#utility.yul\":4020:4026   */\n      dup3\n        /* \"#utility.yul\":4009:4018   */\n      dup8\n        /* \"#utility.yul\":4005:4027   */\n      add\n        /* \"#utility.yul\":3984:4037   */\n      tag_133\n      jump\t// in\n    tag_208:\n        /* \"#utility.yul\":3974:4037   */\n      swap4\n      pop\n        /* \"#utility.yul\":3930:4047   */\n      pop\n        /* \"#utility.yul\":4086:4088   */\n      0x20\n        /* \"#utility.yul\":4112:4165   */\n      tag_209\n        /* \"#utility.yul\":4157:4164   */\n      dup7\n        /* \"#utility.yul\":4148:4154   */\n      dup3\n        /* \"#utility.yul\":4137:4146   */\n      dup8\n        /* \"#utility.yul\":4133:4155   */\n      add\n        /* \"#utility.yul\":4112:4165   */\n      tag_133\n      jump\t// in\n    tag_209:\n        /* \"#utility.yul\":4102:4165   */\n      swap3\n      pop\n        /* \"#utility.yul\":4057:4175   */\n      pop\n        /* \"#utility.yul\":4214:4216   */\n      0x40\n        /* \"#utility.yul\":4240:4293   */\n      tag_210\n        /* \"#utility.yul\":4285:4292   */\n      dup7\n        /* \"#utility.yul\":4276:4282   */\n      dup3\n        /* \"#utility.yul\":4265:4274   */\n      dup8\n        /* \"#utility.yul\":4261:4283   */\n      add\n        /* \"#utility.yul\":4240:4293   */\n      tag_136\n      jump\t// in\n    tag_210:\n        /* \"#utility.yul\":4230:4293   */\n      swap2\n      pop\n        /* \"#utility.yul\":4185:4303   */\n      pop\n        /* \"#utility.yul\":3691:4310   */\n      swap3\n      pop\n      swap3\n      pop\n      swap3\n      jump\t// out\n        /* \"#utility.yul\":4316:4402   */\n    tag_140:\n        /* \"#utility.yul\":4351:4358   */\n      0x00\n        /* \"#utility.yul\":4391:4395   */\n      0xff\n        /* \"#utility.yul\":4384:4389   */\n      dup3\n        /* \"#utility.yul\":4380:4396   */\n      and\n        /* \"#utility.yul\":4369:4396   */\n      swap1\n      pop\n        /* \"#utility.yul\":4316:4402   */\n      swap2\n      swap1\n      pop\n      jump\t// out\n        /* \"#utility.yul\":4408:4520   */\n    tag_141:\n        /* \"#utility.yul\":4491:4513   */\n      tag_213\n        /* \"#utility.yul\":4507:4512   */\n      dup2\n        /* \"#utility.yul\":4491:4513   */\n      tag_140\n      jump\t// in\n    tag_213:\n        /* \"#utility.yul\":4486:4489   */\n      dup3\n        /* \"#utility.yul\":4479:4514   */\n      mstore\n        /* \"#utility.yul\":4408:4520   */\n      pop\n      pop\n      jump\t// out\n        /* \"#utility.yul\":4526:4740   */\n    tag_36:\n        /* \"#utility.yul\":4615:4619   */\n      0x00\n        /* \"#utility.yul\":4653:4655   */\n      0x20\n        /* \"#utility.yul\":4642:4651   */\n      dup3\n        /* \"#utility.yul\":4638:4656   */\n      add\n        /* \"#utility.yul\":4630:4656   */\n      swap1\n      pop\n        /* \"#utility.yul\":4666:4733   */\n      tag_215\n        /* \"#utility.yul\":4730:4731   */\n      0x00\n        /* \"#utility.yul\":4719:4728   */\n      dup4\n        /* \"#utility.yul\":4715:4732   */\n      add\n        /* \"#utility.yul\":4706:4712   */\n      dup5\n        /* \"#utility.yul\":4666:4733   */\n      tag_141\n      jump\t// in\n    tag_215:\n        /* \"#utility.yul\":4526:4740   */\n      swap3\n      swap2\n      pop\n      pop\n      jump\t// out\n        /* \"#utility.yul\":4746:5075   */\n    tag_39:\n        /* \"#utility.yul\":4805:4811   */\n      0x00\n        /* \"#utility.yul\":4854:4856   */\n      0x20\n        /* \"#utility.yul\":4842:4851   */\n      dup3\n        /* \"#utility.yul\":4833:4840   */\n      dup5\n        /* \"#utility.yul\":4829:4852   */\n      sub\n        /* \"#utility.yul\":4825:4857   */\n      slt\n        /* \"#utility.yul\":4822:4941   */\n      iszero\n      tag_217\n      jumpi\n        /* \"#utility.yul\":4860:4939   */\n      tag_218\n      tag_128\n      jump\t// in\n    tag_218:\n        /* \"#utility.yul\":4822:4941   */\n    tag_217:\n        /* \"#utility.yul\":4980:4981   */\n      0x00\n        /* \"#utility.yul\":5005:5058   */\n      tag_219\n        /* \"#utility.yul\":5050:5057   */\n      dup5\n        /* \"#utility.yul\":5041:5047   */\n      dup3\n        /* \"#utility.yul\":5030:5039   */\n      dup6\n        /* \"#utility.yul\":5026:5048   */\n      add\n        /* \"#utility.yul\":5005:5058   */\n      tag_133\n      jump\t// in\n    tag_219:\n        /* \"#utility.yul\":4995:5058   */\n      swap2\n      pop\n        /* \"#utility.yul\":4951:5068   */\n      pop\n        /* \"#utility.yul\":4746:5075   */\n      swap3\n      swap2\n      pop\n      pop\n      jump\t// out\n        /* \"#utility.yul\":5081:5261   */\n    tag_142:\n        /* \"#utility.yul\":5129:5206   */\n      0x4e487b7100000000000000000000000000000000000000000000000000000000\n        /* \"#utility.yul\":5126:5127   */\n      0x00\n        /* \"#utility.yul\":5119:5207   */\n      mstore\n        /* \"#utility.yul\":5226:5230   */\n      0x22\n        /* \"#utility.yul\":5223:5224   */\n      0x04\n        /* \"#utility.yul\":5216:5231   */\n      mstore\n        /* \"#utility.yul\":5250:5254   */\n      0x24\n        /* \"#utility.yul\":5247:5248   */\n      0x00\n        /* \"#utility.yul\":5240:5255   */\n      revert\n        /* \"#utility.yul\":5267:5587   */\n    tag_58:\n        /* \"#utility.yul\":5311:5317   */\n      0x00\n        /* \"#utility.yul\":5348:5349   */\n      0x02\n        /* \"#utility.yul\":5342:5346   */\n      dup3\n        /* \"#utility.yul\":5338:5350   */\n      div\n        /* \"#utility.yul\":5328:5350   */\n      swap1\n      pop\n        /* \"#utility.yul\":5395:5396   */\n      0x01\n        /* \"#utility.yul\":5389:5393   */\n      dup3\n        /* \"#utility.yul\":5385:5397   */\n      and\n        /* \"#utility.yul\":5416:5434   */\n      dup1\n        /* \"#utility.yul\":5406:5487   */\n      tag_222\n      jumpi\n        /* \"#utility.yul\":5472:5476   */\n      0x7f\n        /* \"#utility.yul\":5464:5470   */\n      dup3\n        /* \"#utility.yul\":5460:5477   */\n      and\n        /* \"#utility.yul\":5450:5477   */\n      swap2\n      pop\n        /* \"#utility.yul\":5406:5487   */\n    tag_222:\n        /* \"#utility.yul\":5534:5536   */\n      0x20\n        /* \"#utility.yul\":5526:5532   */\n      dup3\n        /* \"#utility.yul\":5523:5537   */\n      lt\n        /* \"#utility.yul\":5503:5521   */\n      dup2\n        /* \"#utility.yul\":5500:5538   */\n      sub\n        /* \"#utility.yul\":5497:5581   */\n      tag_223\n      jumpi\n        /* \"#utility.yul\":5553:5571   */\n      tag_224\n      tag_142\n      jump\t// in\n    tag_224:\n        /* \"#utility.yul\":5497:5581   */\n    tag_223:\n        /* \"#utility.yul\":5318:5587   */\n      pop\n        /* \"#utility.yul\":5267:5587   */\n      swap2\n      swap1\n      pop\n      jump\t// out\n        /* \"#utility.yul\":5593:5762   */\n    tag_143:\n        /* \"#utility.yul\":5733:5754   */\n      0x616464726573732063616e6e6f74207a65726f00000000000000000000000000\n        /* \"#utility.yul\":5729:5730   */\n      0x00\n        /* \"#utility.yul\":5721:5727   */\n      dup3\n        /* \"#utility.yul\":5717:5731   */\n      add\n        /* \"#utility.yul\":5710:5755   */\n      mstore\n        /* \"#utility.yul\":5593:5762   */\n      pop\n      jump\t// out\n        /* \"#utility.yul\":5768:6134   */\n    tag_144:\n        /* \"#utility.yul\":5910:5913   */\n      0x00\n        /* \"#utility.yul\":5931:5998   */\n      tag_227\n        /* \"#utility.yul\":5995:5997   */\n      0x13\n        /* \"#utility.yul\":5990:5993   */\n      dup4\n        /* \"#utility.yul\":5931:5998   */\n      tag_123\n      jump\t// in\n    tag_227:\n        /* \"#utility.yul\":5924:5998   */\n      swap2\n      pop\n        /* \"#utility.yul\":6007:6100   */\n      tag_228\n        /* \"#utility.yul\":6096:6099   */\n      dup3\n        /* \"#utility.yul\":6007:6100   */\n      tag_143\n      jump\t// in\n    tag_228:\n        /* \"#utility.yul\":6125:6127   */\n      0x20\n        /* \"#utility.yul\":6120:6123   */\n      dup3\n        /* \"#utility.yul\":6116:6128   */\n      add\n        /* \"#utility.yul\":6109:6128   */\n      swap1\n      pop\n        /* \"#utility.yul\":5768:6134   */\n      swap2\n      swap1\n      pop\n      jump\t// out\n        /* \"#utility.yul\":6140:6559   */\n    tag_66:\n        /* \"#utility.yul\":6306:6310   */\n      0x00\n        /* \"#utility.yul\":6344:6346   */\n      0x20\n        /* \"#utility.yul\":6333:6342   */\n      dup3\n        /* \"#utility.yul\":6329:6347   */\n      add\n        /* \"#utility.yul\":6321:6347   */\n      swap1\n      pop\n        /* \"#utility.yul\":6393:6402   */\n      dup2\n        /* \"#utility.yul\":6387:6391   */\n      dup2\n        /* \"#utility.yul\":6383:6403   */\n      sub\n        /* \"#utility.yul\":6379:6380   */\n      0x00\n        /* \"#utility.yul\":6368:6377   */\n      dup4\n        /* \"#utility.yul\":6364:6381   */\n      add\n        /* \"#utility.yul\":6357:6404   */\n      mstore\n        /* \"#utility.yul\":6421:6552   */\n      tag_230\n        /* \"#utility.yul\":6547:6551   */\n      dup2\n        /* \"#utility.yul\":6421:6552   */\n      tag_144\n      jump\t// in\n    tag_230:\n        /* \"#utility.yul\":6413:6552   */\n      swap1\n      pop\n        /* \"#utility.yul\":6140:6559   */\n      swap2\n      swap1\n      pop\n      jump\t// out\n        /* \"#utility.yul\":6565:6727   */\n    tag_145:\n        /* \"#utility.yul\":6705:6719   */\n      0x62616c616e636573203e20300000000000000000000000000000000000000000\n        /* \"#utility.yul\":6701:6702   */\n      0x00\n        /* \"#utility.yul\":6693:6699   */\n      dup3\n        /* \"#utility.yul\":6689:6703   */\n      add\n        /* \"#utility.yul\":6682:6720   */\n      mstore\n        /* \"#utility.yul\":6565:6727   */\n      pop\n      jump\t// out\n        /* \"#utility.yul\":6733:7099   */\n    tag_146:\n        /* \"#utility.yul\":6875:6878   */\n      0x00\n        /* \"#utility.yul\":6896:6963   */\n      tag_233\n        /* \"#utility.yul\":6960:6962   */\n      0x0c\n        /* \"#utility.yul\":6955:6958   */\n      dup4\n        /* \"#utility.yul\":6896:6963   */\n      tag_123\n      jump\t// in\n    tag_233:\n        /* \"#utility.yul\":6889:6963   */\n      swap2\n      pop\n        /* \"#utility.yul\":6972:7065   */\n      tag_234\n        /* \"#utility.yul\":7061:7064   */\n      dup3\n        /* \"#utility.yul\":6972:7065   */\n      tag_145\n      jump\t// in\n    tag_234:\n        /* \"#utility.yul\":7090:7092   */\n      0x20\n        /* \"#utility.yul\":7085:7088   */\n      dup3\n        /* \"#utility.yul\":7081:7093   */\n      add\n        /* \"#utility.yul\":7074:7093   */\n      swap1\n      pop\n        /* \"#utility.yul\":6733:7099   */\n      swap2\n      swap1\n      pop\n      jump\t// out\n        /* \"#utility.yul\":7105:7524   */\n    tag_69:\n        /* \"#utility.yul\":7271:7275   */\n      0x00\n        /* \"#utility.yul\":7309:7311   */\n      0x20\n        /* \"#utility.yul\":7298:7307   */\n      dup3\n        /* \"#utility.yul\":7294:7312   */\n      add\n        /* \"#utility.yul\":7286:7312   */\n      swap1\n      pop\n        /* \"#utility.yul\":7358:7367   */\n      dup2\n        /* \"#utility.yul\":7352:7356   */\n      dup2\n        /* \"#utility.yul\":7348:7368   */\n      sub\n        /* \"#utility.yul\":7344:7345   */\n      0x00\n        /* \"#utility.yul\":7333:7342   */\n      dup4\n        /* \"#utility.yul\":7329:7346   */\n      add\n        /* \"#utility.yul\":7322:7369   */\n      mstore\n        /* \"#utility.yul\":7386:7517   */\n      tag_236\n        /* \"#utility.yul\":7512:7516   */\n      dup2\n        /* \"#utility.yul\":7386:7517   */\n      tag_146\n      jump\t// in\n    tag_236:\n        /* \"#utility.yul\":7378:7517   */\n      swap1\n      pop\n        /* \"#utility.yul\":7105:7524   */\n      swap2\n      swap1\n      pop\n      jump\t// out\n        /* \"#utility.yul\":7530:7690   */\n    tag_147:\n        /* \"#utility.yul\":7670:7682   */\n      0x616d6f756e74203e203000000000000000000000000000000000000000000000\n        /* \"#utility.yul\":7666:7667   */\n      0x00\n        /* \"#utility.yul\":7658:7664   */\n      dup3\n        /* \"#utility.yul\":7654:7668   */\n      add\n        /* \"#utility.yul\":7647:7683   */\n      mstore\n        /* \"#utility.yul\":7530:7690   */\n      pop\n      jump\t// out\n        /* \"#utility.yul\":7696:8062   */\n    tag_148:\n        /* \"#utility.yul\":7838:7841   */\n      0x00\n        /* \"#utility.yul\":7859:7926   */\n      tag_239\n        /* \"#utility.yul\":7923:7925   */\n      0x0a\n        /* \"#utility.yul\":7918:7921   */\n      dup4\n        /* \"#utility.yul\":7859:7926   */\n      tag_123\n      jump\t// in\n    tag_239:\n        /* \"#utility.yul\":7852:7926   */\n      swap2\n      pop\n        /* \"#utility.yul\":7935:8028   */\n      tag_240\n        /* \"#utility.yul\":8024:8027   */\n      dup3\n        /* \"#utility.yul\":7935:8028   */\n      tag_147\n      jump\t// in\n    tag_240:\n        /* \"#utility.yul\":8053:8055   */\n      0x20\n        /* \"#utility.yul\":8048:8051   */\n      dup3\n        /* \"#utility.yul\":8044:8056   */\n      add\n        /* \"#utility.yul\":8037:8056   */\n      swap1\n      pop\n        /* \"#utility.yul\":7696:8062   */\n      swap2\n      swap1\n      pop\n      jump\t// out\n        /* \"#utility.yul\":8068:8487   */\n    tag_72:\n        /* \"#utility.yul\":8234:8238   */\n      0x00\n        /* \"#utility.yul\":8272:8274   */\n      0x20\n        /* \"#utility.yul\":8261:8270   */\n      dup3\n        /* \"#utility.yul\":8257:8275   */\n      add\n        /* \"#utility.yul\":8249:8275   */\n      swap1\n      pop\n        /* \"#utility.yul\":8321:8330   */\n      dup2\n        /* \"#utility.yul\":8315:8319   */\n      dup2\n        /* \"#utility.yul\":8311:8331   */\n      sub\n        /* \"#utility.yul\":8307:8308   */\n      0x00\n        /* \"#utility.yul\":8296:8305   */\n      dup4\n        /* \"#utility.yul\":8292:8309   */\n      add\n        /* \"#utility.yul\":8285:8332   */\n      mstore\n        /* \"#utility.yul\":8349:8480   */\n      tag_242\n        /* \"#utility.yul\":8475:8479   */\n      dup2\n        /* \"#utility.yul\":8349:8480   */\n      tag_148\n      jump\t// in\n    tag_242:\n        /* \"#utility.yul\":8341:8480   */\n      swap1\n      pop\n        /* \"#utility.yul\":8068:8487   */\n      swap2\n      swap1\n      pop\n      jump\t// out\n        /* \"#utility.yul\":8493:8644   */\n    tag_149:\n        /* \"#utility.yul\":8633:8636   */\n      0x3000000000000000000000000000000000000000000000000000000000000000\n        /* \"#utility.yul\":8629:8630   */\n      0x00\n        /* \"#utility.yul\":8621:8627   */\n      dup3\n        /* \"#utility.yul\":8617:8631   */\n      add\n        /* \"#utility.yul\":8610:8637   */\n      mstore\n        /* \"#utility.yul\":8493:8644   */\n      pop\n      jump\t// out\n        /* \"#utility.yul\":8650:9015   */\n    tag_150:\n        /* \"#utility.yul\":8792:8795   */\n      0x00\n        /* \"#utility.yul\":8813:8879   */\n      tag_245\n        /* \"#utility.yul\":8877:8878   */\n      0x01\n        /* \"#utility.yul\":8872:8875   */\n      dup4\n        /* \"#utility.yul\":8813:8879   */\n      tag_123\n      jump\t// in\n    tag_245:\n        /* \"#utility.yul\":8806:8879   */\n      swap2\n      pop\n        /* \"#utility.yul\":8888:8981   */\n      tag_246\n        /* \"#utility.yul\":8977:8980   */\n      dup3\n        /* \"#utility.yul\":8888:8981   */\n      tag_149\n      jump\t// in\n    tag_246:\n        /* \"#utility.yul\":9006:9008   */\n      0x20\n        /* \"#utility.yul\":9001:9004   */\n      dup3\n        /* \"#utility.yul\":8997:9009   */\n      add\n        /* \"#utility.yul\":8990:9009   */\n      swap1\n      pop\n        /* \"#utility.yul\":8650:9015   */\n      swap2\n      swap1\n      pop\n      jump\t// out\n        /* \"#utility.yul\":9021:9440   */\n    tag_78:\n        /* \"#utility.yul\":9187:9191   */\n      0x00\n        /* \"#utility.yul\":9225:9227   */\n      0x20\n        /* \"#utility.yul\":9214:9223   */\n      dup3\n        /* \"#utility.yul\":9210:9228   */\n      add\n        /* \"#utility.yul\":9202:9228   */\n      swap1\n      pop\n        /* \"#utility.yul\":9274:9283   */\n      dup2\n        /* \"#utility.yul\":9268:9272   */\n      dup2\n        /* \"#utility.yul\":9264:9284   */\n      sub\n        /* \"#utility.yul\":9260:9261   */\n      0x00\n        /* \"#utility.yul\":9249:9258   */\n      dup4\n        /* \"#utility.yul\":9245:9262   */\n      add\n        /* \"#utility.yul\":9238:9285   */\n      mstore\n        /* \"#utility.yul\":9302:9433   */\n      tag_248\n        /* \"#utility.yul\":9428:9432   */\n      dup2\n        /* \"#utility.yul\":9302:9433   */\n      tag_150\n      jump\t// in\n    tag_248:\n        /* \"#utility.yul\":9294:9433   */\n      swap1\n      pop\n        /* \"#utility.yul\":9021:9440   */\n      swap2\n      swap1\n      pop\n      jump\t// out\n        /* \"#utility.yul\":9446:9611   */\n    tag_151:\n        /* \"#utility.yul\":9586:9603   */\n      0x616c6c6f77616e636573203e3d20300000000000000000000000000000000000\n        /* \"#utility.yul\":9582:9583   */\n      0x00\n        /* \"#utility.yul\":9574:9580   */\n      dup3\n        /* \"#utility.yul\":9570:9584   */\n      add\n        /* \"#utility.yul\":9563:9604   */\n      mstore\n        /* \"#utility.yul\":9446:9611   */\n      pop\n      jump\t// out\n        /* \"#utility.yul\":9617:9983   */\n    tag_152:\n        /* \"#utility.yul\":9759:9762   */\n      0x00\n        /* \"#utility.yul\":9780:9847   */\n      tag_251\n        /* \"#utility.yul\":9844:9846   */\n      0x0f\n        /* \"#utility.yul\":9839:9842   */\n      dup4\n        /* \"#utility.yul\":9780:9847   */\n      tag_123\n      jump\t// in\n    tag_251:\n        /* \"#utility.yul\":9773:9847   */\n      swap2\n      pop\n        /* \"#utility.yul\":9856:9949   */\n      tag_252\n        /* \"#utility.yul\":9945:9948   */\n      dup3\n        /* \"#utility.yul\":9856:9949   */\n      tag_151\n      jump\t// in\n    tag_252:\n        /* \"#utility.yul\":9974:9976   */\n      0x20\n        /* \"#utility.yul\":9969:9972   */\n      dup3\n        /* \"#utility.yul\":9965:9977   */\n      add\n        /* \"#utility.yul\":9958:9977   */\n      swap1\n      pop\n        /* \"#utility.yul\":9617:9983   */\n      swap2\n      swap1\n      pop\n      jump\t// out\n        /* \"#utility.yul\":9989:10408   */\n    tag_83:\n        /* \"#utility.yul\":10155:10159   */\n      0x00\n        /* \"#utility.yul\":10193:10195   */\n      0x20\n        /* \"#utility.yul\":10182:10191   */\n      dup3\n        /* \"#utility.yul\":10178:10196   */\n      add\n        /* \"#utility.yul\":10170:10196   */\n      swap1\n      pop\n        /* \"#utility.yul\":10242:10251   */\n      dup2\n        /* \"#utility.yul\":10236:10240   */\n      dup2\n        /* \"#utility.yul\":10232:10252   */\n      sub\n        /* \"#utility.yul\":10228:10229   */\n      0x00\n        /* \"#utility.yul\":10217:10226   */\n      dup4\n        /* \"#utility.yul\":10213:10230   */\n      add\n        /* \"#utility.yul\":10206:10253   */\n      mstore\n        /* \"#utility.yul\":10270:10401   */\n      tag_254\n        /* \"#utility.yul\":10396:10400   */\n      dup2\n        /* \"#utility.yul\":10270:10401   */\n      tag_152\n      jump\t// in\n    tag_254:\n        /* \"#utility.yul\":10262:10401   */\n      swap1\n      pop\n        /* \"#utility.yul\":9989:10408   */\n      swap2\n      swap1\n      pop\n      jump\t// out\n        /* \"#utility.yul\":10414:10594   */\n    tag_153:\n        /* \"#utility.yul\":10462:10539   */\n      0x4e487b7100000000000000000000000000000000000000000000000000000000\n        /* \"#utility.yul\":10459:10460   */\n      0x00\n        /* \"#utility.yul\":10452:10540   */\n      mstore\n        /* \"#utility.yul\":10559:10563   */\n      0x11\n        /* \"#utility.yul\":10556:10557   */\n      0x04\n        /* \"#utility.yul\":10549:10564   */\n      mstore\n        /* \"#utility.yul\":10583:10587   */\n      0x24\n        /* \"#utility.yul\":10580:10581   */\n      0x00\n        /* \"#utility.yul\":10573:10588   */\n      revert\n        /* \"#utility.yul\":10600:10794   */\n    tag_85:\n        /* \"#utility.yul\":10640:10644   */\n      0x00\n        /* \"#utility.yul\":10660:10680   */\n      tag_257\n        /* \"#utility.yul\":10678:10679   */\n      dup3\n        /* \"#utility.yul\":10660:10680   */\n      tag_134\n      jump\t// in\n    tag_257:\n        /* \"#utility.yul\":10655:10680   */\n      swap2\n      pop\n        /* \"#utility.yul\":10694:10714   */\n      tag_258\n        /* \"#utility.yul\":10712:10713   */\n      dup4\n        /* \"#utility.yul\":10694:10714   */\n      tag_134\n      jump\t// in\n    tag_258:\n        /* \"#utility.yul\":10689:10714   */\n      swap3\n      pop\n        /* \"#utility.yul\":10738:10739   */\n      dup3\n        /* \"#utility.yul\":10735:10736   */\n      dup3\n        /* \"#utility.yul\":10731:10740   */\n      sub\n        /* \"#utility.yul\":10723:10740   */\n      swap1\n      pop\n        /* \"#utility.yul\":10762:10763   */\n      dup2\n        /* \"#utility.yul\":10756:10760   */\n      dup2\n        /* \"#utility.yul\":10753:10764   */\n      gt\n        /* \"#utility.yul\":10750:10787   */\n      iszero\n      tag_259\n      jumpi\n        /* \"#utility.yul\":10767:10785   */\n      tag_260\n      tag_153\n      jump\t// in\n    tag_260:\n        /* \"#utility.yul\":10750:10787   */\n    tag_259:\n        /* \"#utility.yul\":10600:10794   */\n      swap3\n      swap2\n      pop\n      pop\n      jump\t// out\n        /* \"#utility.yul\":10800:10991   */\n    tag_87:\n        /* \"#utility.yul\":10840:10843   */\n      0x00\n        /* \"#utility.yul\":10859:10879   */\n      tag_262\n        /* \"#utility.yul\":10877:10878   */\n      dup3\n        /* \"#utility.yul\":10859:10879   */\n      tag_134\n      jump\t// in\n    tag_262:\n        /* \"#utility.yul\":10854:10879   */\n      swap2\n      pop\n        /* \"#utility.yul\":10893:10913   */\n      tag_263\n        /* \"#utility.yul\":10911:10912   */\n      dup4\n        /* \"#utility.yul\":10893:10913   */\n      tag_134\n      jump\t// in\n    tag_263:\n        /* \"#utility.yul\":10888:10913   */\n      swap3\n      pop\n        /* \"#utility.yul\":10936:10937   */\n      dup3\n        /* \"#utility.yul\":10933:10934   */\n      dup3\n        /* \"#utility.yul\":10929:10938   */\n      add\n        /* \"#utility.yul\":10922:10938   */\n      swap1\n      pop\n        /* \"#utility.yul\":10957:10960   */\n      dup1\n        /* \"#utility.yul\":10954:10955   */\n      dup3\n        /* \"#utility.yul\":10951:10961   */\n      gt\n        /* \"#utility.yul\":10948:10984   */\n      iszero\n      tag_264\n      jumpi\n        /* \"#utility.yul\":10964:10982   */\n      tag_265\n      tag_153\n      jump\t// in\n    tag_265:\n        /* \"#utility.yul\":10948:10984   */\n    tag_264:\n        /* \"#utility.yul\":10800:10991   */\n      swap3\n      swap2\n      pop\n      pop\n      jump\t// out\n        /* \"#utility.yul\":10997:11162   */\n    tag_154:\n        /* \"#utility.yul\":11137:11154   */\n      0x61646472657373206973207a65726f0000000000000000000000000000000000\n        /* \"#utility.yul\":11133:11134   */\n      0x00\n        /* \"#utility.yul\":11125:11131   */\n      dup3\n        /* \"#utility.yul\":11121:11135   */\n      add\n        /* \"#utility.yul\":11114:11155   */\n      mstore\n        /* \"#utility.yul\":10997:11162   */\n      pop\n      jump\t// out\n        /* \"#utility.yul\":11168:11534   */\n    tag_155:\n        /* \"#utility.yul\":11310:11313   */\n      0x00\n        /* \"#utility.yul\":11331:11398   */\n      tag_268\n        /* \"#utility.yul\":11395:11397   */\n      0x0f\n        /* \"#utility.yul\":11390:11393   */\n      dup4\n        /* \"#utility.yul\":11331:11398   */\n      tag_123\n      jump\t// in\n    tag_268:\n        /* \"#utility.yul\":11324:11398   */\n      swap2\n      pop\n        /* \"#utility.yul\":11407:11500   */\n      tag_269\n        /* \"#utility.yul\":11496:11499   */\n      dup3\n        /* \"#utility.yul\":11407:11500   */\n      tag_154\n      jump\t// in\n    tag_269:\n        /* \"#utility.yul\":11525:11527   */\n      0x20\n        /* \"#utility.yul\":11520:11523   */\n      dup3\n        /* \"#utility.yul\":11516:11528   */\n      add\n        /* \"#utility.yul\":11509:11528   */\n      swap1\n      pop\n        /* \"#utility.yul\":11168:11534   */\n      swap2\n      swap1\n      pop\n      jump\t// out\n        /* \"#utility.yul\":11540:11959   */\n    tag_95:\n        /* \"#utility.yul\":11706:11710   */\n      0x00\n        /* \"#utility.yul\":11744:11746   */\n      0x20\n        /* \"#utility.yul\":11733:11742   */\n      dup3\n        /* \"#utility.yul\":11729:11747   */\n      add\n        /* \"#utility.yul\":11721:11747   */\n      swap1\n      pop\n        /* \"#utility.yul\":11793:11802   */\n      dup2\n        /* \"#utility.yul\":11787:11791   */\n      dup2\n        /* \"#utility.yul\":11783:11803   */\n      sub\n        /* \"#utility.yul\":11779:11780   */\n      0x00\n        /* \"#utility.yul\":11768:11777   */\n      dup4\n        /* \"#utility.yul\":11764:11781   */\n      add\n        /* \"#utility.yul\":11757:11804   */\n      mstore\n        /* \"#utility.yul\":11821:11952   */\n      tag_271\n        /* \"#utility.yul\":11947:11951   */\n      dup2\n        /* \"#utility.yul\":11821:11952   */\n      tag_155\n      jump\t// in\n    tag_271:\n        /* \"#utility.yul\":11813:11952   */\n      swap1\n      pop\n        /* \"#utility.yul\":11540:11959   */\n      swap2\n      swap1\n      pop\n      jump\t// out\n        /* \"#utility.yul\":11965:12143   */\n    tag_156:\n        /* \"#utility.yul\":12105:12135   */\n      0x7472616e7366657220746f20746865207a65726f206164647265737300000000\n        /* \"#utility.yul\":12101:12102   */\n      0x00\n        /* \"#utility.yul\":12093:12099   */\n      dup3\n        /* \"#utility.yul\":12089:12103   */\n      add\n        /* \"#utility.yul\":12082:12136   */\n      mstore\n        /* \"#utility.yul\":11965:12143   */\n      pop\n      jump\t// out\n        /* \"#utility.yul\":12149:12515   */\n    tag_157:\n        /* \"#utility.yul\":12291:12294   */\n      0x00\n        /* \"#utility.yul\":12312:12379   */\n      tag_274\n        /* \"#utility.yul\":12376:12378   */\n      0x1c\n        /* \"#utility.yul\":12371:12374   */\n      dup4\n        /* \"#utility.yul\":12312:12379   */\n      tag_123\n      jump\t// in\n    tag_274:\n        /* \"#utility.yul\":12305:12379   */\n      swap2\n      pop\n        /* \"#utility.yul\":12388:12481   */\n      tag_275\n        /* \"#utility.yul\":12477:12480   */\n      dup3\n        /* \"#utility.yul\":12388:12481   */\n      tag_156\n      jump\t// in\n    tag_275:\n        /* \"#utility.yul\":12506:12508   */\n      0x20\n        /* \"#utility.yul\":12501:12504   */\n      dup3\n        /* \"#utility.yul\":12497:12509   */\n      add\n        /* \"#utility.yul\":12490:12509   */\n      swap1\n      pop\n        /* \"#utility.yul\":12149:12515   */\n      swap2\n      swap1\n      pop\n      jump\t// out\n        /* \"#utility.yul\":12521:12940   */\n    tag_107:\n        /* \"#utility.yul\":12687:12691   */\n      0x00\n        /* \"#utility.yul\":12725:12727   */\n      0x20\n        /* \"#utility.yul\":12714:12723   */\n      dup3\n        /* \"#utility.yul\":12710:12728   */\n      add\n        /* \"#utility.yul\":12702:12728   */\n      swap1\n      pop\n        /* \"#utility.yul\":12774:12783   */\n      dup2\n        /* \"#utility.yul\":12768:12772   */\n      dup2\n        /* \"#utility.yul\":12764:12784   */\n      sub\n        /* \"#utility.yul\":12760:12761   */\n      0x00\n        /* \"#utility.yul\":12749:12758   */\n      dup4\n        /* \"#utility.yul\":12745:12762   */\n      add\n        /* \"#utility.yul\":12738:12785   */\n      mstore\n        /* \"#utility.yul\":12802:12933   */\n      tag_277\n        /* \"#utility.yul\":12928:12932   */\n      dup2\n        /* \"#utility.yul\":12802:12933   */\n      tag_157\n      jump\t// in\n    tag_277:\n        /* \"#utility.yul\":12794:12933   */\n      swap1\n      pop\n        /* \"#utility.yul\":12521:12940   */\n      swap2\n      swap1\n      pop\n      jump\t// out\n        /* \"#utility.yul\":12946:13127   */\n    tag_158:\n        /* \"#utility.yul\":13086:13119   */\n      0x6f776e657220616d6f756e7420746f20657863656564732062616c616e636500\n        /* \"#utility.yul\":13082:13083   */\n      0x00\n        /* \"#utility.yul\":13074:13080   */\n      dup3\n        /* \"#utility.yul\":13070:13084   */\n      add\n        /* \"#utility.yul\":13063:13120   */\n      mstore\n        /* \"#utility.yul\":12946:13127   */\n      pop\n      jump\t// out\n        /* \"#utility.yul\":13133:13499   */\n    tag_159:\n        /* \"#utility.yul\":13275:13278   */\n      0x00\n        /* \"#utility.yul\":13296:13363   */\n      tag_280\n        /* \"#utility.yul\":13360:13362   */\n      0x1f\n        /* \"#utility.yul\":13355:13358   */\n      dup4\n        /* \"#utility.yul\":13296:13363   */\n      tag_123\n      jump\t// in\n    tag_280:\n        /* \"#utility.yul\":13289:13363   */\n      swap2\n      pop\n        /* \"#utility.yul\":13372:13465   */\n      tag_281\n        /* \"#utility.yul\":13461:13464   */\n      dup3\n        /* \"#utility.yul\":13372:13465   */\n      tag_158\n      jump\t// in\n    tag_281:\n        /* \"#utility.yul\":13490:13492   */\n      0x20\n        /* \"#utility.yul\":13485:13488   */\n      dup3\n        /* \"#utility.yul\":13481:13493   */\n      add\n        /* \"#utility.yul\":13474:13493   */\n      swap1\n      pop\n        /* \"#utility.yul\":13133:13499   */\n      swap2\n      swap1\n      pop\n      jump\t// out\n        /* \"#utility.yul\":13505:13924   */\n    tag_110:\n        /* \"#utility.yul\":13671:13675   */\n      0x00\n        /* \"#utility.yul\":13709:13711   */\n      0x20\n        /* \"#utility.yul\":13698:13707   */\n      dup3\n        /* \"#utility.yul\":13694:13712   */\n      add\n        /* \"#utility.yul\":13686:13712   */\n      swap1\n      pop\n        /* \"#utility.yul\":13758:13767   */\n      dup2\n        /* \"#utility.yul\":13752:13756   */\n      dup2\n        /* \"#utility.yul\":13748:13768   */\n      sub\n        /* \"#utility.yul\":13744:13745   */\n      0x00\n        /* \"#utility.yul\":13733:13742   */\n      dup4\n        /* \"#utility.yul\":13729:13746   */\n      add\n        /* \"#utility.yul\":13722:13769   */\n      mstore\n        /* \"#utility.yul\":13786:13917   */\n      tag_283\n        /* \"#utility.yul\":13912:13916   */\n      dup2\n        /* \"#utility.yul\":13786:13917   */\n      tag_159\n      jump\t// in\n    tag_283:\n        /* \"#utility.yul\":13778:13917   */\n      swap1\n      pop\n        /* \"#utility.yul\":13505:13924   */\n      swap2\n      swap1\n      pop\n      jump\t// out\n        /* \"#utility.yul\":13930:14102   */\n    tag_160:\n        /* \"#utility.yul\":14070:14094   */\n      0x616d6f756e742063616e6e6f7420697320656d70747900000000000000000000\n        /* \"#utility.yul\":14066:14067   */\n      0x00\n        /* \"#utility.yul\":14058:14064   */\n      dup3\n        /* \"#utility.yul\":14054:14068   */\n      add\n        /* \"#utility.yul\":14047:14095   */\n      mstore\n        /* \"#utility.yul\":13930:14102   */\n      pop\n      jump\t// out\n        /* \"#utility.yul\":14108:14474   */\n    tag_161:\n        /* \"#utility.yul\":14250:14253   */\n      0x00\n        /* \"#utility.yul\":14271:14338   */\n      tag_286\n        /* \"#utility.yul\":14335:14337   */\n      0x16\n        /* \"#utility.yul\":14330:14333   */\n      dup4\n        /* \"#utility.yul\":14271:14338   */\n      tag_123\n      jump\t// in\n    tag_286:\n        /* \"#utility.yul\":14264:14338   */\n      swap2\n      pop\n        /* \"#utility.yul\":14347:14440   */\n      tag_287\n        /* \"#utility.yul\":14436:14439   */\n      dup3\n        /* \"#utility.yul\":14347:14440   */\n      tag_160\n      jump\t// in\n    tag_287:\n        /* \"#utility.yul\":14465:14467   */\n      0x20\n        /* \"#utility.yul\":14460:14463   */\n      dup3\n        /* \"#utility.yul\":14456:14468   */\n      add\n        /* \"#utility.yul\":14449:14468   */\n      swap1\n      pop\n        /* \"#utility.yul\":14108:14474   */\n      swap2\n      swap1\n      pop\n      jump\t// out\n        /* \"#utility.yul\":14480:14899   */\n    tag_118:\n        /* \"#utility.yul\":14646:14650   */\n      0x00\n        /* \"#utility.yul\":14684:14686   */\n      0x20\n        /* \"#utility.yul\":14673:14682   */\n      dup3\n        /* \"#utility.yul\":14669:14687   */\n      add\n        /* \"#utility.yul\":14661:14687   */\n      swap1\n      pop\n        /* \"#utility.yul\":14733:14742   */\n      dup2\n        /* \"#utility.yul\":14727:14731   */\n      dup2\n        /* \"#utility.yul\":14723:14743   */\n      sub\n        /* \"#utility.yul\":14719:14720   */\n      0x00\n        /* \"#utility.yul\":14708:14717   */\n      dup4\n        /* \"#utility.yul\":14704:14721   */\n      add\n        /* \"#utility.yul\":14697:14744   */\n      mstore\n        /* \"#utility.yul\":14761:14892   */\n      tag_289\n        /* \"#utility.yul\":14887:14891   */\n      dup2\n        /* \"#utility.yul\":14761:14892   */\n      tag_161\n      jump\t// in\n    tag_289:\n        /* \"#utility.yul\":14753:14892   */\n      swap1\n      pop\n        /* \"#utility.yul\":14480:14899   */\n      swap2\n      swap1\n      pop\n      jump\t// out\n\n    auxdata: 0xa2646970667358221220ca0615ba37f72d1e27fb32e45f3dc3544bca72d818e85e3309d829dc9204b63764736f6c634300081e0033\n}\n",
				"bytecode": {
					"linkReferences": {},
					"object": "608060405234801561000f575f5ffd5b50604051611c77380380611c778339818101604052810190610031919061035f565b826003908161004091906105ee565b50816004908161005091906105ee565b503360055f6101000a81548173ffffffffffffffffffffffffffffffffffffffff021916908373ffffffffffffffffffffffffffffffffffffffff1602179055506100c260055f9054906101000a900473ffffffffffffffffffffffffffffffffffffffff16826100ca60201b60201c565b5050506107bd565b5f810361010c576040517f08c379a000000000000000000000000000000000000000000000000000000000815260040161010390610717565b60405180910390fd5b8060025f82825461011d9190610762565b92505081905550805f5f8473ffffffffffffffffffffffffffffffffffffffff1673ffffffffffffffffffffffffffffffffffffffff1681526020019081526020015f205f82825461016f9190610762565b925050819055508173ffffffffffffffffffffffffffffffffffffffff165f73ffffffffffffffffffffffffffffffffffffffff167fddf252ad1be2c89b69c2b068fc378daa952ba7f163c4a11628f55a4df523b3ef836040516101d391906107a4565b60405180910390a35050565b5f604051905090565b5f5ffd5b5f5ffd5b5f5ffd5b5f5ffd5b5f601f19601f8301169050919050565b7f4e487b71000000000000000000000000000000000000000000000000000000005f52604160045260245ffd5b61023e826101f8565b810181811067ffffffffffffffff8211171561025d5761025c610208565b5b80604052505050565b5f61026f6101df565b905061027b8282610235565b919050565b5f67ffffffffffffffff82111561029a57610299610208565b5b6102a3826101f8565b9050602081019050919050565b8281835e5f83830152505050565b5f6102d06102cb84610280565b610266565b9050828152602081018484840111156102ec576102eb6101f4565b5b6102f78482856102b0565b509392505050565b5f82601f830112610313576103126101f0565b5b81516103238482602086016102be565b91505092915050565b5f819050919050565b61033e8161032c565b8114610348575f5ffd5b50565b5f8151905061035981610335565b92915050565b5f5f5f60608486031215610376576103756101e8565b5b5f84015167ffffffffffffffff811115610393576103926101ec565b5b61039f868287016102ff565b935050602084015167ffffffffffffffff8111156103c0576103bf6101ec565b5b6103cc868287016102ff565b92505060406103dd8682870161034b565b9150509250925092565b5f81519050919050565b7f4e487b71000000000000000000000000000000000000000000000000000000005f52602260045260245ffd5b5f600282049050600182168061043557607f821691505b602082108103610448576104476103f1565b5b50919050565b5f819050815f5260205f209050919050565b5f6020601f8301049050919050565b5f82821b905092915050565b5f600883026104aa7fffffffffffffffffffffffffffffffffffffffffffffffffffffffffffffffff8261046f565b6104b4868361046f565b95508019841693508086168417925050509392505050565b5f819050919050565b5f6104ef6104ea6104e58461032c565b6104cc565b61032c565b9050919050565b5f819050919050565b610508836104d5565b61051c610514826104f6565b84845461047b565b825550505050565b5f5f905090565b610533610524565b61053e8184846104ff565b505050565b5b81811015610561576105565f8261052b565b600181019050610544565b5050565b601f8211156105a6576105778161044e565b61058084610460565b8101602085101561058f578190505b6105a361059b85610460565b830182610543565b50505b505050565b5f82821c905092915050565b5f6105c65f19846008026105ab565b1980831691505092915050565b5f6105de83836105b7565b9150826002028217905092915050565b6105f7826103e7565b67ffffffffffffffff8111156106105761060f610208565b5b61061a825461041e565b610625828285610565565b5f60209050601f831160018114610656575f8415610644578287015190505b61064e85826105d3565b8655506106b5565b601f1984166106648661044e565b5f5b8281101561068b57848901518255600182019150602085019450602081019050610666565b868310156106a857848901516106a4601f8916826105b7565b8355505b6001600288020188555050505b505050505050565b5f82825260208201905092915050565b7f616d6f756e742063616e6e6f7420697320656d707479000000000000000000005f82015250565b5f6107016016836106bd565b915061070c826106cd565b602082019050919050565b5f6020820190508181035f83015261072e816106f5565b9050919050565b7f4e487b71000000000000000000000000000000000000000000000000000000005f52601160045260245ffd5b5f61076c8261032c565b91506107778361032c565b925082820190508082111561078f5761078e610735565b5b92915050565b61079e8161032c565b82525050565b5f6020820190506107b75f830184610795565b92915050565b6114ad806107ca5f395ff3fe608060405234801561000f575f5ffd5b506004361061009c575f3560e01c80633e5beab9116100645780633e5beab91461015a57806340c10f191461018a57806395d89b41146101a6578063a9059cbb146101c4578063e3d670d7146101f45761009c565b806306fdde03146100a0578063095ea7b3146100be57806318160ddd146100ee57806323b872dd1461010c578063313ce5671461013c575b5f5ffd5b6100a8610224565b6040516100b59190610de6565b60405180910390f35b6100d860048036038101906100d39190610e97565b6102b4565b6040516100e59190610eef565b60405180910390f35b6100f6610511565b6040516101039190610f17565b60405180910390f35b61012660048036038101906101219190610f30565b61051a565b6040516101339190610eef565b60405180910390f35b610144610865565b6040516101519190610f9b565b60405180910390f35b610174600480360381019061016f9190610fb4565b61086d565b6040516101819190610f17565b60405180910390f35b6101a4600480360381019061019f9190610e97565b6108ee565b005b6101ae61098b565b6040516101bb9190610de6565b60405180910390f35b6101de60048036038101906101d99190610e97565b610a1b565b6040516101eb9190610eef565b60405180910390f35b61020e60048036038101906102099190610fb4565b610c1c565b60405161021b9190610f17565b60405180910390f35b6060600380546102339061100c565b80601f016020809104026020016040519081016040528092919081815260200182805461025f9061100c565b80156102aa5780601f10610281576101008083540402835291602001916102aa565b820191905f5260205f20905b81548152906001019060200180831161028d57829003601f168201915b5050505050905090565b5f5f73ffffffffffffffffffffffffffffffffffffffff168373ffffffffffffffffffffffffffffffffffffffff1603610323576040517f08c379a000000000000000000000000000000000000000000000000000000000815260040161031a90611086565b60405180910390fd5b5f5f5f3373ffffffffffffffffffffffffffffffffffffffff1673ffffffffffffffffffffffffffffffffffffffff1681526020019081526020015f2054116103a1576040517f08c379a0000000000000000000000000000000000000000000000000000000008152600401610398906110ee565b60405180910390fd5b5f82116103e3576040517f08c379a00000000000000000000000000000000000000000000000000000000081526004016103da90611156565b60405180910390fd5b8160015f60055f9054906101000a900473ffffffffffffffffffffffffffffffffffffffff1673ffffffffffffffffffffffffffffffffffffffff1673ffffffffffffffffffffffffffffffffffffffff1681526020019081526020015f205f8573ffffffffffffffffffffffffffffffffffffffff1673ffffffffffffffffffffffffffffffffffffffff1681526020019081526020015f20819055508273ffffffffffffffffffffffffffffffffffffffff1660055f9054906101000a900473ffffffffffffffffffffffffffffffffffffffff1673ffffffffffffffffffffffffffffffffffffffff167f8c5be1e5ebec7d5bd14f71427d1e84f3dd0314c0f7b2291e5b200ac8c7c3b925846040516104ff9190610f17565b60405180910390a36001905092915050565b5f600254905090565b5f815f5f8673ffffffffffffffffffffffffffffffffffffffff1673ffffffffffffffffffffffffffffffffffffffff1681526020019081526020015f2054101561059a576040517f08c379a0000000000000000000000000000000000000000000000000000000008152600401610591906111be565b60405180910390fd5b5f73ffffffffffffffffffffffffffffffffffffffff168373ffffffffffffffffffffffffffffffffffffffff1603610608576040517f08c379a00000000000000000000000000000000000000000000000000000000081526004016105ff906111be565b60405180910390fd5b8160015f8673ffffffffffffffffffffffffffffffffffffffff1673ffffffffffffffffffffffffffffffffffffffff1681526020019081526020015f205f3373ffffffffffffffffffffffffffffffffffffffff1673ffffffffffffffffffffffffffffffffffffffff1681526020019081526020015f205410156106c3576040517f08c379a00000000000000000000000000000000000000000000000000000000081526004016106ba90611226565b60405180910390fd5b815f5f8673ffffffffffffffffffffffffffffffffffffffff1673ffffffffffffffffffffffffffffffffffffffff1681526020019081526020015f205f82825461070e9190611271565b92505081905550815f5f8573ffffffffffffffffffffffffffffffffffffffff1673ffffffffffffffffffffffffffffffffffffffff1681526020019081526020015f205f82825461076091906112a4565b925050819055508160015f8673ffffffffffffffffffffffffffffffffffffffff1673ffffffffffffffffffffffffffffffffffffffff1681526020019081526020015f205f3373ffffffffffffffffffffffffffffffffffffffff1673ffffffffffffffffffffffffffffffffffffffff1681526020019081526020015f205f8282546107ee9190611271565b925050819055508273ffffffffffffffffffffffffffffffffffffffff168473ffffffffffffffffffffffffffffffffffffffff167fddf252ad1be2c89b69c2b068fc378daa952ba7f163c4a11628f55a4df523b3ef846040516108529190610f17565b60405180910390a3600190509392505050565b5f6012905090565b5f60015f3373ffffffffffffffffffffffffffffffffffffffff1673ffffffffffffffffffffffffffffffffffffffff1681526020019081526020015f205f8373ffffffffffffffffffffffffffffffffffffffff1673ffffffffffffffffffffffffffffffffffffffff1681526020019081526020015f20549050919050565b8173ffffffffffffffffffffffffffffffffffffffff1660055f9054906101000a900473ffffffffffffffffffffffffffffffffffffffff1673ffffffffffffffffffffffffffffffffffffffff161461097d576040517f08c379a000000000000000000000000000000000000000000000000000000000815260040161097490611321565b60405180910390fd5b6109878282610c61565b5050565b60606004805461099a9061100c565b80601f01602080910402602001604051908101604052809291908181526020018280546109c69061100c565b8015610a115780601f106109e857610100808354040283529160200191610a11565b820191905f5260205f20905b8154815290600101906020018083116109f457829003601f168201915b5050505050905090565b5f5f73ffffffffffffffffffffffffffffffffffffffff168373ffffffffffffffffffffffffffffffffffffffff1603610a8a576040517f08c379a0000000000000000000000000000000000000000000000000000000008152600401610a8190611389565b60405180910390fd5b815f5f3373ffffffffffffffffffffffffffffffffffffffff1673ffffffffffffffffffffffffffffffffffffffff1681526020019081526020015f20541015610b09576040517f08c379a0000000000000000000000000000000000000000000000000000000008152600401610b00906113f1565b60405180910390fd5b815f5f3373ffffffffffffffffffffffffffffffffffffffff1673ffffffffffffffffffffffffffffffffffffffff1681526020019081526020015f205f828254610b549190611271565b92505081905550815f5f8573ffffffffffffffffffffffffffffffffffffffff1673ffffffffffffffffffffffffffffffffffffffff1681526020019081526020015f205f828254610ba691906112a4565b925050819055508273ffffffffffffffffffffffffffffffffffffffff163373ffffffffffffffffffffffffffffffffffffffff167fddf252ad1be2c89b69c2b068fc378daa952ba7f163c4a11628f55a4df523b3ef84604051610c0a9190610f17565b60405180910390a36001905092915050565b5f5f5f8373ffffffffffffffffffffffffffffffffffffffff1673ffffffffffffffffffffffffffffffffffffffff1681526020019081526020015f20549050919050565b5f8103610ca3576040517f08c379a0000000000000000000000000000000000000000000000000000000008152600401610c9a90611459565b60405180910390fd5b8060025f828254610cb491906112a4565b92505081905550805f5f8473ffffffffffffffffffffffffffffffffffffffff1673ffffffffffffffffffffffffffffffffffffffff1681526020019081526020015f205f828254610d0691906112a4565b925050819055508173ffffffffffffffffffffffffffffffffffffffff165f73ffffffffffffffffffffffffffffffffffffffff167fddf252ad1be2c89b69c2b068fc378daa952ba7f163c4a11628f55a4df523b3ef83604051610d6a9190610f17565b60405180910390a35050565b5f81519050919050565b5f82825260208201905092915050565b8281835e5f83830152505050565b5f601f19601f8301169050919050565b5f610db882610d76565b610dc28185610d80565b9350610dd2818560208601610d90565b610ddb81610d9e565b840191505092915050565b5f6020820190508181035f830152610dfe8184610dae565b905092915050565b5f5ffd5b5f73ffffffffffffffffffffffffffffffffffffffff82169050919050565b5f610e3382610e0a565b9050919050565b610e4381610e29565b8114610e4d575f5ffd5b50565b5f81359050610e5e81610e3a565b92915050565b5f819050919050565b610e7681610e64565b8114610e80575f5ffd5b50565b5f81359050610e9181610e6d565b92915050565b5f5f60408385031215610ead57610eac610e06565b5b5f610eba85828601610e50565b9250506020610ecb85828601610e83565b9150509250929050565b5f8115159050919050565b610ee981610ed5565b82525050565b5f602082019050610f025f830184610ee0565b92915050565b610f1181610e64565b82525050565b5f602082019050610f2a5f830184610f08565b92915050565b5f5f5f60608486031215610f4757610f46610e06565b5b5f610f5486828701610e50565b9350506020610f6586828701610e50565b9250506040610f7686828701610e83565b9150509250925092565b5f60ff82169050919050565b610f9581610f80565b82525050565b5f602082019050610fae5f830184610f8c565b92915050565b5f60208284031215610fc957610fc8610e06565b5b5f610fd684828501610e50565b91505092915050565b7f4e487b71000000000000000000000000000000000000000000000000000000005f52602260045260245ffd5b5f600282049050600182168061102357607f821691505b60208210810361103657611035610fdf565b5b50919050565b7f616464726573732063616e6e6f74207a65726f000000000000000000000000005f82015250565b5f611070601383610d80565b915061107b8261103c565b602082019050919050565b5f6020820190508181035f83015261109d81611064565b9050919050565b7f62616c616e636573203e203000000000000000000000000000000000000000005f82015250565b5f6110d8600c83610d80565b91506110e3826110a4565b602082019050919050565b5f6020820190508181035f830152611105816110cc565b9050919050565b7f616d6f756e74203e2030000000000000000000000000000000000000000000005f82015250565b5f611140600a83610d80565b915061114b8261110c565b602082019050919050565b5f6020820190508181035f83015261116d81611134565b9050919050565b7f30000000000000000000000000000000000000000000000000000000000000005f82015250565b5f6111a8600183610d80565b91506111b382611174565b602082019050919050565b5f6020820190508181035f8301526111d58161119c565b9050919050565b7f616c6c6f77616e636573203e3d203000000000000000000000000000000000005f82015250565b5f611210600f83610d80565b915061121b826111dc565b602082019050919050565b5f6020820190508181035f83015261123d81611204565b9050919050565b7f4e487b71000000000000000000000000000000000000000000000000000000005f52601160045260245ffd5b5f61127b82610e64565b915061128683610e64565b925082820390508181111561129e5761129d611244565b5b92915050565b5f6112ae82610e64565b91506112b983610e64565b92508282019050808211156112d1576112d0611244565b5b92915050565b7f61646472657373206973207a65726f00000000000000000000000000000000005f82015250565b5f61130b600f83610d80565b9150611316826112d7565b602082019050919050565b5f6020820190508181035f830152611338816112ff565b9050919050565b7f7472616e7366657220746f20746865207a65726f2061646472657373000000005f82015250565b5f611373601c83610d80565b915061137e8261133f565b602082019050919050565b5f6020820190508181035f8301526113a081611367565b9050919050565b7f6f776e657220616d6f756e7420746f20657863656564732062616c616e6365005f82015250565b5f6113db601f83610d80565b91506113e6826113a7565b602082019050919050565b5f6020820190508181035f830152611408816113cf565b9050919050565b7f616d6f756e742063616e6e6f7420697320656d707479000000000000000000005f82015250565b5f611443601683610d80565b915061144e8261140f565b602082019050919050565b5f6020820190508181035f83015261147081611437565b905091905056fea2646970667358221220ca0615ba37f72d1e27fb32e45f3dc3544bca72d818e85e3309d829dc9204b63764736f6c634300081e0033",
					"opcodes": "PUSH1 0x80 PUSH1 0x40 MSTORE CALLVALUE DUP1 ISZERO PUSH2 0xF JUMPI PUSH0 PUSH0 REVERT JUMPDEST POP PUSH1 0x40 MLOAD PUSH2 0x1C77 CODESIZE SUB DUP1 PUSH2 0x1C77 DUP4 CODECOPY DUP2 DUP2 ADD PUSH1 0x40 MSTORE DUP2 ADD SWAP1 PUSH2 0x31 SWAP2 SWAP1 PUSH2 0x35F JUMP JUMPDEST DUP3 PUSH1 0x3 SWAP1 DUP2 PUSH2 0x40 SWAP2 SWAP1 PUSH2 0x5EE JUMP JUMPDEST POP DUP2 PUSH1 0x4 SWAP1 DUP2 PUSH2 0x50 SWAP2 SWAP1 PUSH2 0x5EE JUMP JUMPDEST POP CALLER PUSH1 0x5 PUSH0 PUSH2 0x100 EXP DUP2 SLOAD DUP2 PUSH20 0xFFFFFFFFFFFFFFFFFFFFFFFFFFFFFFFFFFFFFFFF MUL NOT AND SWAP1 DUP4 PUSH20 0xFFFFFFFFFFFFFFFFFFFFFFFFFFFFFFFFFFFFFFFF AND MUL OR SWAP1 SSTORE POP PUSH2 0xC2 PUSH1 0x5 PUSH0 SWAP1 SLOAD SWAP1 PUSH2 0x100 EXP SWAP1 DIV PUSH20 0xFFFFFFFFFFFFFFFFFFFFFFFFFFFFFFFFFFFFFFFF AND DUP3 PUSH2 0xCA PUSH1 0x20 SHL PUSH1 0x20 SHR JUMP JUMPDEST POP POP POP PUSH2 0x7BD JUMP JUMPDEST PUSH0 DUP2 SUB PUSH2 0x10C JUMPI PUSH1 0x40 MLOAD PUSH32 0x8C379A000000000000000000000000000000000000000000000000000000000 DUP2 MSTORE PUSH1 0x4 ADD PUSH2 0x103 SWAP1 PUSH2 0x717 JUMP JUMPDEST PUSH1 0x40 MLOAD DUP1 SWAP2 SUB SWAP1 REVERT JUMPDEST DUP1 PUSH1 0x2 PUSH0 DUP3 DUP3 SLOAD PUSH2 0x11D SWAP2 SWAP1 PUSH2 0x762 JUMP JUMPDEST SWAP3 POP POP DUP2 SWAP1 SSTORE POP DUP1 PUSH0 PUSH0 DUP5 PUSH20 0xFFFFFFFFFFFFFFFFFFFFFFFFFFFFFFFFFFFFFFFF AND PUSH20 0xFFFFFFFFFFFFFFFFFFFFFFFFFFFFFFFFFFFFFFFF AND DUP2 MSTORE PUSH1 0x20 ADD SWAP1 DUP2 MSTORE PUSH1 0x20 ADD PUSH0 KECCAK256 PUSH0 DUP3 DUP3 SLOAD PUSH2 0x16F SWAP2 SWAP1 PUSH2 0x762 JUMP JUMPDEST SWAP3 POP POP DUP2 SWAP1 SSTORE POP DUP2 PUSH20 0xFFFFFFFFFFFFFFFFFFFFFFFFFFFFFFFFFFFFFFFF AND PUSH0 PUSH20 0xFFFFFFFFFFFFFFFFFFFFFFFFFFFFFFFFFFFFFFFF AND PUSH32 0xDDF252AD1BE2C89B69C2B068FC378DAA952BA7F163C4A11628F55A4DF523B3EF DUP4 PUSH1 0x40 MLOAD PUSH2 0x1D3 SWAP2 SWAP1 PUSH2 0x7A4 JUMP JUMPDEST PUSH1 0x40 MLOAD DUP1 SWAP2 SUB SWAP1 LOG3 POP POP JUMP JUMPDEST PUSH0 PUSH1 0x40 MLOAD SWAP1 POP SWAP1 JUMP JUMPDEST PUSH0 PUSH0 REVERT JUMPDEST PUSH0 PUSH0 REVERT JUMPDEST PUSH0 PUSH0 REVERT JUMPDEST PUSH0 PUSH0 REVERT JUMPDEST PUSH0 PUSH1 0x1F NOT PUSH1 0x1F DUP4 ADD AND SWAP1 POP SWAP2 SWAP1 POP JUMP JUMPDEST PUSH32 0x4E487B7100000000000000000000000000000000000000000000000000000000 PUSH0 MSTORE PUSH1 0x41 PUSH1 0x4 MSTORE PUSH1 0x24 PUSH0 REVERT JUMPDEST PUSH2 0x23E DUP3 PUSH2 0x1F8 JUMP JUMPDEST DUP2 ADD DUP2 DUP2 LT PUSH8 0xFFFFFFFFFFFFFFFF DUP3 GT OR ISZERO PUSH2 0x25D JUMPI PUSH2 0x25C PUSH2 0x208 JUMP JUMPDEST JUMPDEST DUP1 PUSH1 0x40 MSTORE POP POP POP JUMP JUMPDEST PUSH0 PUSH2 0x26F PUSH2 0x1DF JUMP JUMPDEST SWAP1 POP PUSH2 0x27B DUP3 DUP3 PUSH2 0x235 JUMP JUMPDEST SWAP2 SWAP1 POP JUMP JUMPDEST PUSH0 PUSH8 0xFFFFFFFFFFFFFFFF DUP3 GT ISZERO PUSH2 0x29A JUMPI PUSH2 0x299 PUSH2 0x208 JUMP JUMPDEST JUMPDEST PUSH2 0x2A3 DUP3 PUSH2 0x1F8 JUMP JUMPDEST SWAP1 POP PUSH1 0x20 DUP2 ADD SWAP1 POP SWAP2 SWAP1 POP JUMP JUMPDEST DUP3 DUP2 DUP4 MCOPY PUSH0 DUP4 DUP4 ADD MSTORE POP POP POP JUMP JUMPDEST PUSH0 PUSH2 0x2D0 PUSH2 0x2CB DUP5 PUSH2 0x280 JUMP JUMPDEST PUSH2 0x266 JUMP JUMPDEST SWAP1 POP DUP3 DUP2 MSTORE PUSH1 0x20 DUP2 ADD DUP5 DUP5 DUP5 ADD GT ISZERO PUSH2 0x2EC JUMPI PUSH2 0x2EB PUSH2 0x1F4 JUMP JUMPDEST JUMPDEST PUSH2 0x2F7 DUP5 DUP3 DUP6 PUSH2 0x2B0 JUMP JUMPDEST POP SWAP4 SWAP3 POP POP POP JUMP JUMPDEST PUSH0 DUP3 PUSH1 0x1F DUP4 ADD SLT PUSH2 0x313 JUMPI PUSH2 0x312 PUSH2 0x1F0 JUMP JUMPDEST JUMPDEST DUP2 MLOAD PUSH2 0x323 DUP5 DUP3 PUSH1 0x20 DUP7 ADD PUSH2 0x2BE JUMP JUMPDEST SWAP2 POP POP SWAP3 SWAP2 POP POP JUMP JUMPDEST PUSH0 DUP2 SWAP1 POP SWAP2 SWAP1 POP JUMP JUMPDEST PUSH2 0x33E DUP2 PUSH2 0x32C JUMP JUMPDEST DUP2 EQ PUSH2 0x348 JUMPI PUSH0 PUSH0 REVERT JUMPDEST POP JUMP JUMPDEST PUSH0 DUP2 MLOAD SWAP1 POP PUSH2 0x359 DUP2 PUSH2 0x335 JUMP JUMPDEST SWAP3 SWAP2 POP POP JUMP JUMPDEST PUSH0 PUSH0 PUSH0 PUSH1 0x60 DUP5 DUP7 SUB SLT ISZERO PUSH2 0x376 JUMPI PUSH2 0x375 PUSH2 0x1E8 JUMP JUMPDEST JUMPDEST PUSH0 DUP5 ADD MLOAD PUSH8 0xFFFFFFFFFFFFFFFF DUP2 GT ISZERO PUSH2 0x393 JUMPI PUSH2 0x392 PUSH2 0x1EC JUMP JUMPDEST JUMPDEST PUSH2 0x39F DUP7 DUP3 DUP8 ADD PUSH2 0x2FF JUMP JUMPDEST SWAP4 POP POP PUSH1 0x20 DUP5 ADD MLOAD PUSH8 0xFFFFFFFFFFFFFFFF DUP2 GT ISZERO PUSH2 0x3C0 JUMPI PUSH2 0x3BF PUSH2 0x1EC JUMP JUMPDEST JUMPDEST PUSH2 0x3CC DUP7 DUP3 DUP8 ADD PUSH2 0x2FF JUMP JUMPDEST SWAP3 POP POP PUSH1 0x40 PUSH2 0x3DD DUP7 DUP3 DUP8 ADD PUSH2 0x34B JUMP JUMPDEST SWAP2 POP POP SWAP3 POP SWAP3 POP SWAP3 JUMP JUMPDEST PUSH0 DUP2 MLOAD SWAP1 POP SWAP2 SWAP1 POP JUMP JUMPDEST PUSH32 0x4E487B7100000000000000000000000000000000000000000000000000000000 PUSH0 MSTORE PUSH1 0x22 PUSH1 0x4 MSTORE PUSH1 0x24 PUSH0 REVERT JUMPDEST PUSH0 PUSH1 0x2 DUP3 DIV SWAP1 POP PUSH1 0x1 DUP3 AND DUP1 PUSH2 0x435 JUMPI PUSH1 0x7F DUP3 AND SWAP2 POP JUMPDEST PUSH1 0x20 DUP3 LT DUP2 SUB PUSH2 0x448 JUMPI PUSH2 0x447 PUSH2 0x3F1 JUMP JUMPDEST JUMPDEST POP SWAP2 SWAP1 POP JUMP JUMPDEST PUSH0 DUP2 SWAP1 POP DUP2 PUSH0 MSTORE PUSH1 0x20 PUSH0 KECCAK256 SWAP1 POP SWAP2 SWAP1 POP JUMP JUMPDEST PUSH0 PUSH1 0x20 PUSH1 0x1F DUP4 ADD DIV SWAP1 POP SWAP2 SWAP1 POP JUMP JUMPDEST PUSH0 DUP3 DUP3 SHL SWAP1 POP SWAP3 SWAP2 POP POP JUMP JUMPDEST PUSH0 PUSH1 0x8 DUP4 MUL PUSH2 0x4AA PUSH32 0xFFFFFFFFFFFFFFFFFFFFFFFFFFFFFFFFFFFFFFFFFFFFFFFFFFFFFFFFFFFFFFFF DUP3 PUSH2 0x46F JUMP JUMPDEST PUSH2 0x4B4 DUP7 DUP4 PUSH2 0x46F JUMP JUMPDEST SWAP6 POP DUP1 NOT DUP5 AND SWAP4 POP DUP1 DUP7 AND DUP5 OR SWAP3 POP POP POP SWAP4 SWAP3 POP POP POP JUMP JUMPDEST PUSH0 DUP2 SWAP1 POP SWAP2 SWAP1 POP JUMP JUMPDEST PUSH0 PUSH2 0x4EF PUSH2 0x4EA PUSH2 0x4E5 DUP5 PUSH2 0x32C JUMP JUMPDEST PUSH2 0x4CC JUMP JUMPDEST PUSH2 0x32C JUMP JUMPDEST SWAP1 POP SWAP2 SWAP1 POP JUMP JUMPDEST PUSH0 DUP2 SWAP1 POP SWAP2 SWAP1 POP JUMP JUMPDEST PUSH2 0x508 DUP4 PUSH2 0x4D5 JUMP JUMPDEST PUSH2 0x51C PUSH2 0x514 DUP3 PUSH2 0x4F6 JUMP JUMPDEST DUP5 DUP5 SLOAD PUSH2 0x47B JUMP JUMPDEST DUP3 SSTORE POP POP POP POP JUMP JUMPDEST PUSH0 PUSH0 SWAP1 POP SWAP1 JUMP JUMPDEST PUSH2 0x533 PUSH2 0x524 JUMP JUMPDEST PUSH2 0x53E DUP2 DUP5 DUP5 PUSH2 0x4FF JUMP JUMPDEST POP POP POP JUMP JUMPDEST JUMPDEST DUP2 DUP2 LT ISZERO PUSH2 0x561 JUMPI PUSH2 0x556 PUSH0 DUP3 PUSH2 0x52B JUMP JUMPDEST PUSH1 0x1 DUP2 ADD SWAP1 POP PUSH2 0x544 JUMP JUMPDEST POP POP JUMP JUMPDEST PUSH1 0x1F DUP3 GT ISZERO PUSH2 0x5A6 JUMPI PUSH2 0x577 DUP2 PUSH2 0x44E JUMP JUMPDEST PUSH2 0x580 DUP5 PUSH2 0x460 JUMP JUMPDEST DUP2 ADD PUSH1 0x20 DUP6 LT ISZERO PUSH2 0x58F JUMPI DUP2 SWAP1 POP JUMPDEST PUSH2 0x5A3 PUSH2 0x59B DUP6 PUSH2 0x460 JUMP JUMPDEST DUP4 ADD DUP3 PUSH2 0x543 JUMP JUMPDEST POP POP JUMPDEST POP POP POP JUMP JUMPDEST PUSH0 DUP3 DUP3 SHR SWAP1 POP SWAP3 SWAP2 POP POP JUMP JUMPDEST PUSH0 PUSH2 0x5C6 PUSH0 NOT DUP5 PUSH1 0x8 MUL PUSH2 0x5AB JUMP JUMPDEST NOT DUP1 DUP4 AND SWAP2 POP POP SWAP3 SWAP2 POP POP JUMP JUMPDEST PUSH0 PUSH2 0x5DE DUP4 DUP4 PUSH2 0x5B7 JUMP JUMPDEST SWAP2 POP DUP3 PUSH1 0x2 MUL DUP3 OR SWAP1 POP SWAP3 SWAP2 POP POP JUMP JUMPDEST PUSH2 0x5F7 DUP3 PUSH2 0x3E7 JUMP JUMPDEST PUSH8 0xFFFFFFFFFFFFFFFF DUP2 GT ISZERO PUSH2 0x610 JUMPI PUSH2 0x60F PUSH2 0x208 JUMP JUMPDEST JUMPDEST PUSH2 0x61A DUP3 SLOAD PUSH2 0x41E JUMP JUMPDEST PUSH2 0x625 DUP3 DUP3 DUP6 PUSH2 0x565 JUMP JUMPDEST PUSH0 PUSH1 0x20 SWAP1 POP PUSH1 0x1F DUP4 GT PUSH1 0x1 DUP2 EQ PUSH2 0x656 JUMPI PUSH0 DUP5 ISZERO PUSH2 0x644 JUMPI DUP3 DUP8 ADD MLOAD SWAP1 POP JUMPDEST PUSH2 0x64E DUP6 DUP3 PUSH2 0x5D3 JUMP JUMPDEST DUP7 SSTORE POP PUSH2 0x6B5 JUMP JUMPDEST PUSH1 0x1F NOT DUP5 AND PUSH2 0x664 DUP7 PUSH2 0x44E JUMP JUMPDEST PUSH0 JUMPDEST DUP3 DUP2 LT ISZERO PUSH2 0x68B JUMPI DUP5 DUP10 ADD MLOAD DUP3 SSTORE PUSH1 0x1 DUP3 ADD SWAP2 POP PUSH1 0x20 DUP6 ADD SWAP5 POP PUSH1 0x20 DUP2 ADD SWAP1 POP PUSH2 0x666 JUMP JUMPDEST DUP7 DUP4 LT ISZERO PUSH2 0x6A8 JUMPI DUP5 DUP10 ADD MLOAD PUSH2 0x6A4 PUSH1 0x1F DUP10 AND DUP3 PUSH2 0x5B7 JUMP JUMPDEST DUP4 SSTORE POP JUMPDEST PUSH1 0x1 PUSH1 0x2 DUP9 MUL ADD DUP9 SSTORE POP POP POP JUMPDEST POP POP POP POP POP POP JUMP JUMPDEST PUSH0 DUP3 DUP3 MSTORE PUSH1 0x20 DUP3 ADD SWAP1 POP SWAP3 SWAP2 POP POP JUMP JUMPDEST PUSH32 0x616D6F756E742063616E6E6F7420697320656D70747900000000000000000000 PUSH0 DUP3 ADD MSTORE POP JUMP JUMPDEST PUSH0 PUSH2 0x701 PUSH1 0x16 DUP4 PUSH2 0x6BD JUMP JUMPDEST SWAP2 POP PUSH2 0x70C DUP3 PUSH2 0x6CD JUMP JUMPDEST PUSH1 0x20 DUP3 ADD SWAP1 POP SWAP2 SWAP1 POP JUMP JUMPDEST PUSH0 PUSH1 0x20 DUP3 ADD SWAP1 POP DUP2 DUP2 SUB PUSH0 DUP4 ADD MSTORE PUSH2 0x72E DUP2 PUSH2 0x6F5 JUMP JUMPDEST SWAP1 POP SWAP2 SWAP1 POP JUMP JUMPDEST PUSH32 0x4E487B7100000000000000000000000000000000000000000000000000000000 PUSH0 MSTORE PUSH1 0x11 PUSH1 0x4 MSTORE PUSH1 0x24 PUSH0 REVERT JUMPDEST PUSH0 PUSH2 0x76C DUP3 PUSH2 0x32C JUMP JUMPDEST SWAP2 POP PUSH2 0x777 DUP4 PUSH2 0x32C JUMP JUMPDEST SWAP3 POP DUP3 DUP3 ADD SWAP1 POP DUP1 DUP3 GT ISZERO PUSH2 0x78F JUMPI PUSH2 0x78E PUSH2 0x735 JUMP JUMPDEST JUMPDEST SWAP3 SWAP2 POP POP JUMP JUMPDEST PUSH2 0x79E DUP2 PUSH2 0x32C JUMP JUMPDEST DUP3 MSTORE POP POP JUMP JUMPDEST PUSH0 PUSH1 0x20 DUP3 ADD SWAP1 POP PUSH2 0x7B7 PUSH0 DUP4 ADD DUP5 PUSH2 0x795 JUMP JUMPDEST SWAP3 SWAP2 POP POP JUMP JUMPDEST PUSH2 0x14AD DUP1 PUSH2 0x7CA PUSH0 CODECOPY PUSH0 RETURN INVALID PUSH1 0x80 PUSH1 0x40 MSTORE CALLVALUE DUP1 ISZERO PUSH2 0xF JUMPI PUSH0 PUSH0 REVERT JUMPDEST POP PUSH1 0x4 CALLDATASIZE LT PUSH2 0x9C JUMPI PUSH0 CALLDATALOAD PUSH1 0xE0 SHR DUP1 PUSH4 0x3E5BEAB9 GT PUSH2 0x64 JUMPI DUP1 PUSH4 0x3E5BEAB9 EQ PUSH2 0x15A JUMPI DUP1 PUSH4 0x40C10F19 EQ PUSH2 0x18A JUMPI DUP1 PUSH4 0x95D89B41 EQ PUSH2 0x1A6 JUMPI DUP1 PUSH4 0xA9059CBB EQ PUSH2 0x1C4 JUMPI DUP1 PUSH4 0xE3D670D7 EQ PUSH2 0x1F4 JUMPI PUSH2 0x9C JUMP JUMPDEST DUP1 PUSH4 0x6FDDE03 EQ PUSH2 0xA0 JUMPI DUP1 PUSH4 0x95EA7B3 EQ PUSH2 0xBE JUMPI DUP1 PUSH4 0x18160DDD EQ PUSH2 0xEE JUMPI DUP1 PUSH4 0x23B872DD EQ PUSH2 0x10C JUMPI DUP1 PUSH4 0x313CE567 EQ PUSH2 0x13C JUMPI JUMPDEST PUSH0 PUSH0 REVERT JUMPDEST PUSH2 0xA8 PUSH2 0x224 JUMP JUMPDEST PUSH1 0x40 MLOAD PUSH2 0xB5 SWAP2 SWAP1 PUSH2 0xDE6 JUMP JUMPDEST PUSH1 0x40 MLOAD DUP1 SWAP2 SUB SWAP1 RETURN JUMPDEST PUSH2 0xD8 PUSH1 0x4 DUP1 CALLDATASIZE SUB DUP2 ADD SWAP1 PUSH2 0xD3 SWAP2 SWAP1 PUSH2 0xE97 JUMP JUMPDEST PUSH2 0x2B4 JUMP JUMPDEST PUSH1 0x40 MLOAD PUSH2 0xE5 SWAP2 SWAP1 PUSH2 0xEEF JUMP JUMPDEST PUSH1 0x40 MLOAD DUP1 SWAP2 SUB SWAP1 RETURN JUMPDEST PUSH2 0xF6 PUSH2 0x511 JUMP JUMPDEST PUSH1 0x40 MLOAD PUSH2 0x103 SWAP2 SWAP1 PUSH2 0xF17 JUMP JUMPDEST PUSH1 0x40 MLOAD DUP1 SWAP2 SUB SWAP1 RETURN JUMPDEST PUSH2 0x126 PUSH1 0x4 DUP1 CALLDATASIZE SUB DUP2 ADD SWAP1 PUSH2 0x121 SWAP2 SWAP1 PUSH2 0xF30 JUMP JUMPDEST PUSH2 0x51A JUMP JUMPDEST PUSH1 0x40 MLOAD PUSH2 0x133 SWAP2 SWAP1 PUSH2 0xEEF JUMP JUMPDEST PUSH1 0x40 MLOAD DUP1 SWAP2 SUB SWAP1 RETURN JUMPDEST PUSH2 0x144 PUSH2 0x865 JUMP JUMPDEST PUSH1 0x40 MLOAD PUSH2 0x151 SWAP2 SWAP1 PUSH2 0xF9B JUMP JUMPDEST PUSH1 0x40 MLOAD DUP1 SWAP2 SUB SWAP1 RETURN JUMPDEST PUSH2 0x174 PUSH1 0x4 DUP1 CALLDATASIZE SUB DUP2 ADD SWAP1 PUSH2 0x16F SWAP2 SWAP1 PUSH2 0xFB4 JUMP JUMPDEST PUSH2 0x86D JUMP JUMPDEST PUSH1 0x40 MLOAD PUSH2 0x181 SWAP2 SWAP1 PUSH2 0xF17 JUMP JUMPDEST PUSH1 0x40 MLOAD DUP1 SWAP2 SUB SWAP1 RETURN JUMPDEST PUSH2 0x1A4 PUSH1 0x4 DUP1 CALLDATASIZE SUB DUP2 ADD SWAP1 PUSH2 0x19F SWAP2 SWAP1 PUSH2 0xE97 JUMP JUMPDEST PUSH2 0x8EE JUMP JUMPDEST STOP JUMPDEST PUSH2 0x1AE PUSH2 0x98B JUMP JUMPDEST PUSH1 0x40 MLOAD PUSH2 0x1BB SWAP2 SWAP1 PUSH2 0xDE6 JUMP JUMPDEST PUSH1 0x40 MLOAD DUP1 SWAP2 SUB SWAP1 RETURN JUMPDEST PUSH2 0x1DE PUSH1 0x4 DUP1 CALLDATASIZE SUB DUP2 ADD SWAP1 PUSH2 0x1D9 SWAP2 SWAP1 PUSH2 0xE97 JUMP JUMPDEST PUSH2 0xA1B JUMP JUMPDEST PUSH1 0x40 MLOAD PUSH2 0x1EB SWAP2 SWAP1 PUSH2 0xEEF JUMP JUMPDEST PUSH1 0x40 MLOAD DUP1 SWAP2 SUB SWAP1 RETURN JUMPDEST PUSH2 0x20E PUSH1 0x4 DUP1 CALLDATASIZE SUB DUP2 ADD SWAP1 PUSH2 0x209 SWAP2 SWAP1 PUSH2 0xFB4 JUMP JUMPDEST PUSH2 0xC1C JUMP JUMPDEST PUSH1 0x40 MLOAD PUSH2 0x21B SWAP2 SWAP1 PUSH2 0xF17 JUMP JUMPDEST PUSH1 0x40 MLOAD DUP1 SWAP2 SUB SWAP1 RETURN JUMPDEST PUSH1 0x60 PUSH1 0x3 DUP1 SLOAD PUSH2 0x233 SWAP1 PUSH2 0x100C JUMP JUMPDEST DUP1 PUSH1 0x1F ADD PUSH1 0x20 DUP1 SWAP2 DIV MUL PUSH1 0x20 ADD PUSH1 0x40 MLOAD SWAP1 DUP2 ADD PUSH1 0x40 MSTORE DUP1 SWAP3 SWAP2 SWAP1 DUP2 DUP2 MSTORE PUSH1 0x20 ADD DUP3 DUP1 SLOAD PUSH2 0x25F SWAP1 PUSH2 0x100C JUMP JUMPDEST DUP1 ISZERO PUSH2 0x2AA JUMPI DUP1 PUSH1 0x1F LT PUSH2 0x281 JUMPI PUSH2 0x100 DUP1 DUP4 SLOAD DIV MUL DUP4 MSTORE SWAP2 PUSH1 0x20 ADD SWAP2 PUSH2 0x2AA JUMP JUMPDEST DUP3 ADD SWAP2 SWAP1 PUSH0 MSTORE PUSH1 0x20 PUSH0 KECCAK256 SWAP1 JUMPDEST DUP2 SLOAD DUP2 MSTORE SWAP1 PUSH1 0x1 ADD SWAP1 PUSH1 0x20 ADD DUP1 DUP4 GT PUSH2 0x28D JUMPI DUP3 SWAP1 SUB PUSH1 0x1F AND DUP3 ADD SWAP2 JUMPDEST POP POP POP POP POP SWAP1 POP SWAP1 JUMP JUMPDEST PUSH0 PUSH0 PUSH20 0xFFFFFFFFFFFFFFFFFFFFFFFFFFFFFFFFFFFFFFFF AND DUP4 PUSH20 0xFFFFFFFFFFFFFFFFFFFFFFFFFFFFFFFFFFFFFFFF AND SUB PUSH2 0x323 JUMPI PUSH1 0x40 MLOAD PUSH32 0x8C379A000000000000000000000000000000000000000000000000000000000 DUP2 MSTORE PUSH1 0x4 ADD PUSH2 0x31A SWAP1 PUSH2 0x1086 JUMP JUMPDEST PUSH1 0x40 MLOAD DUP1 SWAP2 SUB SWAP1 REVERT JUMPDEST PUSH0 PUSH0 PUSH0 CALLER PUSH20 0xFFFFFFFFFFFFFFFFFFFFFFFFFFFFFFFFFFFFFFFF AND PUSH20 0xFFFFFFFFFFFFFFFFFFFFFFFFFFFFFFFFFFFFFFFF AND DUP2 MSTORE PUSH1 0x20 ADD SWAP1 DUP2 MSTORE PUSH1 0x20 ADD PUSH0 KECCAK256 SLOAD GT PUSH2 0x3A1 JUMPI PUSH1 0x40 MLOAD PUSH32 0x8C379A000000000000000000000000000000000000000000000000000000000 DUP2 MSTORE PUSH1 0x4 ADD PUSH2 0x398 SWAP1 PUSH2 0x10EE JUMP JUMPDEST PUSH1 0x40 MLOAD DUP1 SWAP2 SUB SWAP1 REVERT JUMPDEST PUSH0 DUP3 GT PUSH2 0x3E3 JUMPI PUSH1 0x40 MLOAD PUSH32 0x8C379A000000000000000000000000000000000000000000000000000000000 DUP2 MSTORE PUSH1 0x4 ADD PUSH2 0x3DA SWAP1 PUSH2 0x1156 JUMP JUMPDEST PUSH1 0x40 MLOAD DUP1 SWAP2 SUB SWAP1 REVERT JUMPDEST DUP2 PUSH1 0x1 PUSH0 PUSH1 0x5 PUSH0 SWAP1 SLOAD SWAP1 PUSH2 0x100 EXP SWAP1 DIV PUSH20 0xFFFFFFFFFFFFFFFFFFFFFFFFFFFFFFFFFFFFFFFF AND PUSH20 0xFFFFFFFFFFFFFFFFFFFFFFFFFFFFFFFFFFFFFFFF AND PUSH20 0xFFFFFFFFFFFFFFFFFFFFFFFFFFFFFFFFFFFFFFFF AND DUP2 MSTORE PUSH1 0x20 ADD SWAP1 DUP2 MSTORE PUSH1 0x20 ADD PUSH0 KECCAK256 PUSH0 DUP6 PUSH20 0xFFFFFFFFFFFFFFFFFFFFFFFFFFFFFFFFFFFFFFFF AND PUSH20 0xFFFFFFFFFFFFFFFFFFFFFFFFFFFFFFFFFFFFFFFF AND DUP2 MSTORE PUSH1 0x20 ADD SWAP1 DUP2 MSTORE PUSH1 0x20 ADD PUSH0 KECCAK256 DUP2 SWAP1 SSTORE POP DUP3 PUSH20 0xFFFFFFFFFFFFFFFFFFFFFFFFFFFFFFFFFFFFFFFF AND PUSH1 0x5 PUSH0 SWAP1 SLOAD SWAP1 PUSH2 0x100 EXP SWAP1 DIV PUSH20 0xFFFFFFFFFFFFFFFFFFFFFFFFFFFFFFFFFFFFFFFF AND PUSH20 0xFFFFFFFFFFFFFFFFFFFFFFFFFFFFFFFFFFFFFFFF AND PUSH32 0x8C5BE1E5EBEC7D5BD14F71427D1E84F3DD0314C0F7B2291E5B200AC8C7C3B925 DUP5 PUSH1 0x40 MLOAD PUSH2 0x4FF SWAP2 SWAP1 PUSH2 0xF17 JUMP JUMPDEST PUSH1 0x40 MLOAD DUP1 SWAP2 SUB SWAP1 LOG3 PUSH1 0x1 SWAP1 POP SWAP3 SWAP2 POP POP JUMP JUMPDEST PUSH0 PUSH1 0x2 SLOAD SWAP1 POP SWAP1 JUMP JUMPDEST PUSH0 DUP2 PUSH0 PUSH0 DUP7 PUSH20 0xFFFFFFFFFFFFFFFFFFFFFFFFFFFFFFFFFFFFFFFF AND PUSH20 0xFFFFFFFFFFFFFFFFFFFFFFFFFFFFFFFFFFFFFFFF AND DUP2 MSTORE PUSH1 0x20 ADD SWAP1 DUP2 MSTORE PUSH1 0x20 ADD PUSH0 KECCAK256 SLOAD LT ISZERO PUSH2 0x59A JUMPI PUSH1 0x40 MLOAD PUSH32 0x8C379A000000000000000000000000000000000000000000000000000000000 DUP2 MSTORE PUSH1 0x4 ADD PUSH2 0x591 SWAP1 PUSH2 0x11BE JUMP JUMPDEST PUSH1 0x40 MLOAD DUP1 SWAP2 SUB SWAP1 REVERT JUMPDEST PUSH0 PUSH20 0xFFFFFFFFFFFFFFFFFFFFFFFFFFFFFFFFFFFFFFFF AND DUP4 PUSH20 0xFFFFFFFFFFFFFFFFFFFFFFFFFFFFFFFFFFFFFFFF AND SUB PUSH2 0x608 JUMPI PUSH1 0x40 MLOAD PUSH32 0x8C379A000000000000000000000000000000000000000000000000000000000 DUP2 MSTORE PUSH1 0x4 ADD PUSH2 0x5FF SWAP1 PUSH2 0x11BE JUMP JUMPDEST PUSH1 0x40 MLOAD DUP1 SWAP2 SUB SWAP1 REVERT JUMPDEST DUP2 PUSH1 0x1 PUSH0 DUP7 PUSH20 0xFFFFFFFFFFFFFFFFFFFFFFFFFFFFFFFFFFFFFFFF AND PUSH20 0xFFFFFFFFFFFFFFFFFFFFFFFFFFFFFFFFFFFFFFFF AND DUP2 MSTORE PUSH1 0x20 ADD SWAP1 DUP2 MSTORE PUSH1 0x20 ADD PUSH0 KECCAK256 PUSH0 CALLER PUSH20 0xFFFFFFFFFFFFFFFFFFFFFFFFFFFFFFFFFFFFFFFF AND PUSH20 0xFFFFFFFFFFFFFFFFFFFFFFFFFFFFFFFFFFFFFFFF AND DUP2 MSTORE PUSH1 0x20 ADD SWAP1 DUP2 MSTORE PUSH1 0x20 ADD PUSH0 KECCAK256 SLOAD LT ISZERO PUSH2 0x6C3 JUMPI PUSH1 0x40 MLOAD PUSH32 0x8C379A000000000000000000000000000000000000000000000000000000000 DUP2 MSTORE PUSH1 0x4 ADD PUSH2 0x6BA SWAP1 PUSH2 0x1226 JUMP JUMPDEST PUSH1 0x40 MLOAD DUP1 SWAP2 SUB SWAP1 REVERT JUMPDEST DUP2 PUSH0 PUSH0 DUP7 PUSH20 0xFFFFFFFFFFFFFFFFFFFFFFFFFFFFFFFFFFFFFFFF AND PUSH20 0xFFFFFFFFFFFFFFFFFFFFFFFFFFFFFFFFFFFFFFFF AND DUP2 MSTORE PUSH1 0x20 ADD SWAP1 DUP2 MSTORE PUSH1 0x20 ADD PUSH0 KECCAK256 PUSH0 DUP3 DUP3 SLOAD PUSH2 0x70E SWAP2 SWAP1 PUSH2 0x1271 JUMP JUMPDEST SWAP3 POP POP DUP2 SWAP1 SSTORE POP DUP2 PUSH0 PUSH0 DUP6 PUSH20 0xFFFFFFFFFFFFFFFFFFFFFFFFFFFFFFFFFFFFFFFF AND PUSH20 0xFFFFFFFFFFFFFFFFFFFFFFFFFFFFFFFFFFFFFFFF AND DUP2 MSTORE PUSH1 0x20 ADD SWAP1 DUP2 MSTORE PUSH1 0x20 ADD PUSH0 KECCAK256 PUSH0 DUP3 DUP3 SLOAD PUSH2 0x760 SWAP2 SWAP1 PUSH2 0x12A4 JUMP JUMPDEST SWAP3 POP POP DUP2 SWAP1 SSTORE POP DUP2 PUSH1 0x1 PUSH0 DUP7 PUSH20 0xFFFFFFFFFFFFFFFFFFFFFFFFFFFFFFFFFFFFFFFF AND PUSH20 0xFFFFFFFFFFFFFFFFFFFFFFFFFFFFFFFFFFFFFFFF AND DUP2 MSTORE PUSH1 0x20 ADD SWAP1 DUP2 MSTORE PUSH1 0x20 ADD PUSH0 KECCAK256 PUSH0 CALLER PUSH20 0xFFFFFFFFFFFFFFFFFFFFFFFFFFFFFFFFFFFFFFFF AND PUSH20 0xFFFFFFFFFFFFFFFFFFFFFFFFFFFFFFFFFFFFFFFF AND DUP2 MSTORE PUSH1 0x20 ADD SWAP1 DUP2 MSTORE PUSH1 0x20 ADD PUSH0 KECCAK256 PUSH0 DUP3 DUP3 SLOAD PUSH2 0x7EE SWAP2 SWAP1 PUSH2 0x1271 JUMP JUMPDEST SWAP3 POP POP DUP2 SWAP1 SSTORE POP DUP3 PUSH20 0xFFFFFFFFFFFFFFFFFFFFFFFFFFFFFFFFFFFFFFFF AND DUP5 PUSH20 0xFFFFFFFFFFFFFFFFFFFFFFFFFFFFFFFFFFFFFFFF AND PUSH32 0xDDF252AD1BE2C89B69C2B068FC378DAA952BA7F163C4A11628F55A4DF523B3EF DUP5 PUSH1 0x40 MLOAD PUSH2 0x852 SWAP2 SWAP1 PUSH2 0xF17 JUMP JUMPDEST PUSH1 0x40 MLOAD DUP1 SWAP2 SUB SWAP1 LOG3 PUSH1 0x1 SWAP1 POP SWAP4 SWAP3 POP POP POP JUMP JUMPDEST PUSH0 PUSH1 0x12 SWAP1 POP SWAP1 JUMP JUMPDEST PUSH0 PUSH1 0x1 PUSH0 CALLER PUSH20 0xFFFFFFFFFFFFFFFFFFFFFFFFFFFFFFFFFFFFFFFF AND PUSH20 0xFFFFFFFFFFFFFFFFFFFFFFFFFFFFFFFFFFFFFFFF AND DUP2 MSTORE PUSH1 0x20 ADD SWAP1 DUP2 MSTORE PUSH1 0x20 ADD PUSH0 KECCAK256 PUSH0 DUP4 PUSH20 0xFFFFFFFFFFFFFFFFFFFFFFFFFFFFFFFFFFFFFFFF AND PUSH20 0xFFFFFFFFFFFFFFFFFFFFFFFFFFFFFFFFFFFFFFFF AND DUP2 MSTORE PUSH1 0x20 ADD SWAP1 DUP2 MSTORE PUSH1 0x20 ADD PUSH0 KECCAK256 SLOAD SWAP1 POP SWAP2 SWAP1 POP JUMP JUMPDEST DUP2 PUSH20 0xFFFFFFFFFFFFFFFFFFFFFFFFFFFFFFFFFFFFFFFF AND PUSH1 0x5 PUSH0 SWAP1 SLOAD SWAP1 PUSH2 0x100 EXP SWAP1 DIV PUSH20 0xFFFFFFFFFFFFFFFFFFFFFFFFFFFFFFFFFFFFFFFF AND PUSH20 0xFFFFFFFFFFFFFFFFFFFFFFFFFFFFFFFFFFFFFFFF AND EQ PUSH2 0x97D JUMPI PUSH1 0x40 MLOAD PUSH32 0x8C379A000000000000000000000000000000000000000000000000000000000 DUP2 MSTORE PUSH1 0x4 ADD PUSH2 0x974 SWAP1 PUSH2 0x1321 JUMP JUMPDEST PUSH1 0x40 MLOAD DUP1 SWAP2 SUB SWAP1 REVERT JUMPDEST PUSH2 0x987 DUP3 DUP3 PUSH2 0xC61 JUMP JUMPDEST POP POP JUMP JUMPDEST PUSH1 0x60 PUSH1 0x4 DUP1 SLOAD PUSH2 0x99A SWAP1 PUSH2 0x100C JUMP JUMPDEST DUP1 PUSH1 0x1F ADD PUSH1 0x20 DUP1 SWAP2 DIV MUL PUSH1 0x20 ADD PUSH1 0x40 MLOAD SWAP1 DUP2 ADD PUSH1 0x40 MSTORE DUP1 SWAP3 SWAP2 SWAP1 DUP2 DUP2 MSTORE PUSH1 0x20 ADD DUP3 DUP1 SLOAD PUSH2 0x9C6 SWAP1 PUSH2 0x100C JUMP JUMPDEST DUP1 ISZERO PUSH2 0xA11 JUMPI DUP1 PUSH1 0x1F LT PUSH2 0x9E8 JUMPI PUSH2 0x100 DUP1 DUP4 SLOAD DIV MUL DUP4 MSTORE SWAP2 PUSH1 0x20 ADD SWAP2 PUSH2 0xA11 JUMP JUMPDEST DUP3 ADD SWAP2 SWAP1 PUSH0 MSTORE PUSH1 0x20 PUSH0 KECCAK256 SWAP1 JUMPDEST DUP2 SLOAD DUP2 MSTORE SWAP1 PUSH1 0x1 ADD SWAP1 PUSH1 0x20 ADD DUP1 DUP4 GT PUSH2 0x9F4 JUMPI DUP3 SWAP1 SUB PUSH1 0x1F AND DUP3 ADD SWAP2 JUMPDEST POP POP POP POP POP SWAP1 POP SWAP1 JUMP JUMPDEST PUSH0 PUSH0 PUSH20 0xFFFFFFFFFFFFFFFFFFFFFFFFFFFFFFFFFFFFFFFF AND DUP4 PUSH20 0xFFFFFFFFFFFFFFFFFFFFFFFFFFFFFFFFFFFFFFFF AND SUB PUSH2 0xA8A JUMPI PUSH1 0x40 MLOAD PUSH32 0x8C379A000000000000000000000000000000000000000000000000000000000 DUP2 MSTORE PUSH1 0x4 ADD PUSH2 0xA81 SWAP1 PUSH2 0x1389 JUMP JUMPDEST PUSH1 0x40 MLOAD DUP1 SWAP2 SUB SWAP1 REVERT JUMPDEST DUP2 PUSH0 PUSH0 CALLER PUSH20 0xFFFFFFFFFFFFFFFFFFFFFFFFFFFFFFFFFFFFFFFF AND PUSH20 0xFFFFFFFFFFFFFFFFFFFFFFFFFFFFFFFFFFFFFFFF AND DUP2 MSTORE PUSH1 0x20 ADD SWAP1 DUP2 MSTORE PUSH1 0x20 ADD PUSH0 KECCAK256 SLOAD LT ISZERO PUSH2 0xB09 JUMPI PUSH1 0x40 MLOAD PUSH32 0x8C379A000000000000000000000000000000000000000000000000000000000 DUP2 MSTORE PUSH1 0x4 ADD PUSH2 0xB00 SWAP1 PUSH2 0x13F1 JUMP JUMPDEST PUSH1 0x40 MLOAD DUP1 SWAP2 SUB SWAP1 REVERT JUMPDEST DUP2 PUSH0 PUSH0 CALLER PUSH20 0xFFFFFFFFFFFFFFFFFFFFFFFFFFFFFFFFFFFFFFFF AND PUSH20 0xFFFFFFFFFFFFFFFFFFFFFFFFFFFFFFFFFFFFFFFF AND DUP2 MSTORE PUSH1 0x20 ADD SWAP1 DUP2 MSTORE PUSH1 0x20 ADD PUSH0 KECCAK256 PUSH0 DUP3 DUP3 SLOAD PUSH2 0xB54 SWAP2 SWAP1 PUSH2 0x1271 JUMP JUMPDEST SWAP3 POP POP DUP2 SWAP1 SSTORE POP DUP2 PUSH0 PUSH0 DUP6 PUSH20 0xFFFFFFFFFFFFFFFFFFFFFFFFFFFFFFFFFFFFFFFF AND PUSH20 0xFFFFFFFFFFFFFFFFFFFFFFFFFFFFFFFFFFFFFFFF AND DUP2 MSTORE PUSH1 0x20 ADD SWAP1 DUP2 MSTORE PUSH1 0x20 ADD PUSH0 KECCAK256 PUSH0 DUP3 DUP3 SLOAD PUSH2 0xBA6 SWAP2 SWAP1 PUSH2 0x12A4 JUMP JUMPDEST SWAP3 POP POP DUP2 SWAP1 SSTORE POP DUP3 PUSH20 0xFFFFFFFFFFFFFFFFFFFFFFFFFFFFFFFFFFFFFFFF AND CALLER PUSH20 0xFFFFFFFFFFFFFFFFFFFFFFFFFFFFFFFFFFFFFFFF AND PUSH32 0xDDF252AD1BE2C89B69C2B068FC378DAA952BA7F163C4A11628F55A4DF523B3EF DUP5 PUSH1 0x40 MLOAD PUSH2 0xC0A SWAP2 SWAP1 PUSH2 0xF17 JUMP JUMPDEST PUSH1 0x40 MLOAD DUP1 SWAP2 SUB SWAP1 LOG3 PUSH1 0x1 SWAP1 POP SWAP3 SWAP2 POP POP JUMP JUMPDEST PUSH0 PUSH0 PUSH0 DUP4 PUSH20 0xFFFFFFFFFFFFFFFFFFFFFFFFFFFFFFFFFFFFFFFF AND PUSH20 0xFFFFFFFFFFFFFFFFFFFFFFFFFFFFFFFFFFFFFFFF AND DUP2 MSTORE PUSH1 0x20 ADD SWAP1 DUP2 MSTORE PUSH1 0x20 ADD PUSH0 KECCAK256 SLOAD SWAP1 POP SWAP2 SWAP1 POP JUMP JUMPDEST PUSH0 DUP2 SUB PUSH2 0xCA3 JUMPI PUSH1 0x40 MLOAD PUSH32 0x8C379A000000000000000000000000000000000000000000000000000000000 DUP2 MSTORE PUSH1 0x4 ADD PUSH2 0xC9A SWAP1 PUSH2 0x1459 JUMP JUMPDEST PUSH1 0x40 MLOAD DUP1 SWAP2 SUB SWAP1 REVERT JUMPDEST DUP1 PUSH1 0x2 PUSH0 DUP3 DUP3 SLOAD PUSH2 0xCB4 SWAP2 SWAP1 PUSH2 0x12A4 JUMP JUMPDEST SWAP3 POP POP DUP2 SWAP1 SSTORE POP DUP1 PUSH0 PUSH0 DUP5 PUSH20 0xFFFFFFFFFFFFFFFFFFFFFFFFFFFFFFFFFFFFFFFF AND PUSH20 0xFFFFFFFFFFFFFFFFFFFFFFFFFFFFFFFFFFFFFFFF AND DUP2 MSTORE PUSH1 0x20 ADD SWAP1 DUP2 MSTORE PUSH1 0x20 ADD PUSH0 KECCAK256 PUSH0 DUP3 DUP3 SLOAD PUSH2 0xD06 SWAP2 SWAP1 PUSH2 0x12A4 JUMP JUMPDEST SWAP3 POP POP DUP2 SWAP1 SSTORE POP DUP2 PUSH20 0xFFFFFFFFFFFFFFFFFFFFFFFFFFFFFFFFFFFFFFFF AND PUSH0 PUSH20 0xFFFFFFFFFFFFFFFFFFFFFFFFFFFFFFFFFFFFFFFF AND PUSH32 0xDDF252AD1BE2C89B69C2B068FC378DAA952BA7F163C4A11628F55A4DF523B3EF DUP4 PUSH1 0x40 MLOAD PUSH2 0xD6A SWAP2 SWAP1 PUSH2 0xF17 JUMP JUMPDEST PUSH1 0x40 MLOAD DUP1 SWAP2 SUB SWAP1 LOG3 POP POP JUMP JUMPDEST PUSH0 DUP2 MLOAD SWAP1 POP SWAP2 SWAP1 POP JUMP JUMPDEST PUSH0 DUP3 DUP3 MSTORE PUSH1 0x20 DUP3 ADD SWAP1 POP SWAP3 SWAP2 POP POP JUMP JUMPDEST DUP3 DUP2 DUP4 MCOPY PUSH0 DUP4 DUP4 ADD MSTORE POP POP POP JUMP JUMPDEST PUSH0 PUSH1 0x1F NOT PUSH1 0x1F DUP4 ADD AND SWAP1 POP SWAP2 SWAP1 POP JUMP JUMPDEST PUSH0 PUSH2 0xDB8 DUP3 PUSH2 0xD76 JUMP JUMPDEST PUSH2 0xDC2 DUP2 DUP6 PUSH2 0xD80 JUMP JUMPDEST SWAP4 POP PUSH2 0xDD2 DUP2 DUP6 PUSH1 0x20 DUP7 ADD PUSH2 0xD90 JUMP JUMPDEST PUSH2 0xDDB DUP2 PUSH2 0xD9E JUMP JUMPDEST DUP5 ADD SWAP2 POP POP SWAP3 SWAP2 POP POP JUMP JUMPDEST PUSH0 PUSH1 0x20 DUP3 ADD SWAP1 POP DUP2 DUP2 SUB PUSH0 DUP4 ADD MSTORE PUSH2 0xDFE DUP2 DUP5 PUSH2 0xDAE JUMP JUMPDEST SWAP1 POP SWAP3 SWAP2 POP POP JUMP JUMPDEST PUSH0 PUSH0 REVERT JUMPDEST PUSH0 PUSH20 0xFFFFFFFFFFFFFFFFFFFFFFFFFFFFFFFFFFFFFFFF DUP3 AND SWAP1 POP SWAP2 SWAP1 POP JUMP JUMPDEST PUSH0 PUSH2 0xE33 DUP3 PUSH2 0xE0A JUMP JUMPDEST SWAP1 POP SWAP2 SWAP1 POP JUMP JUMPDEST PUSH2 0xE43 DUP2 PUSH2 0xE29 JUMP JUMPDEST DUP2 EQ PUSH2 0xE4D JUMPI PUSH0 PUSH0 REVERT JUMPDEST POP JUMP JUMPDEST PUSH0 DUP2 CALLDATALOAD SWAP1 POP PUSH2 0xE5E DUP2 PUSH2 0xE3A JUMP JUMPDEST SWAP3 SWAP2 POP POP JUMP JUMPDEST PUSH0 DUP2 SWAP1 POP SWAP2 SWAP1 POP JUMP JUMPDEST PUSH2 0xE76 DUP2 PUSH2 0xE64 JUMP JUMPDEST DUP2 EQ PUSH2 0xE80 JUMPI PUSH0 PUSH0 REVERT JUMPDEST POP JUMP JUMPDEST PUSH0 DUP2 CALLDATALOAD SWAP1 POP PUSH2 0xE91 DUP2 PUSH2 0xE6D JUMP JUMPDEST SWAP3 SWAP2 POP POP JUMP JUMPDEST PUSH0 PUSH0 PUSH1 0x40 DUP4 DUP6 SUB SLT ISZERO PUSH2 0xEAD JUMPI PUSH2 0xEAC PUSH2 0xE06 JUMP JUMPDEST JUMPDEST PUSH0 PUSH2 0xEBA DUP6 DUP3 DUP7 ADD PUSH2 0xE50 JUMP JUMPDEST SWAP3 POP POP PUSH1 0x20 PUSH2 0xECB DUP6 DUP3 DUP7 ADD PUSH2 0xE83 JUMP JUMPDEST SWAP2 POP POP SWAP3 POP SWAP3 SWAP1 POP JUMP JUMPDEST PUSH0 DUP2 ISZERO ISZERO SWAP1 POP SWAP2 SWAP1 POP JUMP JUMPDEST PUSH2 0xEE9 DUP2 PUSH2 0xED5 JUMP JUMPDEST DUP3 MSTORE POP POP JUMP JUMPDEST PUSH0 PUSH1 0x20 DUP3 ADD SWAP1 POP PUSH2 0xF02 PUSH0 DUP4 ADD DUP5 PUSH2 0xEE0 JUMP JUMPDEST SWAP3 SWAP2 POP POP JUMP JUMPDEST PUSH2 0xF11 DUP2 PUSH2 0xE64 JUMP JUMPDEST DUP3 MSTORE POP POP JUMP JUMPDEST PUSH0 PUSH1 0x20 DUP3 ADD SWAP1 POP PUSH2 0xF2A PUSH0 DUP4 ADD DUP5 PUSH2 0xF08 JUMP JUMPDEST SWAP3 SWAP2 POP POP JUMP JUMPDEST PUSH0 PUSH0 PUSH0 PUSH1 0x60 DUP5 DUP7 SUB SLT ISZERO PUSH2 0xF47 JUMPI PUSH2 0xF46 PUSH2 0xE06 JUMP JUMPDEST JUMPDEST PUSH0 PUSH2 0xF54 DUP7 DUP3 DUP8 ADD PUSH2 0xE50 JUMP JUMPDEST SWAP4 POP POP PUSH1 0x20 PUSH2 0xF65 DUP7 DUP3 DUP8 ADD PUSH2 0xE50 JUMP JUMPDEST SWAP3 POP POP PUSH1 0x40 PUSH2 0xF76 DUP7 DUP3 DUP8 ADD PUSH2 0xE83 JUMP JUMPDEST SWAP2 POP POP SWAP3 POP SWAP3 POP SWAP3 JUMP JUMPDEST PUSH0 PUSH1 0xFF DUP3 AND SWAP1 POP SWAP2 SWAP1 POP JUMP JUMPDEST PUSH2 0xF95 DUP2 PUSH2 0xF80 JUMP JUMPDEST DUP3 MSTORE POP POP JUMP JUMPDEST PUSH0 PUSH1 0x20 DUP3 ADD SWAP1 POP PUSH2 0xFAE PUSH0 DUP4 ADD DUP5 PUSH2 0xF8C JUMP JUMPDEST SWAP3 SWAP2 POP POP JUMP JUMPDEST PUSH0 PUSH1 0x20 DUP3 DUP5 SUB SLT ISZERO PUSH2 0xFC9 JUMPI PUSH2 0xFC8 PUSH2 0xE06 JUMP JUMPDEST JUMPDEST PUSH0 PUSH2 0xFD6 DUP5 DUP3 DUP6 ADD PUSH2 0xE50 JUMP JUMPDEST SWAP2 POP POP SWAP3 SWAP2 POP POP JUMP JUMPDEST PUSH32 0x4E487B7100000000000000000000000000000000000000000000000000000000 PUSH0 MSTORE PUSH1 0x22 PUSH1 0x4 MSTORE PUSH1 0x24 PUSH0 REVERT JUMPDEST PUSH0 PUSH1 0x2 DUP3 DIV SWAP1 POP PUSH1 0x1 DUP3 AND DUP1 PUSH2 0x1023 JUMPI PUSH1 0x7F DUP3 AND SWAP2 POP JUMPDEST PUSH1 0x20 DUP3 LT DUP2 SUB PUSH2 0x1036 JUMPI PUSH2 0x1035 PUSH2 0xFDF JUMP JUMPDEST JUMPDEST POP SWAP2 SWAP1 POP JUMP JUMPDEST PUSH32 0x616464726573732063616E6E6F74207A65726F00000000000000000000000000 PUSH0 DUP3 ADD MSTORE POP JUMP JUMPDEST PUSH0 PUSH2 0x1070 PUSH1 0x13 DUP4 PUSH2 0xD80 JUMP JUMPDEST SWAP2 POP PUSH2 0x107B DUP3 PUSH2 0x103C JUMP JUMPDEST PUSH1 0x20 DUP3 ADD SWAP1 POP SWAP2 SWAP1 POP JUMP JUMPDEST PUSH0 PUSH1 0x20 DUP3 ADD SWAP1 POP DUP2 DUP2 SUB PUSH0 DUP4 ADD MSTORE PUSH2 0x109D DUP2 PUSH2 0x1064 JUMP JUMPDEST SWAP1 POP SWAP2 SWAP1 POP JUMP JUMPDEST PUSH32 0x62616C616E636573203E20300000000000000000000000000000000000000000 PUSH0 DUP3 ADD MSTORE POP JUMP JUMPDEST PUSH0 PUSH2 0x10D8 PUSH1 0xC DUP4 PUSH2 0xD80 JUMP JUMPDEST SWAP2 POP PUSH2 0x10E3 DUP3 PUSH2 0x10A4 JUMP JUMPDEST PUSH1 0x20 DUP3 ADD SWAP1 POP SWAP2 SWAP1 POP JUMP JUMPDEST PUSH0 PUSH1 0x20 DUP3 ADD SWAP1 POP DUP2 DUP2 SUB PUSH0 DUP4 ADD MSTORE PUSH2 0x1105 DUP2 PUSH2 0x10CC JUMP JUMPDEST SWAP1 POP SWAP2 SWAP1 POP JUMP JUMPDEST PUSH32 0x616D6F756E74203E203000000000000000000000000000000000000000000000 PUSH0 DUP3 ADD MSTORE POP JUMP JUMPDEST PUSH0 PUSH2 0x1140 PUSH1 0xA DUP4 PUSH2 0xD80 JUMP JUMPDEST SWAP2 POP PUSH2 0x114B DUP3 PUSH2 0x110C JUMP JUMPDEST PUSH1 0x20 DUP3 ADD SWAP1 POP SWAP2 SWAP1 POP JUMP JUMPDEST PUSH0 PUSH1 0x20 DUP3 ADD SWAP1 POP DUP2 DUP2 SUB PUSH0 DUP4 ADD MSTORE PUSH2 0x116D DUP2 PUSH2 0x1134 JUMP JUMPDEST SWAP1 POP SWAP2 SWAP1 POP JUMP JUMPDEST PUSH32 0x3000000000000000000000000000000000000000000000000000000000000000 PUSH0 DUP3 ADD MSTORE POP JUMP JUMPDEST PUSH0 PUSH2 0x11A8 PUSH1 0x1 DUP4 PUSH2 0xD80 JUMP JUMPDEST SWAP2 POP PUSH2 0x11B3 DUP3 PUSH2 0x1174 JUMP JUMPDEST PUSH1 0x20 DUP3 ADD SWAP1 POP SWAP2 SWAP1 POP JUMP JUMPDEST PUSH0 PUSH1 0x20 DUP3 ADD SWAP1 POP DUP2 DUP2 SUB PUSH0 DUP4 ADD MSTORE PUSH2 0x11D5 DUP2 PUSH2 0x119C JUMP JUMPDEST SWAP1 POP SWAP2 SWAP1 POP JUMP JUMPDEST PUSH32 0x616C6C6F77616E636573203E3D20300000000000000000000000000000000000 PUSH0 DUP3 ADD MSTORE POP JUMP JUMPDEST PUSH0 PUSH2 0x1210 PUSH1 0xF DUP4 PUSH2 0xD80 JUMP JUMPDEST SWAP2 POP PUSH2 0x121B DUP3 PUSH2 0x11DC JUMP JUMPDEST PUSH1 0x20 DUP3 ADD SWAP1 POP SWAP2 SWAP1 POP JUMP JUMPDEST PUSH0 PUSH1 0x20 DUP3 ADD SWAP1 POP DUP2 DUP2 SUB PUSH0 DUP4 ADD MSTORE PUSH2 0x123D DUP2 PUSH2 0x1204 JUMP JUMPDEST SWAP1 POP SWAP2 SWAP1 POP JUMP JUMPDEST PUSH32 0x4E487B7100000000000000000000000000000000000000000000000000000000 PUSH0 MSTORE PUSH1 0x11 PUSH1 0x4 MSTORE PUSH1 0x24 PUSH0 REVERT JUMPDEST PUSH0 PUSH2 0x127B DUP3 PUSH2 0xE64 JUMP JUMPDEST SWAP2 POP PUSH2 0x1286 DUP4 PUSH2 0xE64 JUMP JUMPDEST SWAP3 POP DUP3 DUP3 SUB SWAP1 POP DUP2 DUP2 GT ISZERO PUSH2 0x129E JUMPI PUSH2 0x129D PUSH2 0x1244 JUMP JUMPDEST JUMPDEST SWAP3 SWAP2 POP POP JUMP JUMPDEST PUSH0 PUSH2 0x12AE DUP3 PUSH2 0xE64 JUMP JUMPDEST SWAP2 POP PUSH2 0x12B9 DUP4 PUSH2 0xE64 JUMP JUMPDEST SWAP3 POP DUP3 DUP3 ADD SWAP1 POP DUP1 DUP3 GT ISZERO PUSH2 0x12D1 JUMPI PUSH2 0x12D0 PUSH2 0x1244 JUMP JUMPDEST JUMPDEST SWAP3 SWAP2 POP POP JUMP JUMPDEST PUSH32 0x61646472657373206973207A65726F0000000000000000000000000000000000 PUSH0 DUP3 ADD MSTORE POP JUMP JUMPDEST PUSH0 PUSH2 0x130B PUSH1 0xF DUP4 PUSH2 0xD80 JUMP JUMPDEST SWAP2 POP PUSH2 0x1316 DUP3 PUSH2 0x12D7 JUMP JUMPDEST PUSH1 0x20 DUP3 ADD SWAP1 POP SWAP2 SWAP1 POP JUMP JUMPDEST PUSH0 PUSH1 0x20 DUP3 ADD SWAP1 POP DUP2 DUP2 SUB PUSH0 DUP4 ADD MSTORE PUSH2 0x1338 DUP2 PUSH2 0x12FF JUMP JUMPDEST SWAP1 POP SWAP2 SWAP1 POP JUMP JUMPDEST PUSH32 0x7472616E7366657220746F20746865207A65726F206164647265737300000000 PUSH0 DUP3 ADD MSTORE POP JUMP JUMPDEST PUSH0 PUSH2 0x1373 PUSH1 0x1C DUP4 PUSH2 0xD80 JUMP JUMPDEST SWAP2 POP PUSH2 0x137E DUP3 PUSH2 0x133F JUMP JUMPDEST PUSH1 0x20 DUP3 ADD SWAP1 POP SWAP2 SWAP1 POP JUMP JUMPDEST PUSH0 PUSH1 0x20 DUP3 ADD SWAP1 POP DUP2 DUP2 SUB PUSH0 DUP4 ADD MSTORE PUSH2 0x13A0 DUP2 PUSH2 0x1367 JUMP JUMPDEST SWAP1 POP SWAP2 SWAP1 POP JUMP JUMPDEST PUSH32 0x6F776E657220616D6F756E7420746F20657863656564732062616C616E636500 PUSH0 DUP3 ADD MSTORE POP JUMP JUMPDEST PUSH0 PUSH2 0x13DB PUSH1 0x1F DUP4 PUSH2 0xD80 JUMP JUMPDEST SWAP2 POP PUSH2 0x13E6 DUP3 PUSH2 0x13A7 JUMP JUMPDEST PUSH1 0x20 DUP3 ADD SWAP1 POP SWAP2 SWAP1 POP JUMP JUMPDEST PUSH0 PUSH1 0x20 DUP3 ADD SWAP1 POP DUP2 DUP2 SUB PUSH0 DUP4 ADD MSTORE PUSH2 0x1408 DUP2 PUSH2 0x13CF JUMP JUMPDEST SWAP1 POP SWAP2 SWAP1 POP JUMP JUMPDEST PUSH32 0x616D6F756E742063616E6E6F7420697320656D70747900000000000000000000 PUSH0 DUP3 ADD MSTORE POP JUMP JUMPDEST PUSH0 PUSH2 0x1443 PUSH1 0x16 DUP4 PUSH2 0xD80 JUMP JUMPDEST SWAP2 POP PUSH2 0x144E DUP3 PUSH2 0x140F JUMP JUMPDEST PUSH1 0x20 DUP3 ADD SWAP1 POP SWAP2 SWAP1 POP JUMP JUMPDEST PUSH0 PUSH1 0x20 DUP3 ADD SWAP1 POP DUP2 DUP2 SUB PUSH0 DUP4 ADD MSTORE PUSH2 0x1470 DUP2 PUSH2 0x1437 JUMP JUMPDEST SWAP1 POP SWAP2 SWAP1 POP JUMP INVALID LOG2 PUSH5 0x6970667358 0x22 SLT KECCAK256 0xCA MOD ISZERO 0xBA CALLDATACOPY 0xF7 0x2D 0x1E 0x27 EXTSTATICCALL ORIGIN RETF PUSH0 RETURNDATASIZE 0xC3 SLOAD 0x4B 0xCA PUSH19 0xD818E85E3309D829DC9204B63764736F6C6343 STOP ADDMOD 0x1E STOP CALLER "
				},
				"gasEstimates": {
					"creation": {
						"codeDepositCost": "1058600",
						"executionCost": "infinite",
						"totalCost": "infinite"
					},
					"external": {
						"allowance(address)": "2916",
						"approve(address,uint256)": "infinite",
						"balance(address)": "2916",
						"decimals()": "427",
						"mint(address,uint256)": "infinite",
						"name()": "infinite",
						"symbol()": "infinite",
						"totalSupply()": "2477",
						"transfer(address,uint256)": "infinite",
						"transferFrom(address,address,uint256)": "infinite"
					},
					"internal": {
						"_mint(address,uint256)": "infinite"
					}
				},
				"methodIdentifiers": {
					"allowance(address)": "3e5beab9",
					"approve(address,uint256)": "095ea7b3",
					"balance(address)": "e3d670d7",
					"decimals()": "313ce567",
					"mint(address,uint256)": "40c10f19",
					"name()": "06fdde03",
					"symbol()": "95d89b41",
					"totalSupply()": "18160ddd",
					"transfer(address,uint256)": "a9059cbb",
					"transferFrom(address,address,uint256)": "23b872dd"
				}
			},
			"storageLayout": {
				"storage": [
					{
						"astId": 5,
						"contract": "Solidity_task2/NMB20.sol:NMB20",
						"label": "_balances",
						"offset": 0,
						"slot": "0",
						"type": "t_mapping(t_address,t_uint256)"
					},
					{
						"astId": 11,
						"contract": "Solidity_task2/NMB20.sol:NMB20",
						"label": "_allowances",
						"offset": 0,
						"slot": "1",
						"type": "t_mapping(t_address,t_mapping(t_address,t_uint256))"
					},
					{
						"astId": 13,
						"contract": "Solidity_task2/NMB20.sol:NMB20",
						"label": "_totalSupply",
						"offset": 0,
						"slot": "2",
						"type": "t_uint256"
					},
					{
						"astId": 15,
						"contract": "Solidity_task2/NMB20.sol:NMB20",
						"label": "_name",
						"offset": 0,
						"slot": "3",
						"type": "t_string_storage"
					},
					{
						"astId": 17,
						"contract": "Solidity_task2/NMB20.sol:NMB20",
						"label": "_symbol",
						"offset": 0,
						"slot": "4",
						"type": "t_string_storage"
					},
					{
						"astId": 19,
						"contract": "Solidity_task2/NMB20.sol:NMB20",
						"label": "owner",
						"offset": 0,
						"slot": "5",
						"type": "t_address"
					}
				],
				"types": {
					"t_address": {
						"encoding": "inplace",
						"label": "address",
						"numberOfBytes": "20"
					},
					"t_mapping(t_address,t_mapping(t_address,t_uint256))": {
						"encoding": "mapping",
						"key": "t_address",
						"label": "mapping(address => mapping(address => uint256))",
						"numberOfBytes": "32",
						"value": "t_mapping(t_address,t_uint256)"
					},
					"t_mapping(t_address,t_uint256)": {
						"encoding": "mapping",
						"key": "t_address",
						"label": "mapping(address => uint256)",
						"numberOfBytes": "32",
						"value": "t_uint256"
					},
					"t_string_storage": {
						"encoding": "bytes",
						"label": "string",
						"numberOfBytes": "32"
					},
					"t_uint256": {
						"encoding": "inplace",
						"label": "uint256",
						"numberOfBytes": "32"
					}
				}
			},
			"userdoc": {
				"kind": "user",
				"methods": {},
				"version": 1
			}
		}
	}
}